{
  "abi": [
    {
      "type": "function",
      "name": "attendees",
      "inputs": [
        {
          "name": "",
          "type": "uint256",
          "internalType": "uint256"
        },
        {
          "name": "",
          "type": "address",
          "internalType": "address"
        }
      ],
      "outputs": [
        {
          "name": "attendeeAddress",
          "type": "address",
          "internalType": "address"
        },
        {
          "name": "eventId",
          "type": "uint256",
          "internalType": "uint256"
        },
        {
          "name": "isConfirmed",
          "type": "bool",
          "internalType": "bool"
        },
        {
          "name": "hasAttended",
          "type": "bool",
          "internalType": "bool"
        },
        {
          "name": "registeredAt",
          "type": "uint256",
          "internalType": "uint256"
        },
        {
          "name": "confirmedAt",
          "type": "uint256",
          "internalType": "uint256"
        }
      ],
      "stateMutability": "view"
    },
    {
      "type": "function",
      "name": "balanceOf",
      "inputs": [
        {
          "name": "account",
          "type": "address",
          "internalType": "address"
        },
        {
          "name": "id",
          "type": "uint256",
          "internalType": "uint256"
        }
      ],
      "outputs": [
        {
          "name": "",
          "type": "uint256",
          "internalType": "uint256"
        }
      ],
      "stateMutability": "view"
    },
    {
      "type": "function",
      "name": "balanceOfBatch",
      "inputs": [
        {
          "name": "accounts",
          "type": "address[]",
          "internalType": "address[]"
        },
        {
          "name": "ids",
          "type": "uint256[]",
          "internalType": "uint256[]"
        }
      ],
      "outputs": [
        {
          "name": "",
          "type": "uint256[]",
          "internalType": "uint256[]"
        }
      ],
      "stateMutability": "view"
    },
    {
      "type": "function",
      "name": "cancelEvent",
      "inputs": [
        {
          "name": "eventId",
          "type": "uint256",
          "internalType": "uint256"
        }
      ],
      "outputs": [],
      "stateMutability": "nonpayable"
    },
    {
      "type": "function",
      "name": "confirmAttendance",
      "inputs": [
        {
          "name": "eventId",
          "type": "uint256",
          "internalType": "uint256"
        },
        {
          "name": "_confirmationCode",
          "type": "string",
          "internalType": "string"
        }
      ],
      "outputs": [],
      "stateMutability": "nonpayable"
    },
    {
      "type": "function",
      "name": "confirmationCode",
      "inputs": [
        {
          "name": "",
          "type": "uint256",
          "internalType": "uint256"
        }
      ],
      "outputs": [
        {
          "name": "",
          "type": "bytes32",
          "internalType": "bytes32"
        }
      ],
      "stateMutability": "view"
    },
    {
      "type": "function",
      "name": "createEvent",
      "inputs": [
        {
          "name": "ipfsHash",
          "type": "string",
          "internalType": "string"
        },
        {
          "name": "startTime",
          "type": "uint256",
          "internalType": "uint256"
        },
        {
          "name": "endTime",
          "type": "uint256",
          "internalType": "uint256"
        },
        {
          "name": "maxAttendees",
          "type": "uint256",
          "internalType": "uint256"
        },
        {
          "name": "isVIP",
          "type": "bool",
          "internalType": "bool"
        },
        {
          "name": "data",
          "type": "bytes",
          "internalType": "bytes"
        },
        {
          "name": "slug",
          "type": "string",
          "internalType": "string"
        }
      ],
      "outputs": [
        {
          "name": "",
          "type": "uint256",
          "internalType": "uint256"
        }
      ],
      "stateMutability": "nonpayable"
    },
    {
      "type": "function",
      "name": "creatorEvents",
      "inputs": [
        {
          "name": "",
          "type": "address",
          "internalType": "address"
        },
        {
          "name": "",
          "type": "uint256",
          "internalType": "uint256"
        }
      ],
      "outputs": [
        {
          "name": "",
          "type": "uint256",
          "internalType": "uint256"
        }
      ],
      "stateMutability": "view"
    },
    {
      "type": "function",
      "name": "endEvent",
      "inputs": [
        {
          "name": "eventId",
          "type": "uint256",
          "internalType": "uint256"
        }
      ],
      "outputs": [],
      "stateMutability": "nonpayable"
    },
    {
      "type": "function",
      "name": "escrowModule",
      "inputs": [],
      "outputs": [
        {
          "name": "",
          "type": "address",
          "internalType": "contract IEscrowV1"
        }
      ],
      "stateMutability": "view"
    },
    {
      "type": "function",
      "name": "eventAttendees",
      "inputs": [
        {
          "name": "",
          "type": "uint256",
          "internalType": "uint256"
        },
        {
          "name": "",
          "type": "uint256",
          "internalType": "uint256"
        }
      ],
      "outputs": [
        {
          "name": "",
          "type": "address",
          "internalType": "address"
        }
      ],
      "stateMutability": "view"
    },
    {
      "type": "function",
      "name": "eventExistsCheck",
      "inputs": [
        {
          "name": "eventId",
          "type": "uint256",
          "internalType": "uint256"
        }
      ],
      "outputs": [
        {
          "name": "",
          "type": "bool",
          "internalType": "bool"
        }
      ],
      "stateMutability": "view"
    },
    {
      "type": "function",
      "name": "eventExistsMap",
      "inputs": [
        {
          "name": "",
          "type": "uint256",
          "internalType": "uint256"
        }
      ],
      "outputs": [
        {
          "name": "",
          "type": "bool",
          "internalType": "bool"
        }
      ],
      "stateMutability": "view"
    },
    {
      "type": "function",
      "name": "events",
      "inputs": [
        {
          "name": "",
          "type": "uint256",
          "internalType": "uint256"
        }
      ],
      "outputs": [
        {
          "name": "eventId",
          "type": "uint256",
          "internalType": "uint256"
        },
        {
          "name": "creator",
          "type": "address",
          "internalType": "address"
        },
        {
          "name": "ipfsHash",
          "type": "string",
          "internalType": "string"
        },
        {
          "name": "startTime",
          "type": "uint256",
          "internalType": "uint256"
        },
        {
          "name": "endTime",
          "type": "uint256",
          "internalType": "uint256"
        },
        {
          "name": "maxAttendees",
          "type": "uint256",
          "internalType": "uint256"
        },
        {
          "name": "currentAttendees",
          "type": "uint256",
          "internalType": "uint256"
        },
        {
          "name": "isVIP",
          "type": "bool",
          "internalType": "bool"
        },
        {
          "name": "isActive",
          "type": "bool",
          "internalType": "bool"
        },
        {
          "name": "isLive",
          "type": "bool",
          "internalType": "bool"
        },
        {
          "name": "status",
          "type": "uint8",
          "internalType": "enum EventTypes.EventStatus"
        },
        {
          "name": "createdAt",
          "type": "uint256",
          "internalType": "uint256"
        },
        {
          "name": "updatedAt",
          "type": "uint256",
          "internalType": "uint256"
        }
      ],
      "stateMutability": "view"
    },
    {
      "type": "function",
      "name": "getAttendee",
      "inputs": [
        {
          "name": "eventId",
          "type": "uint256",
          "internalType": "uint256"
        },
        {
          "name": "attendeeAddress",
          "type": "address",
          "internalType": "address"
        }
      ],
      "outputs": [
        {
          "name": "",
          "type": "tuple",
          "internalType": "struct EventTypes.AttendeeData",
          "components": [
            {
              "name": "attendeeAddress",
              "type": "address",
              "internalType": "address"
            },
            {
              "name": "eventId",
              "type": "uint256",
              "internalType": "uint256"
            },
            {
              "name": "isConfirmed",
              "type": "bool",
              "internalType": "bool"
            },
            {
              "name": "hasAttended",
              "type": "bool",
              "internalType": "bool"
            },
            {
              "name": "registeredAt",
              "type": "uint256",
              "internalType": "uint256"
            },
            {
              "name": "confirmedAt",
              "type": "uint256",
              "internalType": "uint256"
            }
          ]
        }
      ],
      "stateMutability": "view"
    },
    {
      "type": "function",
      "name": "getAttendeeCount",
      "inputs": [
        {
          "name": "eventId",
          "type": "uint256",
          "internalType": "uint256"
        }
      ],
      "outputs": [
        {
          "name": "",
          "type": "uint256",
          "internalType": "uint256"
        }
      ],
      "stateMutability": "view"
    },
    {
      "type": "function",
      "name": "getCreatorEvents",
      "inputs": [
        {
          "name": "creator",
          "type": "address",
          "internalType": "address"
        }
      ],
      "outputs": [
        {
          "name": "",
          "type": "uint256[]",
          "internalType": "uint256[]"
        }
      ],
      "stateMutability": "view"
    },
    {
      "type": "function",
      "name": "getEvent",
      "inputs": [
        {
          "name": "eventId",
          "type": "uint256",
          "internalType": "uint256"
        }
      ],
      "outputs": [
        {
          "name": "",
          "type": "tuple",
          "internalType": "struct EventTypes.EventData",
          "components": [
            {
              "name": "eventId",
              "type": "uint256",
              "internalType": "uint256"
            },
            {
              "name": "creator",
              "type": "address",
              "internalType": "address"
            },
            {
              "name": "ipfsHash",
              "type": "string",
              "internalType": "string"
            },
            {
              "name": "startTime",
              "type": "uint256",
              "internalType": "uint256"
            },
            {
              "name": "endTime",
              "type": "uint256",
              "internalType": "uint256"
            },
            {
              "name": "maxAttendees",
              "type": "uint256",
              "internalType": "uint256"
            },
            {
              "name": "currentAttendees",
              "type": "uint256",
              "internalType": "uint256"
            },
            {
              "name": "isVIP",
              "type": "bool",
              "internalType": "bool"
            },
            {
              "name": "isActive",
              "type": "bool",
              "internalType": "bool"
            },
            {
              "name": "isLive",
              "type": "bool",
              "internalType": "bool"
            },
            {
              "name": "status",
              "type": "uint8",
              "internalType": "enum EventTypes.EventStatus"
            },
            {
              "name": "createdAt",
              "type": "uint256",
              "internalType": "uint256"
            },
            {
              "name": "updatedAt",
              "type": "uint256",
              "internalType": "uint256"
            }
          ]
        }
      ],
      "stateMutability": "view"
    },
    {
      "type": "function",
      "name": "getEventAttendees",
      "inputs": [
        {
          "name": "eventId",
          "type": "uint256",
          "internalType": "uint256"
        }
      ],
      "outputs": [
        {
          "name": "",
          "type": "address[]",
          "internalType": "address[]"
        }
      ],
      "stateMutability": "view"
    },
    {
      "type": "function",
      "name": "getEventCount",
      "inputs": [],
      "outputs": [
        {
          "name": "",
          "type": "uint256",
          "internalType": "uint256"
        }
      ],
      "stateMutability": "view"
    },
    {
      "type": "function",
      "name": "getEventStatus",
      "inputs": [
        {
          "name": "eventId",
          "type": "uint256",
          "internalType": "uint256"
        }
      ],
      "outputs": [
        {
          "name": "",
          "type": "uint8",
          "internalType": "enum EventTypes.EventStatus"
        }
      ],
      "stateMutability": "view"
    },
    {
      "type": "function",
      "name": "initialize",
      "inputs": [
        {
          "name": "_uri",
          "type": "string",
          "internalType": "string"
        }
      ],
      "outputs": [],
      "stateMutability": "nonpayable"
    },
    {
      "type": "function",
      "name": "isApprovedForAll",
      "inputs": [
        {
          "name": "account",
          "type": "address",
          "internalType": "address"
        },
        {
          "name": "operator",
          "type": "address",
          "internalType": "address"
        }
      ],
      "outputs": [
        {
          "name": "",
          "type": "bool",
          "internalType": "bool"
        }
      ],
      "stateMutability": "view"
    },
    {
      "type": "function",
      "name": "isEventActive",
      "inputs": [
        {
          "name": "eventId",
          "type": "uint256",
          "internalType": "uint256"
        }
      ],
      "outputs": [
        {
          "name": "",
          "type": "bool",
          "internalType": "bool"
        }
      ],
      "stateMutability": "view"
    },
    {
      "type": "function",
      "name": "markAttended",
      "inputs": [
        {
          "name": "eventId",
          "type": "uint256",
          "internalType": "uint256"
        },
        {
          "name": "attendeeAddress",
          "type": "address",
          "internalType": "address"
        }
      ],
      "outputs": [],
      "stateMutability": "nonpayable"
    },
    {
      "type": "function",
      "name": "owner",
      "inputs": [],
      "outputs": [
        {
          "name": "",
          "type": "address",
          "internalType": "address"
        }
      ],
      "stateMutability": "view"
    },
    {
      "type": "function",
      "name": "pause",
      "inputs": [],
      "outputs": [],
      "stateMutability": "nonpayable"
    },
    {
      "type": "function",
      "name": "paused",
      "inputs": [],
      "outputs": [
        {
          "name": "",
          "type": "bool",
          "internalType": "bool"
        }
      ],
      "stateMutability": "view"
    },
    {
      "type": "function",
      "name": "publishEvent",
      "inputs": [
        {
          "name": "eventId",
          "type": "uint256",
          "internalType": "uint256"
        }
      ],
      "outputs": [],
      "stateMutability": "nonpayable"
    },
    {
      "type": "function",
      "name": "registerForEvent",
      "inputs": [
        {
          "name": "eventId",
          "type": "uint256",
          "internalType": "uint256"
        },
        {
          "name": "data",
          "type": "bytes",
          "internalType": "bytes"
        }
      ],
      "outputs": [
        {
          "name": "fee",
          "type": "uint256",
          "internalType": "uint256"
        }
      ],
      "stateMutability": "nonpayable"
    },
    {
      "type": "function",
      "name": "renounceOwnership",
      "inputs": [],
      "outputs": [],
      "stateMutability": "nonpayable"
    },
    {
      "type": "function",
      "name": "safeBatchTransferFrom",
      "inputs": [
        {
          "name": "from",
          "type": "address",
          "internalType": "address"
        },
        {
          "name": "to",
          "type": "address",
          "internalType": "address"
        },
        {
          "name": "ids",
          "type": "uint256[]",
          "internalType": "uint256[]"
        },
        {
          "name": "values",
          "type": "uint256[]",
          "internalType": "uint256[]"
        },
        {
          "name": "data",
          "type": "bytes",
          "internalType": "bytes"
        }
      ],
      "outputs": [],
      "stateMutability": "nonpayable"
    },
    {
      "type": "function",
      "name": "safeTransferFrom",
      "inputs": [
        {
          "name": "from",
          "type": "address",
          "internalType": "address"
        },
        {
          "name": "to",
          "type": "address",
          "internalType": "address"
        },
        {
          "name": "id",
          "type": "uint256",
          "internalType": "uint256"
        },
        {
          "name": "value",
          "type": "uint256",
          "internalType": "uint256"
        },
        {
          "name": "data",
          "type": "bytes",
          "internalType": "bytes"
        }
      ],
      "outputs": [],
      "stateMutability": "nonpayable"
    },
    {
      "type": "function",
      "name": "setApprovalForAll",
      "inputs": [
        {
          "name": "operator",
          "type": "address",
          "internalType": "address"
        },
        {
          "name": "approved",
          "type": "bool",
          "internalType": "bool"
        }
      ],
      "outputs": [],
      "stateMutability": "nonpayable"
    },
    {
      "type": "function",
      "name": "setConfirmationCode",
      "inputs": [
        {
          "name": "eventId",
          "type": "uint256",
          "internalType": "uint256"
        },
        {
          "name": "code",
          "type": "string",
          "internalType": "string"
        }
      ],
      "outputs": [],
      "stateMutability": "nonpayable"
    },
    {
      "type": "function",
      "name": "setEscrow",
      "inputs": [
        {
          "name": "_escrowModule",
          "type": "address",
          "internalType": "address"
        }
      ],
      "outputs": [],
      "stateMutability": "nonpayable"
    },
    {
      "type": "function",
      "name": "startLiveEvent",
      "inputs": [
        {
          "name": "eventId",
          "type": "uint256",
          "internalType": "uint256"
        }
      ],
      "outputs": [],
      "stateMutability": "nonpayable"
    },
    {
      "type": "function",
      "name": "supportsInterface",
      "inputs": [
        {
          "name": "interfaceId",
          "type": "bytes4",
          "internalType": "bytes4"
        }
      ],
      "outputs": [
        {
          "name": "",
          "type": "bool",
          "internalType": "bool"
        }
      ],
      "stateMutability": "view"
    },
    {
      "type": "function",
      "name": "transferOwnership",
      "inputs": [
        {
          "name": "newOwner",
          "type": "address",
          "internalType": "address"
        }
      ],
      "outputs": [],
      "stateMutability": "nonpayable"
    },
    {
      "type": "function",
      "name": "unpause",
      "inputs": [],
      "outputs": [],
      "stateMutability": "nonpayable"
    },
    {
      "type": "function",
      "name": "updateAttendeesCount",
      "inputs": [
        {
          "name": "eventId",
          "type": "uint256",
          "internalType": "uint256"
        },
        {
          "name": "newCount",
          "type": "uint256",
          "internalType": "uint256"
        }
      ],
      "outputs": [],
      "stateMutability": "nonpayable"
    },
    {
      "type": "function",
      "name": "updateEvent",
      "inputs": [
        {
          "name": "eventId",
          "type": "uint256",
          "internalType": "uint256"
        },
        {
          "name": "ipfsHash",
          "type": "string",
          "internalType": "string"
        },
        {
          "name": "startTime",
          "type": "uint256",
          "internalType": "uint256"
        },
        {
          "name": "endTime",
          "type": "uint256",
          "internalType": "uint256"
        },
        {
          "name": "maxAttendees",
          "type": "uint256",
          "internalType": "uint256"
        }
      ],
      "outputs": [],
      "stateMutability": "nonpayable"
    },
    {
      "type": "function",
      "name": "uri",
      "inputs": [
        {
          "name": "",
          "type": "uint256",
          "internalType": "uint256"
        }
      ],
      "outputs": [
        {
          "name": "",
          "type": "string",
          "internalType": "string"
        }
      ],
      "stateMutability": "view"
    },
    {
      "type": "function",
      "name": "version",
      "inputs": [],
      "outputs": [
        {
          "name": "",
          "type": "string",
          "internalType": "string"
        }
      ],
      "stateMutability": "pure"
    },
    {
      "type": "event",
      "name": "ApprovalForAll",
      "inputs": [
        {
          "name": "account",
          "type": "address",
          "indexed": true,
          "internalType": "address"
        },
        {
          "name": "operator",
          "type": "address",
          "indexed": true,
          "internalType": "address"
        },
        {
          "name": "approved",
          "type": "bool",
          "indexed": false,
          "internalType": "bool"
        }
      ],
      "anonymous": false
    },
    {
      "type": "event",
      "name": "AttendeeAttended",
      "inputs": [
        {
          "name": "eventId",
          "type": "uint256",
          "indexed": true,
          "internalType": "uint256"
        },
        {
          "name": "attendee",
          "type": "address",
          "indexed": true,
          "internalType": "address"
        }
      ],
      "anonymous": false
    },
    {
      "type": "event",
      "name": "AttendeeConfirmed",
      "inputs": [
        {
          "name": "eventId",
          "type": "uint256",
          "indexed": true,
          "internalType": "uint256"
        },
        {
          "name": "attendee",
          "type": "address",
          "indexed": true,
          "internalType": "address"
        },
        {
          "name": "confirmationCode",
          "type": "string",
          "indexed": false,
          "internalType": "string"
        }
      ],
      "anonymous": false
    },
    {
      "type": "event",
      "name": "AttendeeRegistered",
      "inputs": [
        {
          "name": "eventId",
          "type": "uint256",
          "indexed": true,
          "internalType": "uint256"
        },
        {
          "name": "attendee",
          "type": "address",
          "indexed": true,
          "internalType": "address"
        },
        {
          "name": "confirmationCode",
          "type": "string",
          "indexed": false,
          "internalType": "string"
        },
        {
          "name": "fee",
          "type": "uint256",
          "indexed": false,
          "internalType": "uint256"
        }
      ],
      "anonymous": false
    },
    {
      "type": "event",
      "name": "EventCreated",
      "inputs": [
        {
          "name": "eventId",
          "type": "uint256",
          "indexed": true,
          "internalType": "uint256"
        },
        {
          "name": "creator",
          "type": "address",
          "indexed": true,
          "internalType": "address"
        },
        {
          "name": "ipfsHash",
          "type": "string",
          "indexed": false,
          "internalType": "string"
        },
        {
          "name": "startTime",
          "type": "uint256",
          "indexed": false,
          "internalType": "uint256"
        },
        {
          "name": "endTime",
          "type": "uint256",
          "indexed": false,
          "internalType": "uint256"
        },
        {
          "name": "maxAttendees",
          "type": "uint256",
          "indexed": false,
          "internalType": "uint256"
        },
        {
          "name": "registrationFee",
          "type": "uint256",
          "indexed": false,
          "internalType": "uint256"
        },
        {
          "name": "slug",
          "type": "string",
          "indexed": false,
          "internalType": "string"
        }
      ],
      "anonymous": false
    },
    {
      "type": "event",
      "name": "EventStatusChanged",
      "inputs": [
        {
          "name": "eventId",
          "type": "uint256",
          "indexed": true,
          "internalType": "uint256"
        },
        {
          "name": "oldStatus",
          "type": "uint8",
          "indexed": false,
          "internalType": "enum EventTypes.EventStatus"
        },
        {
          "name": "newStatus",
          "type": "uint8",
          "indexed": false,
          "internalType": "enum EventTypes.EventStatus"
        }
      ],
      "anonymous": false
    },
    {
      "type": "event",
      "name": "EventUpdated",
      "inputs": [
        {
          "name": "eventId",
          "type": "uint256",
          "indexed": true,
          "internalType": "uint256"
        },
        {
          "name": "ipfsHash",
          "type": "string",
          "indexed": false,
          "internalType": "string"
        },
        {
          "name": "startTime",
          "type": "uint256",
          "indexed": false,
          "internalType": "uint256"
        },
        {
          "name": "endTime",
          "type": "uint256",
          "indexed": false,
          "internalType": "uint256"
        },
        {
          "name": "maxAttendees",
          "type": "uint256",
          "indexed": false,
          "internalType": "uint256"
        }
      ],
      "anonymous": false
    },
    {
      "type": "event",
      "name": "Initialized",
      "inputs": [
        {
          "name": "version",
          "type": "uint64",
          "indexed": false,
          "internalType": "uint64"
        }
      ],
      "anonymous": false
    },
    {
      "type": "event",
      "name": "ModuleUpdated",
      "inputs": [
        {
          "name": "moduleType",
          "type": "string",
          "indexed": false,
          "internalType": "string"
        },
        {
          "name": "oldModule",
          "type": "address",
          "indexed": false,
          "internalType": "address"
        },
        {
          "name": "newModule",
          "type": "address",
          "indexed": false,
          "internalType": "address"
        }
      ],
      "anonymous": false
    },
    {
      "type": "event",
      "name": "OwnershipTransferred",
      "inputs": [
        {
          "name": "previousOwner",
          "type": "address",
          "indexed": true,
          "internalType": "address"
        },
        {
          "name": "newOwner",
          "type": "address",
          "indexed": true,
          "internalType": "address"
        }
      ],
      "anonymous": false
    },
    {
      "type": "event",
      "name": "Paused",
      "inputs": [
        {
          "name": "account",
          "type": "address",
          "indexed": false,
          "internalType": "address"
        }
      ],
      "anonymous": false
    },
    {
      "type": "event",
      "name": "TransferBatch",
      "inputs": [
        {
          "name": "operator",
          "type": "address",
          "indexed": true,
          "internalType": "address"
        },
        {
          "name": "from",
          "type": "address",
          "indexed": true,
          "internalType": "address"
        },
        {
          "name": "to",
          "type": "address",
          "indexed": true,
          "internalType": "address"
        },
        {
          "name": "ids",
          "type": "uint256[]",
          "indexed": false,
          "internalType": "uint256[]"
        },
        {
          "name": "values",
          "type": "uint256[]",
          "indexed": false,
          "internalType": "uint256[]"
        }
      ],
      "anonymous": false
    },
    {
      "type": "event",
      "name": "TransferSingle",
      "inputs": [
        {
          "name": "operator",
          "type": "address",
          "indexed": true,
          "internalType": "address"
        },
        {
          "name": "from",
          "type": "address",
          "indexed": true,
          "internalType": "address"
        },
        {
          "name": "to",
          "type": "address",
          "indexed": true,
          "internalType": "address"
        },
        {
          "name": "id",
          "type": "uint256",
          "indexed": false,
          "internalType": "uint256"
        },
        {
          "name": "value",
          "type": "uint256",
          "indexed": false,
          "internalType": "uint256"
        }
      ],
      "anonymous": false
    },
    {
      "type": "event",
      "name": "URI",
      "inputs": [
        {
          "name": "value",
          "type": "string",
          "indexed": false,
          "internalType": "string"
        },
        {
          "name": "id",
          "type": "uint256",
          "indexed": true,
          "internalType": "uint256"
        }
      ],
      "anonymous": false
    },
    {
      "type": "event",
      "name": "Unpaused",
      "inputs": [
        {
          "name": "account",
          "type": "address",
          "indexed": false,
          "internalType": "address"
        }
      ],
      "anonymous": false
    },
    {
      "type": "error",
      "name": "ERC1155InsufficientBalance",
      "inputs": [
        {
          "name": "sender",
          "type": "address",
          "internalType": "address"
        },
        {
          "name": "balance",
          "type": "uint256",
          "internalType": "uint256"
        },
        {
          "name": "needed",
          "type": "uint256",
          "internalType": "uint256"
        },
        {
          "name": "tokenId",
          "type": "uint256",
          "internalType": "uint256"
        }
      ]
    },
    {
      "type": "error",
      "name": "ERC1155InvalidApprover",
      "inputs": [
        {
          "name": "approver",
          "type": "address",
          "internalType": "address"
        }
      ]
    },
    {
      "type": "error",
      "name": "ERC1155InvalidArrayLength",
      "inputs": [
        {
          "name": "idsLength",
          "type": "uint256",
          "internalType": "uint256"
        },
        {
          "name": "valuesLength",
          "type": "uint256",
          "internalType": "uint256"
        }
      ]
    },
    {
      "type": "error",
      "name": "ERC1155InvalidOperator",
      "inputs": [
        {
          "name": "operator",
          "type": "address",
          "internalType": "address"
        }
      ]
    },
    {
      "type": "error",
      "name": "ERC1155InvalidReceiver",
      "inputs": [
        {
          "name": "receiver",
          "type": "address",
          "internalType": "address"
        }
      ]
    },
    {
      "type": "error",
      "name": "ERC1155InvalidSender",
      "inputs": [
        {
          "name": "sender",
          "type": "address",
          "internalType": "address"
        }
      ]
    },
    {
      "type": "error",
      "name": "ERC1155MissingApprovalForAll",
      "inputs": [
        {
          "name": "operator",
          "type": "address",
          "internalType": "address"
        },
        {
          "name": "owner",
          "type": "address",
          "internalType": "address"
        }
      ]
    },
    {
      "type": "error",
      "name": "EnforcedPause",
      "inputs": []
    },
    {
      "type": "error",
      "name": "ExpectedPause",
      "inputs": []
    },
    {
      "type": "error",
      "name": "InvalidInitialization",
      "inputs": []
    },
    {
      "type": "error",
      "name": "NotInitializing",
      "inputs": []
    },
    {
      "type": "error",
      "name": "OwnableInvalidOwner",
      "inputs": [
        {
          "name": "owner",
          "type": "address",
          "internalType": "address"
        }
      ]
    },
    {
      "type": "error",
      "name": "OwnableUnauthorizedAccount",
      "inputs": [
        {
          "name": "account",
          "type": "address",
          "internalType": "address"
        }
      ]
    },
    {
      "type": "error",
      "name": "ReentrancyGuardReentrantCall",
      "inputs": []
    }
  ],
  "bytecode": {
    "object": "0x6080806040523461001657613d2b908161001b8239f35b5f80fdfe60806040526004361015610011575f80fd5b5f3560e01c8062fdd58e146102ce57806301ffc9a7146102c9578063071e9ed4146102c45780630b791430146102bf5780630e89341c146102ba57806322334525146102b55780632ac789ef146102b05780632eb2c2d6146102ab578063330a347b146102a657806333ef5dcd146102a15780633dcec13e1461029c5780633f4ba83a146102975780633f69babd1461029257806343c673491461028d5780634d5e67651461028d5780634e1273f41461028857806354fd4d50146102835780635c975abb1461027e57806362b38b721461027957806364e53700146102745780636d1884e01461026f578063715018a61461026a57806379b4ea9b146102655780637cea357c146102605780638456cb591461025b5780638da5cb5b146102565780639874503c14610251578063a22cb4651461024c578063a5ca450514610247578063ad395c1414610242578063c10c35461461023d578063c32c2e0b14610238578063c41af52314610233578063cfd9f3da1461022e578063d1beacab14610229578063d9e48f5c14610224578063df8024f51461021f578063e985e9c51461021a578063eacbc74714610215578063f242432a14610210578063f2fde38b1461020b578063f62d188814610206578063f82678f2146102015763fb690d59146101fc575f80fd5b612421565b6123ac565b612270565b61221f565b612110565b611ff9565b611fbc565b611eac565b611e8f565b611e67565b611da3565b611d79565b611d2d565b611c39565b611bbc565b611b28565b611a89565b6119f5565b6119b2565b61194d565b6118f6565b611786565b61171f565b6115b0565b61134a565b611320565b6112f2565b61129b565b6111e1565b61116e565b61106f565b610ffa565b610f9f565b610f46565b610e5a565b610d40565b610b26565b6108ce565b6107ed565b610745565b610464565b610391565b610317565b600435906001600160a01b03821682036102e957565b5f80fd5b602435906001600160a01b03821682036102e957565b35906001600160a01b03821682036102e957565b346102e95760403660031901126102e95760206103766103356102d3565b6024355f527f88be536d5240c274a3b1d3a1be54482fd9caa294f08c62a7cde569f49a3c4500835260405f209060018060a01b03165f5260205260405f2090565b54604051908152f35b6001600160e01b03198116036102e957565b346102e95760203660031901126102e95760206004356103b08161037f565b63ffffffff60e01b16636cdb3d1360e11b81149081156103ee575b81156103dd575b506040519015158152f35b6301ffc9a760e01b1490505f6103d2565b6303a24d0760e21b811491506103cb565b5f527f88be536d5240c274a3b1d3a1be54482fd9caa294f08c62a7cde569f49a3c450060205260405f2090565b6001600160a01b03165f9081527f88be536d5240c274a3b1d3a1be54482fd9caa294f08c62a7cde569f49a3c45016020526040902090565b346102e95760403660031901126102e95760c06104a56104826102ed565b6004355f52600360205260405f209060018060a01b03165f5260205260405f2090565b60018060a01b038154169060018101549060ff6002820154600460038401549301549360405195865260208601528181161515604086015260081c1615156060840152608083015260a0820152f35b90600182811c92168015610522575b602083101461050e57565b634e487b7160e01b5f52602260045260245ffd5b91607f1691610503565b634e487b7160e01b5f52604160045260245ffd5b6001600160401b03811161055357604052565b61052c565b6101a081019081106001600160401b0382111761055357604052565b60c081019081106001600160401b0382111761055357604052565b90601f801991011681019081106001600160401b0382111761055357604052565b9060405191825f82546105c2816104f4565b908184526020946001916001811690815f1461063057506001146105f2575b5050506105f09250038361058f565b565b5f90815285812095935091905b8183106106185750506105f093508201015f80806105e1565b855488840185015294850194879450918301916105ff565b925050506105f094925060ff191682840152151560051b8201015f80806105e1565b5f5b8381106106635750505f910152565b8181015183820152602001610654565b9060209161068c81518092818552858086019101610652565b601f01601f1916010190565b600511156106a257565b634e487b7160e01b5f52602160045260245ffd5b9060058210156106a25752565b9994610700949e9d9c999461073b99946101809d9994610730999460408f6101a0938493825260018060a01b0316602082015201528d0190610673565b9e60608c015260808b015260a08a015260c0890152151560e0880152151561010087015261012086019015159052565b6101408401906106b6565b6101608201520152565b346102e95760203660031901126102e9576004355f525f60205260405f208054906107d560018060a01b0360018301541691610783600282016105b0565b9060038101549360048201549560058301549360068401549060078501549160096008870154960154966040519a8b9a8b9460ff8760181c169860ff8860101c169860ff808a60081c169916976106c3565b0390f35b9060206107ea928181520190610673565b90565b346102e9576020806003193601126102e9576040515f915f80516020613cd6833981519152805461081d816104f4565b808552916001918083169081156108ac5750600114610853575b6107d5856108478189038261058f565b604051918291826107d9565b5f9081529294507ff429cb5e2ec84cbb765e76b31964a56ccde03e7a6122d6cc4afb19edc55edeed5b82841061089957505050816107d59361084792820101935f610837565b805485850187015292850192810161087c565b60ff191686860152505050151560051b8201019150610847816107d55f610837565b346102e95760203660031901126102e957600435805f5260026020526108fa60ff60405f2054166124b8565b610902613104565b6109376001610928600761091d855f525f60205260405f2090565b015460181c60ff1690565b61093181610698565b146124fb565b610957600361094d835f525f60205260405f2090565b0154421015612547565b61097b600161096d835f525f60205260405f2090565b01546001600160a01b031690565b6001600160a01b031633148015610a25575b61099690612593565b5f80516020613c768339815191526109ba600761091d845f525f60205260405f2090565b6109e460076109d0855f525f60205260405f2090565b01805463ff00000019166302000000179055565b4260096109f8855f525f60205260405f2090565b0155610a10600761091d855f525f60205260405f2090565b90610a2060405192839283612602565b0390a2005b5061099633610a74610a68610a5b33610a46875f52600360205260405f2090565b9060018060a01b03165f5260205260405f2090565b546001600160a01b031690565b6001600160a01b031690565b14905061098d565b604051906105f082610558565b604051906105f082610574565b6001600160401b03811161055357601f01601f191660200190565b81601f820112156102e957803590610ac882610a96565b92610ad6604051948561058f565b828452602083830101116102e957815f926020809301838601378301015290565b9060406003198301126102e95760043591602435906001600160401b0382116102e9576107ea91600401610ab1565b346102e957610b3436610af7565b90805f526002602052610b4d60ff60405f2054166124b8565b610b74610b62825f52600360205260405f2090565b335f9081526020919091526040902090565b6001610b8c600761091d855f525f60205260405f2090565b610b9581610698565b14610c76575b8054610bb5906001600160a01b039081165b16151561262b565b610c2960028201610bd6610bd1610bcd835460ff1690565b1590565b61266c565b610c1a6040516020810190610bfe81610bf08a8a866126b8565b03601f19810183528261058f565b519020610c13865f52600560205260405f2090565b54146126d5565b805461ffff1916610101179055565b600442910155610c41610c3a612721565b823361312e565b7f03d8655c3b2b0e4234c63ff9346faad6dce9c5ec2262e331355e21b381c7912160405180610c713395826107d9565b0390a3005b303b156102e957604051632233452560e01b8152600481018390525f8160248183305af18015610cc457610cab575b50610b9b565b80610cb8610cbe92610540565b80610ff0565b5f610ca5565b612620565b6001600160401b0381116105535760051b60200190565b9080601f830112156102e9576020908235610cfa81610cc9565b93610d08604051958661058f565b81855260208086019260051b8201019283116102e957602001905b828210610d31575050505090565b81358152908301908301610d23565b346102e95760a03660031901126102e957610d596102d3565b610d616102ed565b90604435916001600160401b03908184116102e957610d8560049436908601610ce0565b906064358381116102e957610d9d9036908701610ce0565b926084359081116102e957610db59036908701610ab1565b936001600160a01b03808216903382141580610e42575b610e1557831615610dfe5715610de857610de695506136fe565b005b604051626a0d4560e21b81525f81880152602490fd5b604051632bfa23e760e11b81525f81890152602490fd5b6040805163711bec9160e11b815233818b019081526001600160a01b038616602082015290918291010390fd5b5060ff610e5233610a468661042c565b541615610dcc565b346102e95760203660031901126102e957600435805f526002602052610e8660ff60405f2054166124b8565b805f525f602052610ea760018060a01b03600160405f200154163314612743565b610eaf613104565b805f525f602052610ed8600260ff600760405f20015460181c16610ed281610698565b14612783565b610ef86004610eee835f525f60205260405f2090565b01544210156127c4565b5f80516020613c76833981519152610f1c600761091d845f525f60205260405f2090565b6109e46007610f32855f525f60205260405f2090565b01805463ff00000019166303000000179055565b346102e957610f5436610af7565b815f525f602052610f7560018060a01b03600160405f200154163314612743565b604051610f8b81610bf0602082019486866126b8565b519020905f52600560205260405f20555f80f35b346102e95760203660031901126102e957600435805f526002602052610fcb60ff60405f2054166124b8565b5f525f602052602060ff600760405f20015460181c16610fee60405180926106b6565bf35b5f9103126102e957565b346102e9575f3660031901126102e957611012613299565b5f80516020613c96833981519152805460ff81161561105d5760ff191690557f5db9ee0a495bf2e6ff9c91a7834c1ba4fdd244a5e8aa4e537bd38aeae4b073aa6020604051338152a1005b604051638dfc202b60e01b8152600490fd5b346102e95760203660031901126102e957600435805f52600260205261109b60ff60405f2054166124b8565b805f525f6020526110bc60018060a01b03600160405f200154163314612743565b6110c4613104565b805f525f60205260ff600760405f20015460181c166110e281610698565b158015611141575b6110f390612810565b5f80516020613c76833981519152611117600761091d845f525f60205260405f2090565b6109e4600761112d855f525f60205260405f2090565b01805463ff00000019166304000000179055565b506110f3600161115d600761091d855f525f60205260405f2090565b61116681610698565b1490506110ea565b346102e95760203660031901126102e9576004355f526002602052602060ff60405f2054166040519015158152f35b9081518082526020808093019301915f5b8281106111bc575050505090565b8351855293810193928101926001016111ae565b9060206107ea92818152019061119d565b346102e95760403660031901126102e9576004356001600160401b038082116102e957366023830112156102e957816004013561121d81610cc9565b9261122b604051948561058f565b8184526020916024602086019160051b830101913683116102e957602401905b82821061128457856024358681116102e9576107d591611272611278923690600401610ce0565b90612884565b604051918291826111d0565b83809161129084610303565b81520191019061124b565b346102e9575f3660031901126102e95760405160408101908082106001600160401b03831117610553576107d59160405260058152640312e302e360dc1b6020820152604051918291602083526020830190610673565b346102e9575f3660031901126102e957602060ff5f80516020613c9683398151915254166040519015158152f35b346102e95760203660031901126102e9576004355f526005602052602060405f2054604051908152f35b346102e95760a03660031901126102e9576004356024356001600160401b0381116102e95761139e7fbdf668e131c2a440ee44bd4f61998afc235a28e05d1ee0cb0da2f5ba475aedda913690600401610ab1565b60443590610a2060643560843590865f5260026020526113c460ff60405f2054166124b8565b865f525f6020526113e560018060a01b03600160405f200154163314612743565b6113ed613104565b6113f984511515612928565b611404428611612974565b61140f8582116129bf565b61141a821515612a15565b865f525f602052611448611439600760405f200160ff905460181c1690565b61144281610698565b15612a6d565b61146882600661145f8a5f525f60205260405f2090565b01541115612ab9565b61148584600261147f8a5f525f60205260405f2090565b01612be9565b846003611499895f525f60205260405f2090565b01558060046114af895f525f60205260405f2090565b01558160056114c5895f525f60205260405f2090565b01554260096114db895f525f60205260405f2090565b015560405194859485612cb8565b60208082528251828201528201516001600160a01b0316604082015260408201516115226101a0918260608501526101c0840190610673565b9260608101516080840152608081015160a084015260a081015160c084015260c081015160e084015260e0810151611561610100918286019015159052565b810151611575610120918286019015159052565b810151611589610140918286019015159052565b81015161159c61016091828601906106b6565b810151906101809182850152015191015290565b346102e95760203660031901126102e9576107d5600435604080516115d481610558565b5f81525f60208201526060828201525f60608201525f60808201525f60a08201525f60c08201525f60e082015260096101005f81840152610120945f868501526117066101405f81870152610160925f848801525f61018080980152805f52600260205261164760ff895f2054166124b8565b5f525f60205260ff875f20946116fa61165e610a7c565b9a87548c5261168a8c602061167c60018c015460018060a01b031690565b6001600160a01b0316910152565b611696600289016105b0565b8b8d0152600388015460608d0152600488015460808d0152600588015460a08d0152600688015460c08d01526116eb8c60078a0154946116dd87871660e084019015159052565b600886901c87161515910152565b601083901c84161515908c0152565b60181c16908801612ce0565b60088201549086015201549083015251918291826114e9565b346102e9575f3660031901126102e957611737613299565b5f80516020613c5683398151915280546001600160a01b031981169091555f906001600160a01b03167f8be0079c531659141344cd1fd0a4f28419497f9722a3daafe3b4186f6b6457e08280a3005b346102e95760403660031901126102e9576024356001600160401b0381116102e9576117b961189a913690600401610ab1565b6004355f525f60205260405f20906118886117d2610a7c565b8354815260018401546001600160a01b03166020820152926117f6600282016105b0565b60408501526003810154606085015260048101546080850152600581015460a0850152600681015460c0850152600960078201549161186f60ff60e0880194611843828216879015159052565b600881901c821615156101008a0152601081901c821615156101208a015260181c166101408801612ce0565b6008810154610160870152015461018085015251151590565b806118be575b6118a5575b5051613325565b6040515f8152602090f35b806020806118b893518301019101612cec565b50611893565b508051151561188e565b634e487b7160e01b5f52603260045260245ffd5b80548210156118f1575f5260205f2001905f90565b6118c8565b346102e95760403660031901126102e95761190f6102d3565b6001600160a01b03165f908152600160205260409020805460243591908210156102e95760209161193f916118dc565b90546040519160031b1c8152f35b346102e9575f3660031901126102e957611965613299565b61196d613104565b5f80516020613c96833981519152600160ff198254161790557f62e78cea01bee320cd4e420270b5ea74000d11b0c9f74754ebdbfc544b05a2586020604051338152a1005b346102e9575f3660031901126102e9575f80516020613c56833981519152546040516001600160a01b039091168152602090f35b6084359081151582036102e957565b346102e95760e03660031901126102e9576001600160401b036004358181116102e957611a26903690600401610ab1565b90611a2f6119e6565b9160a4358281116102e957611a48903690600401610ab1565b60c4359283116102e9576107d593611a67611a79943690600401610ab1565b92606435906044359060243590612d02565b6040519081529081906020820190565b346102e95760403660031901126102e957611aa26102d3565b60243590811515908183036102e9576001600160a01b038116928315611b1157611ad2611ae392610a463361042c565b9060ff801983541691151516179055565b6040519081527f17307eab39ab6107e8899845ad3d59bd9653f200f220920489ca2b5937696c3160203392a3005b60405162ced3e160e81b81525f6004820152602490fd5b346102e95760403660031901126102e957600435611b44613299565b805f526002602052611b5c60ff60405f2054166124b8565b5f525f60205260405f2060243560068201556009429101555f80f35b60209060206040818301928281528551809452019301915f5b828110611b9f575050505090565b83516001600160a01b031685529381019392810192600101611b91565b346102e9576020806003193601126102e9576004355f52600460205260405f20906040519081602084549182815201935f5260205f20915f905b828210611c19576107d585611c0d8189038261058f565b60405191829182611b78565b83546001600160a01b031686529485019460019384019390910190611bf6565b346102e95760203660031901126102e957611c526102d3565b611c5a613299565b6001600160a01b03908082168015611ce857600780546001600160a01b039283166001600160a01b031982161790915560408051606080825260089082015267457363726f77563160c01b608082015294909116821660208501529116908201527fe5340bb646fa554a3082f7baa2b415eb1874ff7d4c3f118686180386e71f738e908060a081015b0390a1005b60405162461bcd60e51b815260206004820152601d60248201527f496e76616c696420657363726f77206d6f64756c6520616464726573730000006044820152606490fd5b346102e95760203660031901126102e957600435805f526002602052611d5960ff60405f2054166124b8565b5f525f602052602060ff600760405f20015460081c166040519015158152f35b346102e95760203660031901126102e9576004355f526004602052602060405f2054604051908152f35b346102e95760203660031901126102e957600435805f526002602052611dcf60ff60405f2054166124b8565b805f525f602052611df060018060a01b03600160405f200154163314612743565b611df8613104565b805f525f602052611e1960ff600760405f20015460181c1661144281610698565b5f80516020613c76833981519152611e3d600761091d845f525f60205260405f2090565b6109e46007611e53855f525f60205260405f2090565b01805463ff00000019166301000000179055565b346102e9575f3660031901126102e9576007546040516001600160a01b039091168152602090f35b346102e9575f3660031901126102e9576020600654604051908152f35b346102e9576040806003193601126102e9576107d590611f19611ecd6102ed565b5f60a08451611edb81610574565b828152826020820152828682015282606082015282608082015201526004355f526003602052825f209060018060a01b03165f5260205260405f2090565b906004815192611f2884610574565b80546001600160a01b0316845260018101546020850152600281015460ff81811615158587015260089190911c161515606085015260038101546080850152015460a0830152519182918291909160a08060c0830194600180831b03815116845260208101516020850152604081015115156040850152606081015115156060850152608081015160808501520151910152565b346102e95760403660031901126102e957602060ff611fed611fdc6102d3565b610a46611fe76102ed565b9161042c565b54166040519015158152f35b346102e95760403660031901126102e9576004356120156102ed565b815f52600260205261202d60ff60405f2054166124b8565b815f525f60205260018060a01b039061205082600160405f200154163314612743565b61206681610a46855f52600360205260405f2090565b805461207c9084906001600160a01b0316610bad565b61209a60028201610c1a815460ff8116159081612101575b50612fc3565b6004429101556120d96040516120d281610bf042888760208501604091949392606082019560018060a01b0316825260208201520152565b848361312e565b16907f59f3ac5fd1b18f36e085792fde6279b8ad91bbb308fd1f73829ba63bf6fc47dc5f80a3005b60ff915060081c16155f612094565b346102e95760a03660031901126102e9576121296102d3565b6121316102ed565b6084356001600160401b0381116102e957612150903690600401610ab1565b906001600160a01b03838116903382141580612207575b6121e0578216156121c857156121b157610de6926121a96064356044359160405192600184526020840152604083019160018352606084015260808301604052565b9290916136fe565b604051626a0d4560e21b81525f6004820152602490fd5b604051632bfa23e760e11b81525f6004820152602490fd5b60405163711bec9160e11b81523360048201526001600160a01b0386166024820152604490fd5b5060ff61221733610a468861042c565b541615612167565b346102e95760203660031901126102e9576122386102d3565b612240613299565b6001600160a01b0381161561225857610de6906132d1565b604051631e4fbdf760e01b81525f6004820152602490fd5b346102e95760203660031901126102e9576001600160401b036004358181116102e9576122a1903690600401610ab1565b5f80516020613cb6833981519152549160ff8360401c16159216801590816123a4575b600114908161239a575b159081612391575b5061237f575f80516020613cb6833981519152805467ffffffffffffffff19166001179055612309908261235b5761300f565b61230f57005b5f80516020613cb6833981519152805460ff60401b19169055604051600181527fc7f505b2f371ae2175ee4913f4499e1f2633a7b5936321eed1cdaeb6115181d2908060208101611ce3565b5f80516020613cb6833981519152805460ff60401b1916600160401b17905561300f565b60405163f92ee8a960e01b8152600490fd5b9050155f6122d6565b303b1591506122ce565b8391506122c4565b346102e9576020806003193601126102e9576001600160a01b036123ce6102d3565b165f5260018060205260405f20916040519182602085549182815201945f5260205f20925f905b82821061240c576107d586611278818a038261058f565b845487529586019593830193908301906123f5565b346102e95760403660031901126102e9576024356004355f52600460205260405f2080548210156102e957602091612458916118dc565b905460405160039290921b1c6001600160a01b03168152f35b6124b4915f527f88be536d5240c274a3b1d3a1be54482fd9caa294f08c62a7cde569f49a3c450060205260405f209060018060a01b03165f5260205260405f2090565b5490565b156124bf57565b60405162461bcd60e51b8152602060048201526014602482015273115d995b9d08191bd95cc81b9bdd08195e1a5cdd60621b6044820152606490fd5b1561250257565b60405162461bcd60e51b815260206004820152601760248201527f4576656e74206d757374206265207075626c69736865640000000000000000006044820152606490fd5b1561254e57565b60405162461bcd60e51b815260206004820152601960248201527f4576656e7420686173206e6f74207374617274656420796574000000000000006044820152606490fd5b1561259a57565b60405162461bcd60e51b815260206004820152601d60248201527f4e6f74206576656e742063726561746f72206f7220617474656e6465650000006044820152606490fd5b9060058110156106a25763ff00000082549160181b169063ff0000001916179055565b9160206105f09294936126198160408101976106b6565b01906106b6565b6040513d5f823e3d90fd5b1561263257565b60405162461bcd60e51b8152602060048201526012602482015271105d1d195b991959481b9bdd08199bdd5b9960721b6044820152606490fd5b1561267357565b60405162461bcd60e51b815260206004820152601c60248201527f417474656e64616e636520616c726561647920636f6e6669726d6564000000006044820152606490fd5b6020929181526126d082518093858085019101610652565b010190565b156126dc57565b60405162461bcd60e51b815260206004820152601960248201527f496e76616c696420636f6e6669726d6174696f6e20636f6465000000000000006044820152606490fd5b60405190602082018281106001600160401b03821117610553576040525f8252565b1561274a57565b60405162461bcd60e51b81526020600482015260116024820152702737ba1032bb32b73a1031b932b0ba37b960791b6044820152606490fd5b1561278a57565b60405162461bcd60e51b81526020600482015260126024820152714576656e74206d757374206265206c69766560701b6044820152606490fd5b156127cb57565b60405162461bcd60e51b815260206004820152601760248201527f4576656e7420686173206e6f7420656e646564207965740000000000000000006044820152606490fd5b1561281757565b60405162461bcd60e51b815260206004820152602b60248201527f4576656e742063616e6e6f742062652063616e63656c6c656420696e2063757260448201526a72656e742073746174757360a81b6064820152608490fd5b80518210156118f15760209160051b010190565b919091805183518082036129065750508051906128b96128a383610cc9565b926128b1604051948561058f565b808452610cc9565b60209190601f190136848401375f5b81518110156128fe57806128ed60019260051b85808287010151918a01015190612471565b6128f78287612870565b52016128c8565b509193505050565b604051635b05999160e01b815260048101919091526024810191909152604490fd5b1561292f57565b60405162461bcd60e51b815260206004820152601960248201527f4950465320686173682063616e6e6f7420626520656d707479000000000000006044820152606490fd5b1561297b57565b606460405162461bcd60e51b815260206004820152602060248201527f53746172742074696d65206d75737420626520696e20746865206675747572656044820152fd5b156129c657565b60405162461bcd60e51b815260206004820152602160248201527f456e642074696d65206d7573742062652061667465722073746172742074696d6044820152606560f81b6064820152608490fd5b15612a1c57565b60405162461bcd60e51b8152602060048201526024808201527f4d617820617474656e64656573206d75737420626520677265617465722074686044820152630616e20360e41b6064820152608490fd5b15612a7457565b60405162461bcd60e51b815260206004820152601d60248201527f4576656e74206d75737420626520696e206472616674207374617475730000006044820152606490fd5b15612ac057565b60405162461bcd60e51b815260206004820152603360248201527f43616e6e6f7420726564756365206d617820617474656e646565732062656c6f604482015272772063757272656e7420617474656e6465657360681b6064820152608490fd5b601f8111612b2d575050565b5f80516020613cd68339815191525f527ff429cb5e2ec84cbb765e76b31964a56ccde03e7a6122d6cc4afb19edc55edeed906020601f840160051c83019310612b90575b601f0160051c01905b818110612b85575050565b5f8155600101612b7a565b9091508190612b71565b601f8211612ba757505050565b5f5260205f20906020601f840160051c83019310612bdf575b601f0160051c01905b818110612bd4575050565b5f8155600101612bc9565b9091508190612bc0565b91909182516001600160401b03811161055357612c1081612c0a84546104f4565b84612b9a565b602080601f8311600114612c5157508190612c429394955f92612c46575b50508160011b915f199060031b1c19161790565b9055565b015190505f80612c2e565b90601f19831695612c65855f5260205f2090565b925f905b888210612ca057505083600195969710612c88575b505050811b019055565b01515f1960f88460031b161c191690555f8080612c7e565b80600185968294968601518155019501930190612c69565b9092612cd1606093969594608084526080840190610673565b95602083015260408201520152565b60058210156106a25752565b91908260409103126102e9576020825192015190565b94612df1967f5bf876148e0a4050c05447da101bb9473db73834c44f235e1d69d7d0df0e218e94612e1a612e4193612d38613104565b612d448a511515612928565b612d4f428711612974565b612d5a8688116129bf565b612d65831515612a15565b612d73600160065401600655565b6006549a8b99612db7612d84610a7c565b8c8152336020820152918d60408401528960608401528a60808401528660a08401525f60c084015260e083019015159052565b60016101008201525f6101208201525f6101408201524261016082015242610180820152612dec8b5f525f60205260405f2090565b612e47565b612e13612e068a5f52600260205260405f2090565b805460ff19166001179055565b883361312e565b335f908152600160205260409020612e33908890612f52565b604051948594339986612f86565b0390a390565b8151815560208201516001820180546001600160a01b0319166001600160a01b039092169190911790559060099061018090612e8a604082015160028601612be9565b606081015160038501556080810151600485015560a0810151600585015560c08101516006850155612f4060078501612edb612ec960e0850151151590565b829060ff801983541691151516179055565b612f02612eec610100850151151590565b825461ff00191690151560081b61ff0016178255565b612f2b612f13610120850151151590565b825462ff0000191690151560101b62ff000016178255565b61014083015190612f3b82610698565b6125df565b61016081015160088501550151910155565b8054600160401b81101561055357612f6f916001820181556118dc565b819291549060031b91821b915f19901b1916179055565b91939092612fa06107ea969460c0855260c0850190610673565b946020840152604083015260608201525f608082015260a0818403910152610673565b15612fca57565b60405162461bcd60e51b815260206004820152601960248201527f417474656e64616e636520616c7265616479206d61726b6564000000000000006044820152606490fd5b90613019336132d1565b6130216138d4565b6130296138d4565b81516001600160401b038111610553575f80516020613cd68339815191529061305b8161305684546104f4565b612b21565b602080601f831160011461308c57508190612c429394955f92612c465750508160011b915f199060031b1c19161790565b90601f198316956130ca5f80516020613cd68339815191525f527ff429cb5e2ec84cbb765e76b31964a56ccde03e7a6122d6cc4afb19edc55edeed90565b925f905b8882106130ec57505083600195969710612c8857505050811b019055565b806001859682949686015181550195019301906130ce565b60ff5f80516020613c96833981519152541661311c57565b60405163d93c066560e01b8152600490fd5b9091906001600160a01b03811680156121c85760405190600191828152602092602082019687526040820192818452606094606084019583875260808501806040528551875180820361327d57505050908391825f905b61323e575b5050508351145f14613203575f88517fc3d58168c5ae7397731d063d5bbf3d657854427343f4c083240f7aacaa2d0f626131da885160405191829133958360209093929193604081019481520152565b0390a45b8151036131f55750506105f0935190519133613be9565b9150916105f09450336139f4565b5f6040517f4a39dc06d4c0dbc64b70af90fd698a233a518aa5d07e595d983b8c0526c8f7fb33918061323689898361390f565b0390a46131de565b86518110156132785780849160051b880161326f6132678d610a468789860151950151946103ff565b918254613902565b90550183613185565b61318a565b635b05999160e01b8352608488019190915260a4870152604490fd5b5f80516020613c56833981519152546001600160a01b031633036132b957565b60405163118cdaa760e01b8152336004820152602490fd5b5f80516020613c5683398151915280546001600160a01b039283166001600160a01b0319821681179092559091167f8be0079c531659141344cd1fd0a4f28419497f9722a3daafe3b4186f6b6457e05f80a3565b7f9b779b17422d0df92223018b32b4d1fa46e071723d6817e2486d003becc55f0060028154146134ae5760029055805f52602060028152604061336d60ff825f2054166124b8565b825f525f825260ff6007825f20015460081c161561347557825f525f8252805f20600560068201549101541115613442575f8381526003835281812033825260205260409020546001600160a01b03166133f55750506133cc906135f6565b6105f060017f9b779b17422d0df92223018b32b4d1fa46e071723d6817e2486d003becc55f0055565b60849250519062461bcd60e51b82526004820152602160248201527f416c7265616479207265676973746572656420666f722074686973206576656e6044820152601d60fa1b6064820152fd5b60649250519062461bcd60e51b82526004820152600d60248201526c115d995b9d081a5cc8199d5b1b609a1b6044820152fd5b60649250519062461bcd60e51b8252600482015260136024820152724576656e74206973206e6f742061637469766560681b6044820152fd5b604051633ee5aeb560e01b8152600490fd5b156134c757565b60405162461bcd60e51b815260206004820152602260248201527f4576656e74206973206e6f74206f70656e20666f72207265676973747261746960448201526137b760f11b6064820152608490fd5b815181546001600160a01b0319166001600160a01b03919091161781559060049060a090602081015160018501556135836002850161356860408401511515829060ff801983541691151516179055565b6060830151815461ff00191690151560081b61ff0016179055565b608081015160038501550151910155565b634e487b7160e01b5f52601160045260245ffd5b5f1981146135b65760010190565b613594565b8054600160401b811015610553576135d8916001820181556118dc565b60018060a09493941b038084549260031b9316831b921b1916179055565b6006613609825f525f60205260405f2090565b60078101546136339060181c60ff1661362181610698565b600181149081156136ea575b506134c0565b61367a61363e610a89565b3381528460208201525f60408201525f60608201524260808201525f60a082015261367533610a46875f52600360205260405f2090565b613517565b0161368581546135a8565b90556136a23361369d835f52600460205260405f2090565b6135bb565b604051907f50a66f58e3c04661cc764c0692092695975f2812249497c4f65b843ee5f1b59a3392806136e58190604082525f60408301525f602060608401930152565b0390a3565b600291506136f781610698565b145f61362d565b9491909181518451908181036129065750505f5b82518110156137df57600581901b83810160209081015191870101516001600160a01b03929186908a851661376f575b6001948216613755575b50505001613712565b61376591610a46613267926103ff565b90555f858161374c565b91929390506137818a610a46846103ff565b548381106137a857918791846001969594036137a08d610a46856103ff565b559450613742565b6040516303dee4c560e01b81526001600160a01b038c16600482015260248101919091526044810184905260648101839052608490fd5b5094919392909360018551145f14613889576020858101518382015160408051928352928201526001600160a01b03838116929086169133917fc3d58168c5ae7397731d063d5bbf3d657854427343f4c083240f7aacaa2d0f6291a45b6001600160a01b038116613852575b5050505050565b84516001036138785760208061386e9601519201519233613c1e565b5f8080808061384b565b61388494919233613aed565b61386e565b6040516001600160a01b03828116919085169033907f4a39dc06d4c0dbc64b70af90fd698a233a518aa5d07e595d983b8c0526c8f7fb90806138cc888c8361390f565b0390a461383c565b60ff5f80516020613cb68339815191525460401c16156138f057565b604051631afcd79f60e31b8152600490fd5b919082018092116135b657565b90916139266107ea9360408452604084019061119d565b91602081840391015261119d565b908160209103126102e957516107ea8161037f565b926139776107ea95936139859360018060a01b031686525f602087015260a0604087015260a086019061119d565b90848203606086015261119d565b916080818403910152610673565b93906107ea9593613977916139859460018060a01b03809216885216602087015260a0604087015260a086019061119d565b3d156139ef573d906139d682610a96565b916139e4604051938461058f565b82523d5f602084013e565b606090565b9293919093843b613a06575050505050565b602091613a29604051948593849363bc197c8160e01b9889865260048601613949565b03815f6001600160a01b0388165af15f9181613abc575b50613a7f5782613a4e6139c5565b8051919082613a7857604051632bfa23e760e11b81526001600160a01b0383166004820152602490fd5b6020915001fd5b6001600160e01b03191603613a9957505f8080808061384b565b604051632bfa23e760e11b81526001600160a01b03919091166004820152602490fd5b613adf91925060203d602011613ae6575b613ad7818361058f565b810190613934565b905f613a40565b503d613acd565b939290949194853b613b02575b505050505050565b613b25602093604051958694859463bc197c8160e01b998a875260048701613993565b03815f6001600160a01b0388165af15f9181613b65575b50613b4a5782613a4e6139c5565b6001600160e01b03191603613a9957505f8080808080613afa565b613b7f91925060203d602011613ae657613ad7818361058f565b905f613b3c565b909260a0926107ea9594600180861b031683525f6020840152604083015260608201528160808201520190610673565b91926107ea95949160a094600180871b038092168552166020840152604083015260608201528160808201520190610673565b9293919093843b613bfb575050505050565b602091613a29604051948593849363f23a6e6160e01b9889865260048601613b86565b939290949194853b613c3257505050505050565b613b25602093604051958694859463f23a6e6160e01b998a875260048701613bb656fe9016d09d72d40fdae2fd8ceac6b6234c7706214fd39c1cd1e609a0528c199300641ae175777e676577f6f3505617e96ac596efa4f8e47338623727ba63e22755cd5ed15c6e187e77e9aee88184c21f4f2182ab5827cb3b7e07fbedcd63f03300f0c57e16840df040f15088dc2f81fe391c3923bec73e23a9662efc9c229c6a0088be536d5240c274a3b1d3a1be54482fd9caa294f08c62a7cde569f49a3c4502a26469706673582212208a90a1aaf29db46ac4b7c3363dbc312d82c48bbb7cc6955da64634fe1b1b7a4864736f6c63430008180033",
    "linkReferences": {}
  },
  "methodIdentifiers": {
    "attendees(uint256,address)": "071e9ed4",
    "balanceOf(address,uint256)": "00fdd58e",
    "balanceOfBatch(address[],uint256[])": "4e1273f4",
    "cancelEvent(uint256)": "3f69babd",
    "confirmAttendance(uint256,string)": "2ac789ef",
    "confirmationCode(uint256)": "62b38b72",
    "createEvent(string,uint256,uint256,uint256,bool,bytes,string)": "9874503c",
    "creatorEvents(address,uint256)": "7cea357c",
    "endEvent(uint256)": "330a347b",
    "escrowModule()": "d1beacab",
    "eventAttendees(uint256,uint256)": "fb690d59",
    "eventExistsCheck(uint256)": "43c67349",
    "eventExistsMap(uint256)": "4d5e6765",
    "events(uint256)": "0b791430",
    "getAttendee(uint256,address)": "df8024f5",
    "getAttendeeCount(uint256)": "c41af523",
    "getCreatorEvents(address)": "f82678f2",
    "getEvent(uint256)": "6d1884e0",
    "getEventAttendees(uint256)": "ad395c14",
    "getEventCount()": "d9e48f5c",
    "getEventStatus(uint256)": "3dcec13e",
    "initialize(string)": "f62d1888",
    "isApprovedForAll(address,address)": "e985e9c5",
    "isEventActive(uint256)": "c32c2e0b",
    "markAttended(uint256,address)": "eacbc747",
    "owner()": "8da5cb5b",
    "pause()": "8456cb59",
    "paused()": "5c975abb",
    "publishEvent(uint256)": "cfd9f3da",
    "registerForEvent(uint256,bytes)": "79b4ea9b",
    "renounceOwnership()": "715018a6",
    "safeBatchTransferFrom(address,address,uint256[],uint256[],bytes)": "2eb2c2d6",
    "safeTransferFrom(address,address,uint256,uint256,bytes)": "f242432a",
    "setApprovalForAll(address,bool)": "a22cb465",
    "setConfirmationCode(uint256,string)": "33ef5dcd",
    "setEscrow(address)": "c10c3546",
    "startLiveEvent(uint256)": "22334525",
    "supportsInterface(bytes4)": "01ffc9a7",
    "transferOwnership(address)": "f2fde38b",
    "unpause()": "3f4ba83a",
    "updateAttendeesCount(uint256,uint256)": "a5ca4505",
    "updateEvent(uint256,string,uint256,uint256,uint256)": "64e53700",
    "uri(uint256)": "0e89341c",
    "version()": "54fd4d50"
  },
  "id": 46
}