{
  "abi": [
    {
      "type": "function",
      "name": "balanceOf",
      "inputs": [
        {
          "name": "account",
          "type": "address",
          "internalType": "address"
        },
        {
          "name": "id",
          "type": "uint256",
          "internalType": "uint256"
        }
      ],
      "outputs": [
        {
          "name": "",
          "type": "uint256",
          "internalType": "uint256"
        }
      ],
      "stateMutability": "view"
    },
    {
      "type": "function",
      "name": "balanceOfBatch",
      "inputs": [
        {
          "name": "accounts",
          "type": "address[]",
          "internalType": "address[]"
        },
        {
          "name": "ids",
          "type": "uint256[]",
          "internalType": "uint256[]"
        }
      ],
      "outputs": [
        {
          "name": "",
          "type": "uint256[]",
          "internalType": "uint256[]"
        }
      ],
      "stateMutability": "view"
    },
    {
      "type": "function",
      "name": "createTicket",
      "inputs": [
        {
          "name": "eventId",
          "type": "uint256",
          "internalType": "uint256"
        },
        {
          "name": "name",
          "type": "string",
          "internalType": "string"
        },
        {
          "name": "ticketType",
          "type": "string",
          "internalType": "string"
        },
        {
          "name": "price",
          "type": "uint256",
          "internalType": "uint256"
        },
        {
          "name": "currency",
          "type": "string",
          "internalType": "string"
        },
        {
          "name": "totalQuantity",
          "type": "uint256",
          "internalType": "uint256"
        },
        {
          "name": "perks",
          "type": "string[]",
          "internalType": "string[]"
        }
      ],
      "outputs": [
        {
          "name": "",
          "type": "uint256",
          "internalType": "uint256"
        }
      ],
      "stateMutability": "nonpayable"
    },
    {
      "type": "function",
      "name": "escrowContract",
      "inputs": [],
      "outputs": [
        {
          "name": "",
          "type": "address",
          "internalType": "address"
        }
      ],
      "stateMutability": "view"
    },
    {
      "type": "function",
      "name": "escrowModule",
      "inputs": [],
      "outputs": [
        {
          "name": "",
          "type": "address",
          "internalType": "contract IEscrowV1"
        }
      ],
      "stateMutability": "view"
    },
    {
      "type": "function",
      "name": "eventTickets",
      "inputs": [
        {
          "name": "",
          "type": "uint256",
          "internalType": "uint256"
        },
        {
          "name": "",
          "type": "uint256",
          "internalType": "uint256"
        }
      ],
      "outputs": [
        {
          "name": "",
          "type": "uint256",
          "internalType": "uint256"
        }
      ],
      "stateMutability": "view"
    },
    {
      "type": "function",
      "name": "eventsContract",
      "inputs": [],
      "outputs": [
        {
          "name": "",
          "type": "address",
          "internalType": "address"
        }
      ],
      "stateMutability": "view"
    },
    {
      "type": "function",
      "name": "eventsModule",
      "inputs": [],
      "outputs": [
        {
          "name": "",
          "type": "address",
          "internalType": "contract IEventsV1"
        }
      ],
      "stateMutability": "view"
    },
    {
      "type": "function",
      "name": "factoryContract",
      "inputs": [],
      "outputs": [
        {
          "name": "",
          "type": "address",
          "internalType": "address"
        }
      ],
      "stateMutability": "view"
    },
    {
      "type": "function",
      "name": "getEventTickets",
      "inputs": [
        {
          "name": "eventId",
          "type": "uint256",
          "internalType": "uint256"
        }
      ],
      "outputs": [
        {
          "name": "",
          "type": "uint256[]",
          "internalType": "uint256[]"
        }
      ],
      "stateMutability": "view"
    },
    {
      "type": "function",
      "name": "getPurchasedTicketCount",
      "inputs": [
        {
          "name": "eventId",
          "type": "uint256",
          "internalType": "uint256"
        },
        {
          "name": "buyer",
          "type": "address",
          "internalType": "address"
        }
      ],
      "outputs": [
        {
          "name": "",
          "type": "uint256",
          "internalType": "uint256"
        }
      ],
      "stateMutability": "view"
    },
    {
      "type": "function",
      "name": "getTicket",
      "inputs": [
        {
          "name": "ticketId",
          "type": "uint256",
          "internalType": "uint256"
        }
      ],
      "outputs": [
        {
          "name": "",
          "type": "tuple",
          "internalType": "struct EventTypes.TicketData",
          "components": [
            {
              "name": "ticketId",
              "type": "uint256",
              "internalType": "uint256"
            },
            {
              "name": "eventId",
              "type": "uint256",
              "internalType": "uint256"
            },
            {
              "name": "name",
              "type": "string",
              "internalType": "string"
            },
            {
              "name": "ticketType",
              "type": "string",
              "internalType": "string"
            },
            {
              "name": "price",
              "type": "uint256",
              "internalType": "uint256"
            },
            {
              "name": "currency",
              "type": "string",
              "internalType": "string"
            },
            {
              "name": "totalQuantity",
              "type": "uint256",
              "internalType": "uint256"
            },
            {
              "name": "soldQuantity",
              "type": "uint256",
              "internalType": "uint256"
            },
            {
              "name": "perks",
              "type": "string[]",
              "internalType": "string[]"
            },
            {
              "name": "isActive",
              "type": "bool",
              "internalType": "bool"
            },
            {
              "name": "createdAt",
              "type": "uint256",
              "internalType": "uint256"
            },
            {
              "name": "updatedAt",
              "type": "uint256",
              "internalType": "uint256"
            }
          ]
        }
      ],
      "stateMutability": "view"
    },
    {
      "type": "function",
      "name": "getTicketCount",
      "inputs": [],
      "outputs": [
        {
          "name": "",
          "type": "uint256",
          "internalType": "uint256"
        }
      ],
      "stateMutability": "view"
    },
    {
      "type": "function",
      "name": "initialize",
      "inputs": [
        {
          "name": "_uri",
          "type": "string",
          "internalType": "string"
        }
      ],
      "outputs": [],
      "stateMutability": "nonpayable"
    },
    {
      "type": "function",
      "name": "isApprovedForAll",
      "inputs": [
        {
          "name": "account",
          "type": "address",
          "internalType": "address"
        },
        {
          "name": "operator",
          "type": "address",
          "internalType": "address"
        }
      ],
      "outputs": [
        {
          "name": "",
          "type": "bool",
          "internalType": "bool"
        }
      ],
      "stateMutability": "view"
    },
    {
      "type": "function",
      "name": "isTicketActive",
      "inputs": [
        {
          "name": "ticketId",
          "type": "uint256",
          "internalType": "uint256"
        }
      ],
      "outputs": [
        {
          "name": "",
          "type": "bool",
          "internalType": "bool"
        }
      ],
      "stateMutability": "view"
    },
    {
      "type": "function",
      "name": "owner",
      "inputs": [],
      "outputs": [
        {
          "name": "",
          "type": "address",
          "internalType": "address"
        }
      ],
      "stateMutability": "view"
    },
    {
      "type": "function",
      "name": "pause",
      "inputs": [],
      "outputs": [],
      "stateMutability": "nonpayable"
    },
    {
      "type": "function",
      "name": "paused",
      "inputs": [],
      "outputs": [
        {
          "name": "",
          "type": "bool",
          "internalType": "bool"
        }
      ],
      "stateMutability": "view"
    },
    {
      "type": "function",
      "name": "purchaseTicket",
      "inputs": [
        {
          "name": "ticketId",
          "type": "uint256",
          "internalType": "uint256"
        },
        {
          "name": "quantity",
          "type": "uint256",
          "internalType": "uint256"
        }
      ],
      "outputs": [],
      "stateMutability": "payable"
    },
    {
      "type": "function",
      "name": "purchasedTicketCounts",
      "inputs": [
        {
          "name": "",
          "type": "uint256",
          "internalType": "uint256"
        },
        {
          "name": "",
          "type": "address",
          "internalType": "address"
        }
      ],
      "outputs": [
        {
          "name": "",
          "type": "uint256",
          "internalType": "uint256"
        }
      ],
      "stateMutability": "view"
    },
    {
      "type": "function",
      "name": "renounceOwnership",
      "inputs": [],
      "outputs": [],
      "stateMutability": "nonpayable"
    },
    {
      "type": "function",
      "name": "safeBatchTransferFrom",
      "inputs": [
        {
          "name": "from",
          "type": "address",
          "internalType": "address"
        },
        {
          "name": "to",
          "type": "address",
          "internalType": "address"
        },
        {
          "name": "ids",
          "type": "uint256[]",
          "internalType": "uint256[]"
        },
        {
          "name": "values",
          "type": "uint256[]",
          "internalType": "uint256[]"
        },
        {
          "name": "data",
          "type": "bytes",
          "internalType": "bytes"
        }
      ],
      "outputs": [],
      "stateMutability": "nonpayable"
    },
    {
      "type": "function",
      "name": "safeTransferFrom",
      "inputs": [
        {
          "name": "from",
          "type": "address",
          "internalType": "address"
        },
        {
          "name": "to",
          "type": "address",
          "internalType": "address"
        },
        {
          "name": "id",
          "type": "uint256",
          "internalType": "uint256"
        },
        {
          "name": "value",
          "type": "uint256",
          "internalType": "uint256"
        },
        {
          "name": "data",
          "type": "bytes",
          "internalType": "bytes"
        }
      ],
      "outputs": [],
      "stateMutability": "nonpayable"
    },
    {
      "type": "function",
      "name": "setApprovalForAll",
      "inputs": [
        {
          "name": "operator",
          "type": "address",
          "internalType": "address"
        },
        {
          "name": "approved",
          "type": "bool",
          "internalType": "bool"
        }
      ],
      "outputs": [],
      "stateMutability": "nonpayable"
    },
    {
      "type": "function",
      "name": "setContractAddresses",
      "inputs": [
        {
          "name": "_eventsContract",
          "type": "address",
          "internalType": "address"
        },
        {
          "name": "_escrowContract",
          "type": "address",
          "internalType": "address"
        }
      ],
      "outputs": [],
      "stateMutability": "nonpayable"
    },
    {
      "type": "function",
      "name": "setFactoryAddress",
      "inputs": [
        {
          "name": "_factoryContract",
          "type": "address",
          "internalType": "address"
        }
      ],
      "outputs": [],
      "stateMutability": "nonpayable"
    },
    {
      "type": "function",
      "name": "supportsInterface",
      "inputs": [
        {
          "name": "interfaceId",
          "type": "bytes4",
          "internalType": "bytes4"
        }
      ],
      "outputs": [
        {
          "name": "",
          "type": "bool",
          "internalType": "bool"
        }
      ],
      "stateMutability": "view"
    },
    {
      "type": "function",
      "name": "tickets",
      "inputs": [
        {
          "name": "",
          "type": "uint256",
          "internalType": "uint256"
        }
      ],
      "outputs": [
        {
          "name": "ticketId",
          "type": "uint256",
          "internalType": "uint256"
        },
        {
          "name": "eventId",
          "type": "uint256",
          "internalType": "uint256"
        },
        {
          "name": "name",
          "type": "string",
          "internalType": "string"
        },
        {
          "name": "ticketType",
          "type": "string",
          "internalType": "string"
        },
        {
          "name": "price",
          "type": "uint256",
          "internalType": "uint256"
        },
        {
          "name": "currency",
          "type": "string",
          "internalType": "string"
        },
        {
          "name": "totalQuantity",
          "type": "uint256",
          "internalType": "uint256"
        },
        {
          "name": "soldQuantity",
          "type": "uint256",
          "internalType": "uint256"
        },
        {
          "name": "isActive",
          "type": "bool",
          "internalType": "bool"
        },
        {
          "name": "createdAt",
          "type": "uint256",
          "internalType": "uint256"
        },
        {
          "name": "updatedAt",
          "type": "uint256",
          "internalType": "uint256"
        }
      ],
      "stateMutability": "view"
    },
    {
      "type": "function",
      "name": "transferOwnership",
      "inputs": [
        {
          "name": "newOwner",
          "type": "address",
          "internalType": "address"
        }
      ],
      "outputs": [],
      "stateMutability": "nonpayable"
    },
    {
      "type": "function",
      "name": "unpause",
      "inputs": [],
      "outputs": [],
      "stateMutability": "nonpayable"
    },
    {
      "type": "function",
      "name": "updateTicket",
      "inputs": [
        {
          "name": "ticketId",
          "type": "uint256",
          "internalType": "uint256"
        },
        {
          "name": "name",
          "type": "string",
          "internalType": "string"
        },
        {
          "name": "ticketType",
          "type": "string",
          "internalType": "string"
        },
        {
          "name": "price",
          "type": "uint256",
          "internalType": "uint256"
        },
        {
          "name": "currency",
          "type": "string",
          "internalType": "string"
        },
        {
          "name": "totalQuantity",
          "type": "uint256",
          "internalType": "uint256"
        },
        {
          "name": "perks",
          "type": "string[]",
          "internalType": "string[]"
        },
        {
          "name": "isActive",
          "type": "bool",
          "internalType": "bool"
        }
      ],
      "outputs": [],
      "stateMutability": "nonpayable"
    },
    {
      "type": "function",
      "name": "uri",
      "inputs": [
        {
          "name": "",
          "type": "uint256",
          "internalType": "uint256"
        }
      ],
      "outputs": [
        {
          "name": "",
          "type": "string",
          "internalType": "string"
        }
      ],
      "stateMutability": "view"
    },
    {
      "type": "function",
      "name": "version",
      "inputs": [],
      "outputs": [
        {
          "name": "",
          "type": "string",
          "internalType": "string"
        }
      ],
      "stateMutability": "pure"
    },
    {
      "type": "event",
      "name": "ApprovalForAll",
      "inputs": [
        {
          "name": "account",
          "type": "address",
          "indexed": true,
          "internalType": "address"
        },
        {
          "name": "operator",
          "type": "address",
          "indexed": true,
          "internalType": "address"
        },
        {
          "name": "approved",
          "type": "bool",
          "indexed": false,
          "internalType": "bool"
        }
      ],
      "anonymous": false
    },
    {
      "type": "event",
      "name": "Initialized",
      "inputs": [
        {
          "name": "version",
          "type": "uint64",
          "indexed": false,
          "internalType": "uint64"
        }
      ],
      "anonymous": false
    },
    {
      "type": "event",
      "name": "OwnershipTransferred",
      "inputs": [
        {
          "name": "previousOwner",
          "type": "address",
          "indexed": true,
          "internalType": "address"
        },
        {
          "name": "newOwner",
          "type": "address",
          "indexed": true,
          "internalType": "address"
        }
      ],
      "anonymous": false
    },
    {
      "type": "event",
      "name": "Paused",
      "inputs": [
        {
          "name": "account",
          "type": "address",
          "indexed": false,
          "internalType": "address"
        }
      ],
      "anonymous": false
    },
    {
      "type": "event",
      "name": "TicketCreated",
      "inputs": [
        {
          "name": "ticketId",
          "type": "uint256",
          "indexed": true,
          "internalType": "uint256"
        },
        {
          "name": "eventId",
          "type": "uint256",
          "indexed": true,
          "internalType": "uint256"
        },
        {
          "name": "creator",
          "type": "address",
          "indexed": true,
          "internalType": "address"
        },
        {
          "name": "name",
          "type": "string",
          "indexed": false,
          "internalType": "string"
        },
        {
          "name": "ticketType",
          "type": "string",
          "indexed": false,
          "internalType": "string"
        },
        {
          "name": "price",
          "type": "uint256",
          "indexed": false,
          "internalType": "uint256"
        },
        {
          "name": "currency",
          "type": "string",
          "indexed": false,
          "internalType": "string"
        },
        {
          "name": "totalQuantity",
          "type": "uint256",
          "indexed": false,
          "internalType": "uint256"
        },
        {
          "name": "perks",
          "type": "string[]",
          "indexed": false,
          "internalType": "string[]"
        }
      ],
      "anonymous": false
    },
    {
      "type": "event",
      "name": "TicketPurchased",
      "inputs": [
        {
          "name": "ticketId",
          "type": "uint256",
          "indexed": true,
          "internalType": "uint256"
        },
        {
          "name": "eventId",
          "type": "uint256",
          "indexed": true,
          "internalType": "uint256"
        },
        {
          "name": "buyer",
          "type": "address",
          "indexed": true,
          "internalType": "address"
        },
        {
          "name": "quantity",
          "type": "uint256",
          "indexed": false,
          "internalType": "uint256"
        },
        {
          "name": "totalPrice",
          "type": "uint256",
          "indexed": false,
          "internalType": "uint256"
        },
        {
          "name": "currency",
          "type": "string",
          "indexed": false,
          "internalType": "string"
        }
      ],
      "anonymous": false
    },
    {
      "type": "event",
      "name": "TicketUpdated",
      "inputs": [
        {
          "name": "ticketId",
          "type": "uint256",
          "indexed": true,
          "internalType": "uint256"
        },
        {
          "name": "name",
          "type": "string",
          "indexed": false,
          "internalType": "string"
        },
        {
          "name": "ticketType",
          "type": "string",
          "indexed": false,
          "internalType": "string"
        },
        {
          "name": "price",
          "type": "uint256",
          "indexed": false,
          "internalType": "uint256"
        },
        {
          "name": "currency",
          "type": "string",
          "indexed": false,
          "internalType": "string"
        },
        {
          "name": "totalQuantity",
          "type": "uint256",
          "indexed": false,
          "internalType": "uint256"
        },
        {
          "name": "perks",
          "type": "string[]",
          "indexed": false,
          "internalType": "string[]"
        },
        {
          "name": "isActive",
          "type": "bool",
          "indexed": false,
          "internalType": "bool"
        }
      ],
      "anonymous": false
    },
    {
      "type": "event",
      "name": "TransferBatch",
      "inputs": [
        {
          "name": "operator",
          "type": "address",
          "indexed": true,
          "internalType": "address"
        },
        {
          "name": "from",
          "type": "address",
          "indexed": true,
          "internalType": "address"
        },
        {
          "name": "to",
          "type": "address",
          "indexed": true,
          "internalType": "address"
        },
        {
          "name": "ids",
          "type": "uint256[]",
          "indexed": false,
          "internalType": "uint256[]"
        },
        {
          "name": "values",
          "type": "uint256[]",
          "indexed": false,
          "internalType": "uint256[]"
        }
      ],
      "anonymous": false
    },
    {
      "type": "event",
      "name": "TransferSingle",
      "inputs": [
        {
          "name": "operator",
          "type": "address",
          "indexed": true,
          "internalType": "address"
        },
        {
          "name": "from",
          "type": "address",
          "indexed": true,
          "internalType": "address"
        },
        {
          "name": "to",
          "type": "address",
          "indexed": true,
          "internalType": "address"
        },
        {
          "name": "id",
          "type": "uint256",
          "indexed": false,
          "internalType": "uint256"
        },
        {
          "name": "value",
          "type": "uint256",
          "indexed": false,
          "internalType": "uint256"
        }
      ],
      "anonymous": false
    },
    {
      "type": "event",
      "name": "URI",
      "inputs": [
        {
          "name": "value",
          "type": "string",
          "indexed": false,
          "internalType": "string"
        },
        {
          "name": "id",
          "type": "uint256",
          "indexed": true,
          "internalType": "uint256"
        }
      ],
      "anonymous": false
    },
    {
      "type": "event",
      "name": "Unpaused",
      "inputs": [
        {
          "name": "account",
          "type": "address",
          "indexed": false,
          "internalType": "address"
        }
      ],
      "anonymous": false
    },
    {
      "type": "error",
      "name": "ERC1155InsufficientBalance",
      "inputs": [
        {
          "name": "sender",
          "type": "address",
          "internalType": "address"
        },
        {
          "name": "balance",
          "type": "uint256",
          "internalType": "uint256"
        },
        {
          "name": "needed",
          "type": "uint256",
          "internalType": "uint256"
        },
        {
          "name": "tokenId",
          "type": "uint256",
          "internalType": "uint256"
        }
      ]
    },
    {
      "type": "error",
      "name": "ERC1155InvalidApprover",
      "inputs": [
        {
          "name": "approver",
          "type": "address",
          "internalType": "address"
        }
      ]
    },
    {
      "type": "error",
      "name": "ERC1155InvalidArrayLength",
      "inputs": [
        {
          "name": "idsLength",
          "type": "uint256",
          "internalType": "uint256"
        },
        {
          "name": "valuesLength",
          "type": "uint256",
          "internalType": "uint256"
        }
      ]
    },
    {
      "type": "error",
      "name": "ERC1155InvalidOperator",
      "inputs": [
        {
          "name": "operator",
          "type": "address",
          "internalType": "address"
        }
      ]
    },
    {
      "type": "error",
      "name": "ERC1155InvalidReceiver",
      "inputs": [
        {
          "name": "receiver",
          "type": "address",
          "internalType": "address"
        }
      ]
    },
    {
      "type": "error",
      "name": "ERC1155InvalidSender",
      "inputs": [
        {
          "name": "sender",
          "type": "address",
          "internalType": "address"
        }
      ]
    },
    {
      "type": "error",
      "name": "ERC1155MissingApprovalForAll",
      "inputs": [
        {
          "name": "operator",
          "type": "address",
          "internalType": "address"
        },
        {
          "name": "owner",
          "type": "address",
          "internalType": "address"
        }
      ]
    },
    {
      "type": "error",
      "name": "EnforcedPause",
      "inputs": []
    },
    {
      "type": "error",
      "name": "ExpectedPause",
      "inputs": []
    },
    {
      "type": "error",
      "name": "InvalidInitialization",
      "inputs": []
    },
    {
      "type": "error",
      "name": "NotInitializing",
      "inputs": []
    },
    {
      "type": "error",
      "name": "OwnableInvalidOwner",
      "inputs": [
        {
          "name": "owner",
          "type": "address",
          "internalType": "address"
        }
      ]
    },
    {
      "type": "error",
      "name": "OwnableUnauthorizedAccount",
      "inputs": [
        {
          "name": "account",
          "type": "address",
          "internalType": "address"
        }
      ]
    },
    {
      "type": "error",
      "name": "ReentrancyGuardReentrantCall",
      "inputs": []
    }
  ],
  "bytecode": {
    "object": "0x608080604052346100165761309d908161001b8239f35b5f80fdfe60806040526004361015610011575f80fd5b5f3560e01c8062fdd58e1461022e57806301ffc9a7146102295780630e89341c146102245780630ead82281461020b5780631ebdc2631461021f57806321c63a471461021a5780632eb2c2d6146102155780632f9c7365146102105780633f38a99e1461020b5780633f4ba83a1461020657806345856832146102015780634e1273f4146101fc57806350b44712146101f757806354fd4d50146101f25780635c975abb146101ed578063715018a6146101e8578063779cea77146101e35780637dc379fa146101de57806383c17c55146101d95780638456cb59146101d45780638da5cb5b146101cf578063a22cb465146101ca578063ab37a64f146101c5578063ae7406d8146101c0578063bdbbb0cb146101bb578063ca261ce1146101b6578063cd931e40146101b1578063d1beacab146101ac578063de11c94a146101a7578063e42a96e7146101a2578063e985e9c51461019d578063f242432a14610198578063f2fde38b146101935763f62d18881461018e575f80fd5b61184e565b6117f9565b6116e2565b6116b7565b61168f565b611667565b61163f565b6115ea565b61155e565b6112e1565b6112b9565b611288565b6111e5565b6111b1565b61114c565b61110d565b610fc9565b610e61565b610dcc565b610d9e565b610d47565b610cab565b610a9a565b6109b2565b61093d565b610473565b610840565b610676565b6104e9565b6104c1565b61038e565b6102c6565b610248565b6001600160a01b0381160361024457565b5f80fd5b346102445760403660031901126102445760206102ab60043561026a81610233565b6024355f527f88be536d5240c274a3b1d3a1be54482fd9caa294f08c62a7cde569f49a3c4500835260405f209060018060a01b03165f5260205260405f2090565b54604051908152f35b6001600160e01b031981160361024457565b346102445760203660031901126102445760206004356102e5816102b4565b63ffffffff60e01b16636cdb3d1360e11b8114908115610323575b8115610312575b506040519015158152f35b6301ffc9a760e01b1490505f610307565b6303a24d0760e21b81149150610300565b5f5b8381106103455750505f910152565b8181015183820152602001610336565b9060209161036e81518092818552858086019101610334565b601f01601f1916010190565b90602061038b928181520190610355565b90565b3461024457602080600319360112610244576040515f915f8051602061304883398151915280546103be81610b56565b8085529160019180831690811561045157506001146103f8575b6103f4856103e88189038261054e565b6040519182918261037a565b0390f35b5f9081529294507ff429cb5e2ec84cbb765e76b31964a56ccde03e7a6122d6cc4afb19edc55edeed5b82841061043e57505050816103f4936103e892820101935f6103d8565b8054858501870152928501928101610421565b60ff191686860152505050151560051b82010191506103e8816103f45f6103d8565b346102445760403660031901126102445760206102ab60243561049581610233565b6004355f526002835260405f209060018060a01b03165f5260205260405f2090565b5f91031261024457565b34610244575f366003190112610244576004546040516001600160a01b039091168152602090f35b34610244575f366003190112610244576020600354604051908152f35b634e487b7160e01b5f52604160045260245ffd5b61018081019081106001600160401b0382111761053657604052565b610506565b6001600160401b03811161053657604052565b90601f801991011681019081106001600160401b0382111761053657604052565b6040519061057c8261051a565b565b604051906101a082018281106001600160401b0382111761053657604052565b6001600160401b0381116105365760051b60200190565b9080601f830112156102445760209082356105cf8161059e565b936105dd604051958661054e565b81855260208086019260051b82010192831161024457602001905b828210610606575050505090565b813581529083019083016105f8565b6001600160401b03811161053657601f01601f191660200190565b81601f820112156102445780359061064782610615565b92610655604051948561054e565b8284526020838301011161024457815f926020809301838601378301015290565b346102445760a0366003190112610244576004803561069481610233565b6024356106a081610233565b6001600160401b0390604435828111610244576106c090369086016105b5565b90606435838111610244576106d890369087016105b5565b92608435908111610244576106f09036908701610630565b936001600160a01b0380821690338214158061077d575b610750578316156107395715610723576107219550612a9e565b005b604051626a0d4560e21b81525f81880152602490fd5b604051632bfa23e760e11b81525f81890152602490fd5b6040805163711bec9160e11b815233818b019081526001600160a01b038616602082015290918291010390fd5b5060ff6107a23361078d86610905565b9060018060a01b03165f5260205260405f2090565b541615610707565b81601f82011215610244578035916020916107c48461059e565b936107d2604051958661054e565b808552838086019160051b8301019280841161024457848301915b8483106107fd5750505050505090565b82356001600160401b03811161024457869161081e84848094890101610630565b8152019201916107ed565b8015150361024457565b60e4359061057c82610829565b3461024457610100366003190112610244576001600160401b0360243581811161024457610872903690600401610630565b6044358281116102445761088a903690600401610630565b608435838111610244576108a2903690600401610630565b9060c435938411610244576108be6107219436906004016107aa565b916108c7610833565b9360a43592606435916004356119cd565b5f527f88be536d5240c274a3b1d3a1be54482fd9caa294f08c62a7cde569f49a3c450060205260405f2090565b6001600160a01b03165f9081527f88be536d5240c274a3b1d3a1be54482fd9caa294f08c62a7cde569f49a3c45016020526040902090565b34610244575f3660031901126102445761095561280f565b5f80516020613008833981519152805460ff8116156109a05760ff191690557f5db9ee0a495bf2e6ff9c91a7834c1ba4fdd244a5e8aa4e537bd38aeae4b073aa6020604051338152a1005b604051638dfc202b60e01b8152600490fd5b346102445760e0366003190112610244576001600160401b03602435818111610244576109e3903690600401610630565b90604435818111610244576109fc903690600401610630565b9160843582811161024457610a15903690600401610630565b9260c435928311610244576103f493610a35610a469436906004016107aa565b9260a4359260643591600435611eff565b6040519081529081906020820190565b9081518082526020808093019301915f5b828110610a75575050505090565b835185529381019392810192600101610a67565b90602061038b928181520190610a56565b34610244576040366003190112610244576004356001600160401b038082116102445736602383011215610244578160040135610ad68161059e565b92610ae4604051948561054e565b8184526020916024602086019160051b8301019136831161024457602401905b828210610b3d5785602435868111610244576103f491610b2b610b319236906004016105b5565b90612488565b60405191829182610a89565b8380918335610b4b81610233565b815201910190610b04565b90600182811c92168015610b84575b6020831014610b7057565b634e487b7160e01b5f52602260045260245ffd5b91607f1691610b65565b80545f9392610b9c82610b56565b918282526020936001916001811690815f14610c005750600114610bc2575b5050505050565b90939495505f92919252835f2092845f945b838610610bec57505050500101905f80808080610bbb565b805485870183015294019385908201610bd4565b60ff19168685015250505090151560051b010191505f80808080610bbb565b9061057c610c339260405193848092610b8e565b038361054e565b97949293610c6d610c8e95610c7b93999e9d9c996101409c9995610160918d5260208d01528060408d01528b0190610355565b9089820360608b0152610355565b91608088015286820360a0880152610355565b9760c085015260e084015215156101008301526101208201520152565b34610244576020366003190112610244576004355f525f60205260405f2080546103f460018301549260405190610ce982610c338160028501610b8e565b604051610d0481610cfd8160038601610b8e565b038261054e565b6004820154610d1560058401610c1f565b600684015490600785015492610d2f600987015460ff1690565b94600b600a880154970154976040519b8c9b8c610c3a565b34610244575f3660031901126102445760405160408101908082106001600160401b03831117610536576103f49160405260058152640312e302e360dc1b6020820152604051918291602083526020830190610355565b34610244575f36600319011261024457602060ff5f8051602061300883398151915254166040519015158152f35b34610244575f36600319011261024457610de461280f565b5f80516020612fe883398151915280546001600160a01b031981169091555f906001600160a01b03167f8be0079c531659141344cd1fd0a4f28419497f9722a3daafe3b4186f6b6457e08280a3005b634e487b7160e01b5f52603260045260245ffd5b8054821015610e5c575f5260205f2001905f90565b610e33565b34610244576040366003190112610244576024356004355f52600160205260405f20805482101561024457602091610e9891610e47565b90546040519160031b1c8152f35b90808251908181526020809101926020808460051b8301019501935f915b848310610ed45750505050505090565b9091929394958480610ef2600193601f198682030187528a51610355565b9801930193019194939290610ec4565b6020815281516020820152602082015160408201526040820151610f34610180918260608501526101a0840190610355565b92610fa0610f75610f57606084015196601f199788888303016080890152610355565b608084015160a087015260a0840151878783030160c0880152610355565b60c083015160e086015260e08301516101009081870152830151610120968683030187870152610ea6565b93810151610fb5610140918286019015159052565b810151906101609182850152015191015290565b34610244576020366003190112610244576103f4600435604051610fec8161051a565b5f81525f6020820152600b60609283604084015283808401525f60808401528360a08401525f60c08401525f60e08401526101009084828501526110e66101205f81870152610140925f848801525f6101608098015280151580611101575b61105490611afe565b5f525f60205260405f209361106761056f565b9785548952600186015460208a015261108260028701610c1f565b60408a015261109360038701610c1f565b90890152600485015460808901526110ad60058601610c1f565b60a0890152600685015460c0890152600785015460e08901526110d26008860161252c565b90880152600984015460ff16151590870152565b600a8201549085015201549082015260405191829182610f02565b5060035481111561104b565b346102445760203660031901126102445760043561112a81610233565b600680546001600160a01b0319166001600160a01b0392909216919091179055005b34610244575f3660031901126102445761116461280f565b61116c61291e565b5f80516020613008833981519152600160ff198254161790557f62e78cea01bee320cd4e420270b5ea74000d11b0c9f74754ebdbfc544b05a2586020604051338152a1005b34610244575f366003190112610244575f80516020612fe8833981519152546040516001600160a01b039091168152602090f35b346102445760403660031901126102445760043561120281610233565b60243561120e81610829565b6001600160a01b03821691821561127157816112306112419261078d33610905565b9060ff801983541691151516179055565b60405190151581527f17307eab39ab6107e8899845ad3d59bd9653f200f220920489ca2b5937696c3160203392a3005b60405162ced3e160e81b81525f6004820152602490fd5b34610244576020366003190112610244576004355f525f602052602060ff600960405f200154166040519015158152f35b34610244575f366003190112610244576007546040516001600160a01b039091168152602090f35b604036600319011261024457600435602435907f9b779b17422d0df92223018b32b4d1fa46e071723d6817e2486d003becc55f00600281541461154c576002905561132a61291e565b80151580611540575b61133c90611afe565b611347821515612590565b611358815f525f60205260405f2090565b9061136f61136a600984015460ff1690565b6125dc565b6007820180549261138f611383868661261f565b6006830154101561262c565b60048101916113b5866113a3818654611cdb565b966113b088341015612678565b61261f565b905560018101916113e46113d284545f52600260205260405f2090565b335f9081526020919091526040902090565b6113ef87825461261f565b9055546114c7575b83341161149b575b8161145c8661145460057ffaed8ae05b4abf3767d449a7a80e2724d23f889b2abc6e179d2d0acc092519039654950194611446868a60405195869433908d602088016126c8565b03601f19810183528261054e565b878633612886565b549361146f6040519283923398846126fe565b0390a461072160017f9b779b17422d0df92223018b32b4d1fa46e071723d6817e2486d003becc55f0055565b5f8080806114a988346126bb565b8181156114be575b3390f16113ff575b611e93565b506108fc6114b1565b6008546114e4906001600160a01b03165b6001600160a01b031690565b825490803b156102445760405163f785de2360e01b815260048101929092523360248301525f908290604490829089905af180156114b957611527575b506113f7565b8061153461153a9261053b565b806104b7565b5f611521565b50600354811115611333565b604051633ee5aeb560e01b8152600490fd5b3461024457602080600319360112610244576004355f5260018060205260405f20916040519182602085549182815201945f5260205f20925f905b8282106115b0576103f486610b31818a038261054e565b84548752958601959383019390830190611599565b6040906003190112610244576004356115dd81610233565b9060243561038b81610233565b34610244576115f8366115c5565b60018060a01b03809216916bffffffffffffffffffffffff60a01b918383600454161760045516918282600554161760055581600754161760075560085416176008555f80f35b34610244575f366003190112610244576008546040516001600160a01b039091168152602090f35b34610244575f366003190112610244576006546040516001600160a01b039091168152602090f35b34610244575f366003190112610244576005546040516001600160a01b039091168152602090f35b3461024457602060ff6116d661078d6116cf366115c5565b9190610905565b54166040519015158152f35b346102445760a0366003190112610244576004356116ff81610233565b60243561170b81610233565b6084356001600160401b0381116102445761172a903690600401610630565b906001600160a01b038381169033821415806117e1575b6117ba578216156117a2571561178b57610721926117836064356044359160405192600184526020840152604083019160018352606084015260808301604052565b929091612a9e565b604051626a0d4560e21b81525f6004820152602490fd5b604051632bfa23e760e11b81525f6004820152602490fd5b60405163711bec9160e11b81523360048201526001600160a01b0386166024820152604490fd5b5060ff6117f13361078d88610905565b541615611741565b346102445760203660031901126102445760043561181681610233565b61181e61280f565b6001600160a01b0381161561183657610721906128ca565b604051631e4fbdf760e01b81525f6004820152602490fd5b34610244576020366003190112610244576001600160401b036004358181116102445761187f903690600401610630565b5f80516020613028833981519152549160ff8360401c161592168015908161197e575b6001149081611974575b15908161196b575b50611959575f80516020613028833981519152805467ffffffffffffffff191660011790556118e790826119355761271a565b6118ed57005b5f80516020613028833981519152805460ff60401b19169055604051600181527fc7f505b2f371ae2175ee4913f4499e1f2633a7b5936321eed1cdaeb6115181d290602090a1005b5f80516020613028833981519152805460ff60401b1916600160401b17905561271a565b60405163f92ee8a960e01b8152600490fd5b9050155f6118b4565b303b1591506118ac565b8391506118a2565b6119c9915f527f88be536d5240c274a3b1d3a1be54482fd9caa294f08c62a7cde569f49a3c450060205260405f209060018060a01b03165f5260205260405f2090565b5490565b96919495909392956119dd61280f565b87151580611af2575b6119ef90611afe565b875f525f60205260405f209381600786015411611a9c577faa7d16fe293896ef5ce81b5cf592c5ef17ca97adf01a6223662bd4db341e65d39785611a39886002611a979901611bf8565b611a468960038301611bf8565b816004820155611a598360058301611bf8565b836006820155611a6c8560088301611cf3565b611a8586600983019060ff801983541691151516179055565b600b4291015560405197889788611dcc565b0390a2565b60405162461bcd60e51b815260206004820152602860248201527f43616e6e6f7420726564756365207175616e746974792062656c6f7720736f6c6044820152671908185b5bdd5b9d60c21b6064820152608490fd5b506003548811156119e6565b15611b0557565b60405162461bcd60e51b8152602060048201526011602482015270125b9d985b1a59081d1a58dad95d081251607a1b6044820152606490fd5b818110611b49575050565b5f8155600101611b3e565b90601f8211611b61575050565b61057c915f805160206130488339815191525f527ff429cb5e2ec84cbb765e76b31964a56ccde03e7a6122d6cc4afb19edc55edeed906020601f840160051c83019310611bb6575b601f0160051c0190611b3e565b9091508190611ba9565b9190601f8111611bcf57505050565b61057c925f5260205f20906020601f840160051c83019310611bb657601f0160051c0190611b3e565b91909182516001600160401b03811161053657611c1f81611c198454610b56565b84611bc0565b602080601f8311600114611c6057508190611c519394955f92611c55575b50508160011b915f199060031b1c19161790565b9055565b015190505f80611c3d565b90601f19831695611c74855f5260205f2090565b925f905b888210611caf57505083600195969710611c97575b505050811b019055565b01515f1960f88460031b161c191690555f8080611c8d565b80600185968294968601518155019501930190611c78565b634e487b7160e01b5f52601160045260245ffd5b81810292918115918404141715611cee57565b611cc7565b815191600160401b8311610536578154838355808410611d4e575b50611d216020809201925f5260205f2090565b5f925b848410611d32575050505050565b60018382611d4283945186611bf8565b01920193019290611d24565b825f528360205f2091820191015b818110611d695750611d0e565b80611d7660019254610b56565b80611d83575b5001611d5c565b601f908181118414611d9b5750505f81555b5f611d7c565b83611dbb92611dad855f5260205f2090565b920160051c82019101611b3e565b5f8181526020812081835555611d95565b959192611e2694611e0060c09795611df2611e13959c9b9c60e08c5260e08c0190610355565b908a820360208c0152610355565b9160408901528782036060890152610355565b91608086015284820360a0860152610ea6565b931515910152565b519061057c82610233565b81601f82011215610244578051611e4f81610615565b92611e5d604051948561054e565b818452602082840101116102445761038b9160208085019101610334565b519061057c82610829565b5190600582101561024457565b6040513d5f823e3d90fd5b15611ea557565b60405162461bcd60e51b815260206004820152602c60248201527f4f6e6c79206576656e74732063726561746f72206f7220666163746f7279206360448201526b616e2063616c6c207468697360a01b6064820152608490fd5b600754604051630368c42760e51b81526004810183905297969594939291905f90899060249082906001600160a01b03165afa9788156114b9575f98611f94575b50611f5a6114d8602061038b9a015160018060a01b031690565b33148015611f71575b611f6c90611e9e565b612101565b50600654611f6c90611f8b906001600160a01b03166114d8565b33149050611f63565b97503d805f8a3e611fa5818a61054e565b8801976020818a03126102445780516001600160401b03918282116102445701906101a0828b031261024457611fd961057e565b9982518b52611fea60208401611e2e565b60208c015260408301519182116102445761038b9a836120146020936114d895611f5a9701611e39565b6040830152606081015160608301526080810151608083015260a081015160a083015260c081015160c083015261204d60e08201611e7b565b60e0830152610100612060818301611e7b565b90830152610120612072818301611e7b565b90830152610140612084818301611e86565b90830152610160808201519083015261018080910151908201529a505050611f40565b156120ae57565b60405162461bcd60e51b815260206004820152602560248201527f546f74616c207175616e74697479206d75737420626520677265617465722074604482015264068616e20360dc1b6064820152608490fd5b95949392919080511561216e578151156121295761038b966121248615156120a7565b612352565b60405162461bcd60e51b815260206004820152601b60248201527f5469636b657420747970652063616e6e6f7420626520656d70747900000000006044820152606490fd5b60405162461bcd60e51b81526020600482015260146024820152734e616d652063616e6e6f7420626520656d70747960601b6044820152606490fd5b90610160600b9180518455602081015160018501556121d0604082015160028601611bf8565b6121e1606082015160038601611bf8565b608081015160048501556121fc60a082015160058601611bf8565b60c0810151600685015560e0810151600785015561222261010082015160088601611cf3565b612248612233610120830151151590565b600986019060ff801983541691151516179055565b610140810151600a8501550151910155565b8054600160401b8110156105365761227791600182018155610e47565b819291549060031b91821b915f19901b1916179055565b95936122c9906122ea969261038b9b99956122d795610120928b5260208b015260018060a01b031660408a01528060608a0152880190610355565b908682036080880152610355565b9160a085015283820360c0850152610355565b9260e0820152610100818403910152610ea6565b92909361232c61233f9361231e61038b999760c0885260c0880190610355565b908682036020880152610355565b9160408501528382036060850152610355565b92608082015260a0818403910152610ea6565b93929083929596612367600160035401600355565b878383888a856003549d8e9b8c96879461237f61056f565b8681528760208201528860408201528160608201528260808201528360a08201528460c082015260e081015f90528561010082015261012081016123c39060019052565b42610140820152426101608201526123e2875f525f60205260405f2090565b906123ec916121aa565b856123ff885f52600160205260405f2090565b906124099161225a565b604051978897339060208a019861241f9961228e565b03601f1981018252612431908261054e565b61243b9133612847565b604051948594339961244d95876122fe565b037fc053559afc6615865e44866ce9d9167e587dcf58b50c3787735d8314195b888d91a490565b8051821015610e5c5760209160051b010190565b9190918051835180820361250a5750508051906124bd6124a78361059e565b926124b5604051948561054e565b80845261059e565b60209190601f190136848401375f5b815181101561250257806124f160019260051b85808287010151918a01015190611986565b6124fb8287612474565b52016124cc565b509193505050565b604051635b05999160e01b815260048101919091526024810191909152604490fd5b9081546125388161059e565b92604093612549604051918261054e565b82815280946020809201925f5260205f20905f935b85851061256d57505050505050565b6001848192845161258281610cfd818a610b8e565b81520193019401939161255e565b1561259757565b60405162461bcd60e51b815260206004820152601f60248201527f5175616e74697479206d7573742062652067726561746572207468616e2030006044820152606490fd5b156125e357565b60405162461bcd60e51b81526020600482015260146024820152735469636b6574206973206e6f742061637469766560601b6044820152606490fd5b91908201809211611cee57565b1561263357565b60405162461bcd60e51b815260206004820152601c60248201527f4e6f7420656e6f756768207469636b65747320617661696c61626c65000000006044820152606490fd5b1561267f57565b60405162461bcd60e51b8152602060048201526014602482015273125b9cdd59999a58da595b9d081c185e5b595b9d60621b6044820152606490fd5b91908203918211611cee57565b9261038b96959260c095928552602085015260018060a01b03166040840152606083015260808201528160a08201520190610b8e565b61038b9392606092825260208201528160408201520190610b8e565b90612724336128ca565b61272c612c73565b612734612c73565b81516001600160401b038111610536575f8051602061304883398151915290612766816127618454610b56565b611b54565b602080601f831160011461279757508190611c519394955f92611c555750508160011b915f199060031b1c19161790565b90601f198316956127d55f805160206130488339815191525f527ff429cb5e2ec84cbb765e76b31964a56ccde03e7a6122d6cc4afb19edc55edeed90565b925f905b8882106127f757505083600195969710611c9757505050811b019055565b806001859682949686015181550195019301906127d9565b5f80516020612fe8833981519152546001600160a01b0316330361282f57565b60405163118cdaa760e01b8152336004820152602490fd5b9091906001600160a01b038116156117a25761057c92604051906001825260208201526040810191600183526001606083015260808201604052612948565b919291906001600160a01b038216156117a25761057c936128c460405192600184526020840152604083019160018352606084015260808301604052565b91612948565b5f80516020612fe883398151915280546001600160a01b039283166001600160a01b0319821681179092559091167f8be0079c531659141344cd1fd0a4f28419497f9722a3daafe3b4186f6b6457e05f80a3565b60ff5f80516020613008833981519152541661293657565b60405163d93c066560e01b8152600490fd5b90805183519081810361250a5750505f5b81518110156129b557600581901b82810160209081015191860101516001929185906001600160a01b038216612993575b50505001612959565b6129ab9161078d6129a3926108d8565b91825461261f565b90555f848161298a565b50805191939291600103612a56576020818101518382015160408051928352928201526001600160a01b038616915f9133917fc3d58168c5ae7397731d063d5bbf3d657854427343f4c083240f7aacaa2d0f6291a45b6001600160a01b038416612a20575b50505050565b8051600103612a475790602080612a3e959301519101519133612f7b565b5f808080612a1a565b612a519333612d86565b612a3e565b6040516001600160a01b038516905f9033907f4a39dc06d4c0dbc64b70af90fd698a233a518aa5d07e595d983b8c0526c8f7fb9080612a96888883612ca1565b0390a4612a0b565b94919091815184519081810361250a5750505f5b8251811015612b7f57600581901b83810160209081015191870101516001600160a01b03929186908a8516612b0f575b6001948216612af5575b50505001612ab2565b612b059161078d6129a3926108d8565b90555f8581612aec565b9192939050612b218a61078d846108d8565b54838110612b485791879184600196959403612b408d61078d856108d8565b559450612ae2565b6040516303dee4c560e01b81526001600160a01b038c16600482015260248101919091526044810184905260648101839052608490fd5b5094919392909360018551145f14612c28576020858101518382015160408051928352928201526001600160a01b03838116929086169133917fc3d58168c5ae7397731d063d5bbf3d657854427343f4c083240f7aacaa2d0f6291a45b6001600160a01b038116612bf1575050505050565b8451600103612c1757602080612c0d9601519201519233612fb0565b5f80808080610bbb565b612c2394919233612e7f565b612c0d565b6040516001600160a01b03828116919085169033907f4a39dc06d4c0dbc64b70af90fd698a233a518aa5d07e595d983b8c0526c8f7fb9080612c6b888c83612ca1565b0390a4612bdc565b60ff5f805160206130288339815191525460401c1615612c8f57565b604051631afcd79f60e31b8152600490fd5b9091612cb861038b93604084526040840190610a56565b916020818403910152610a56565b90816020910312610244575161038b816102b4565b92612d0961038b9593612d179360018060a01b031686525f602087015260a0604087015260a0860190610a56565b908482036060860152610a56565b916080818403910152610355565b939061038b9593612d0991612d179460018060a01b03809216885216602087015260a0604087015260a0860190610a56565b3d15612d81573d90612d6882610615565b91612d76604051938461054e565b82523d5f602084013e565b606090565b9293919093843b612d98575050505050565b602091612dbb604051948593849363bc197c8160e01b9889865260048601612cdb565b03815f6001600160a01b0388165af15f9181612e4e575b50612e115782612de0612d57565b8051919082612e0a57604051632bfa23e760e11b81526001600160a01b0383166004820152602490fd5b6020915001fd5b6001600160e01b03191603612e2b57505f80808080610bbb565b604051632bfa23e760e11b81526001600160a01b03919091166004820152602490fd5b612e7191925060203d602011612e78575b612e69818361054e565b810190612cc6565b905f612dd2565b503d612e5f565b939290949194853b612e94575b505050505050565b612eb7602093604051958694859463bc197c8160e01b998a875260048701612d25565b03815f6001600160a01b0388165af15f9181612ef7575b50612edc5782612de0612d57565b6001600160e01b03191603612e2b57505f8080808080612e8c565b612f1191925060203d602011612e7857612e69818361054e565b905f612ece565b909260a09261038b9594600180861b031683525f6020840152604083015260608201528160808201520190610355565b919261038b95949160a094600180871b038092168552166020840152604083015260608201528160808201520190610355565b9293919093843b612f8d575050505050565b602091612dbb604051948593849363f23a6e6160e01b9889865260048601612f18565b939290949194853b612fc457505050505050565b612eb7602093604051958694859463f23a6e6160e01b998a875260048701612f4856fe9016d09d72d40fdae2fd8ceac6b6234c7706214fd39c1cd1e609a0528c199300cd5ed15c6e187e77e9aee88184c21f4f2182ab5827cb3b7e07fbedcd63f03300f0c57e16840df040f15088dc2f81fe391c3923bec73e23a9662efc9c229c6a0088be536d5240c274a3b1d3a1be54482fd9caa294f08c62a7cde569f49a3c4502a2646970667358221220cd55f1e57f735c508a15861cef1df845efc3c6d5fd6736a2947c54361f7f13df64736f6c63430008180033",
    "linkReferences": {}
  },
  "methodIdentifiers": {
    "balanceOf(address,uint256)": "00fdd58e",
    "balanceOfBatch(address[],uint256[])": "4e1273f4",
    "createTicket(uint256,string,string,uint256,string,uint256,string[])": "45856832",
    "escrowContract()": "e42a96e7",
    "escrowModule()": "d1beacab",
    "eventTickets(uint256,uint256)": "779cea77",
    "eventsContract()": "1ebdc263",
    "eventsModule()": "ae7406d8",
    "factoryContract()": "de11c94a",
    "getEventTickets(uint256)": "ca261ce1",
    "getPurchasedTicketCount(uint256,address)": "0ead8228",
    "getTicket(uint256)": "7dc379fa",
    "getTicketCount()": "21c63a47",
    "initialize(string)": "f62d1888",
    "isApprovedForAll(address,address)": "e985e9c5",
    "isTicketActive(uint256)": "ab37a64f",
    "owner()": "8da5cb5b",
    "pause()": "8456cb59",
    "paused()": "5c975abb",
    "purchaseTicket(uint256,uint256)": "bdbbb0cb",
    "purchasedTicketCounts(uint256,address)": "3f38a99e",
    "renounceOwnership()": "715018a6",
    "safeBatchTransferFrom(address,address,uint256[],uint256[],bytes)": "2eb2c2d6",
    "safeTransferFrom(address,address,uint256,uint256,bytes)": "f242432a",
    "setApprovalForAll(address,bool)": "a22cb465",
    "setContractAddresses(address,address)": "cd931e40",
    "setFactoryAddress(address)": "83c17c55",
    "supportsInterface(bytes4)": "01ffc9a7",
    "tickets(uint256)": "50b44712",
    "transferOwnership(address)": "f2fde38b",
    "unpause()": "3f4ba83a",
    "updateTicket(uint256,string,string,uint256,string,uint256,string[],bool)": "2f9c7365",
    "uri(uint256)": "0e89341c",
    "version()": "54fd4d50"
  },
  "id": 49
}