{
  "abi": [
    {
      "type": "function",
      "name": "balanceOf",
      "inputs": [
        {
          "name": "account",
          "type": "address",
          "internalType": "address"
        },
        {
          "name": "id",
          "type": "uint256",
          "internalType": "uint256"
        }
      ],
      "outputs": [
        {
          "name": "",
          "type": "uint256",
          "internalType": "uint256"
        }
      ],
      "stateMutability": "view"
    },
    {
      "type": "function",
      "name": "balanceOfBatch",
      "inputs": [
        {
          "name": "accounts",
          "type": "address[]",
          "internalType": "address[]"
        },
        {
          "name": "ids",
          "type": "uint256[]",
          "internalType": "uint256[]"
        }
      ],
      "outputs": [
        {
          "name": "",
          "type": "uint256[]",
          "internalType": "uint256[]"
        }
      ],
      "stateMutability": "view"
    },
    {
      "type": "function",
      "name": "createTicket",
      "inputs": [
        {
          "name": "eventId",
          "type": "uint256",
          "internalType": "uint256"
        },
        {
          "name": "name",
          "type": "string",
          "internalType": "string"
        },
        {
          "name": "ticketType",
          "type": "string",
          "internalType": "string"
        },
        {
          "name": "price",
          "type": "uint256",
          "internalType": "uint256"
        },
        {
          "name": "currency",
          "type": "string",
          "internalType": "string"
        },
        {
          "name": "totalQuantity",
          "type": "uint256",
          "internalType": "uint256"
        },
        {
          "name": "perks",
          "type": "string[]",
          "internalType": "string[]"
        }
      ],
      "outputs": [
        {
          "name": "",
          "type": "uint256",
          "internalType": "uint256"
        }
      ],
      "stateMutability": "nonpayable"
    },
    {
      "type": "function",
      "name": "createTickets",
      "inputs": [
        {
          "name": "eventId",
          "type": "uint256",
          "internalType": "uint256"
        },
        {
          "name": "name",
          "type": "string[]",
          "internalType": "string[]"
        },
        {
          "name": "ticketType",
          "type": "string[]",
          "internalType": "string[]"
        },
        {
          "name": "price",
          "type": "uint256[]",
          "internalType": "uint256[]"
        },
        {
          "name": "currency",
          "type": "string[]",
          "internalType": "string[]"
        },
        {
          "name": "totalQuantity",
          "type": "uint256[]",
          "internalType": "uint256[]"
        },
        {
          "name": "perks",
          "type": "string[][]",
          "internalType": "string[][]"
        }
      ],
      "outputs": [],
      "stateMutability": "nonpayable"
    },
    {
      "type": "function",
      "name": "escrowContract",
      "inputs": [],
      "outputs": [
        {
          "name": "",
          "type": "address",
          "internalType": "address"
        }
      ],
      "stateMutability": "view"
    },
    {
      "type": "function",
      "name": "escrowModule",
      "inputs": [],
      "outputs": [
        {
          "name": "",
          "type": "address",
          "internalType": "contract IEscrowV1"
        }
      ],
      "stateMutability": "view"
    },
    {
      "type": "function",
      "name": "eventTickets",
      "inputs": [
        {
          "name": "",
          "type": "uint256",
          "internalType": "uint256"
        },
        {
          "name": "",
          "type": "uint256",
          "internalType": "uint256"
        }
      ],
      "outputs": [
        {
          "name": "",
          "type": "uint256",
          "internalType": "uint256"
        }
      ],
      "stateMutability": "view"
    },
    {
      "type": "function",
      "name": "eventsContract",
      "inputs": [],
      "outputs": [
        {
          "name": "",
          "type": "address",
          "internalType": "address"
        }
      ],
      "stateMutability": "view"
    },
    {
      "type": "function",
      "name": "eventsModule",
      "inputs": [],
      "outputs": [
        {
          "name": "",
          "type": "address",
          "internalType": "contract IEventsV1"
        }
      ],
      "stateMutability": "view"
    },
    {
      "type": "function",
      "name": "factoryContract",
      "inputs": [],
      "outputs": [
        {
          "name": "",
          "type": "address",
          "internalType": "address"
        }
      ],
      "stateMutability": "view"
    },
    {
      "type": "function",
      "name": "getEventTickets",
      "inputs": [
        {
          "name": "eventId",
          "type": "uint256",
          "internalType": "uint256"
        }
      ],
      "outputs": [
        {
          "name": "",
          "type": "uint256[]",
          "internalType": "uint256[]"
        }
      ],
      "stateMutability": "view"
    },
    {
      "type": "function",
      "name": "getPurchasedTicketCount",
      "inputs": [
        {
          "name": "eventId",
          "type": "uint256",
          "internalType": "uint256"
        },
        {
          "name": "buyer",
          "type": "address",
          "internalType": "address"
        }
      ],
      "outputs": [
        {
          "name": "",
          "type": "uint256",
          "internalType": "uint256"
        }
      ],
      "stateMutability": "view"
    },
    {
      "type": "function",
      "name": "getTicket",
      "inputs": [
        {
          "name": "ticketId",
          "type": "uint256",
          "internalType": "uint256"
        }
      ],
      "outputs": [
        {
          "name": "",
          "type": "tuple",
          "internalType": "struct EventTypes.TicketData",
          "components": [
            {
              "name": "ticketId",
              "type": "uint256",
              "internalType": "uint256"
            },
            {
              "name": "eventId",
              "type": "uint256",
              "internalType": "uint256"
            },
            {
              "name": "name",
              "type": "string",
              "internalType": "string"
            },
            {
              "name": "ticketType",
              "type": "string",
              "internalType": "string"
            },
            {
              "name": "price",
              "type": "uint256",
              "internalType": "uint256"
            },
            {
              "name": "currency",
              "type": "string",
              "internalType": "string"
            },
            {
              "name": "totalQuantity",
              "type": "uint256",
              "internalType": "uint256"
            },
            {
              "name": "soldQuantity",
              "type": "uint256",
              "internalType": "uint256"
            },
            {
              "name": "perks",
              "type": "string[]",
              "internalType": "string[]"
            },
            {
              "name": "isActive",
              "type": "bool",
              "internalType": "bool"
            },
            {
              "name": "createdAt",
              "type": "uint256",
              "internalType": "uint256"
            },
            {
              "name": "updatedAt",
              "type": "uint256",
              "internalType": "uint256"
            }
          ]
        }
      ],
      "stateMutability": "view"
    },
    {
      "type": "function",
      "name": "getTicketCount",
      "inputs": [],
      "outputs": [
        {
          "name": "",
          "type": "uint256",
          "internalType": "uint256"
        }
      ],
      "stateMutability": "view"
    },
    {
      "type": "function",
      "name": "initialize",
      "inputs": [
        {
          "name": "_uri",
          "type": "string",
          "internalType": "string"
        }
      ],
      "outputs": [],
      "stateMutability": "nonpayable"
    },
    {
      "type": "function",
      "name": "isApprovedForAll",
      "inputs": [
        {
          "name": "account",
          "type": "address",
          "internalType": "address"
        },
        {
          "name": "operator",
          "type": "address",
          "internalType": "address"
        }
      ],
      "outputs": [
        {
          "name": "",
          "type": "bool",
          "internalType": "bool"
        }
      ],
      "stateMutability": "view"
    },
    {
      "type": "function",
      "name": "isTicketActive",
      "inputs": [
        {
          "name": "ticketId",
          "type": "uint256",
          "internalType": "uint256"
        }
      ],
      "outputs": [
        {
          "name": "",
          "type": "bool",
          "internalType": "bool"
        }
      ],
      "stateMutability": "view"
    },
    {
      "type": "function",
      "name": "owner",
      "inputs": [],
      "outputs": [
        {
          "name": "",
          "type": "address",
          "internalType": "address"
        }
      ],
      "stateMutability": "view"
    },
    {
      "type": "function",
      "name": "pause",
      "inputs": [],
      "outputs": [],
      "stateMutability": "nonpayable"
    },
    {
      "type": "function",
      "name": "paused",
      "inputs": [],
      "outputs": [
        {
          "name": "",
          "type": "bool",
          "internalType": "bool"
        }
      ],
      "stateMutability": "view"
    },
    {
      "type": "function",
      "name": "purchaseTicket",
      "inputs": [
        {
          "name": "ticketId",
          "type": "uint256",
          "internalType": "uint256"
        },
        {
          "name": "quantity",
          "type": "uint256",
          "internalType": "uint256"
        }
      ],
      "outputs": [],
      "stateMutability": "payable"
    },
    {
      "type": "function",
      "name": "purchasedTicketCounts",
      "inputs": [
        {
          "name": "",
          "type": "uint256",
          "internalType": "uint256"
        },
        {
          "name": "",
          "type": "address",
          "internalType": "address"
        }
      ],
      "outputs": [
        {
          "name": "",
          "type": "uint256",
          "internalType": "uint256"
        }
      ],
      "stateMutability": "view"
    },
    {
      "type": "function",
      "name": "renounceOwnership",
      "inputs": [],
      "outputs": [],
      "stateMutability": "nonpayable"
    },
    {
      "type": "function",
      "name": "safeBatchTransferFrom",
      "inputs": [
        {
          "name": "from",
          "type": "address",
          "internalType": "address"
        },
        {
          "name": "to",
          "type": "address",
          "internalType": "address"
        },
        {
          "name": "ids",
          "type": "uint256[]",
          "internalType": "uint256[]"
        },
        {
          "name": "values",
          "type": "uint256[]",
          "internalType": "uint256[]"
        },
        {
          "name": "data",
          "type": "bytes",
          "internalType": "bytes"
        }
      ],
      "outputs": [],
      "stateMutability": "nonpayable"
    },
    {
      "type": "function",
      "name": "safeTransferFrom",
      "inputs": [
        {
          "name": "from",
          "type": "address",
          "internalType": "address"
        },
        {
          "name": "to",
          "type": "address",
          "internalType": "address"
        },
        {
          "name": "id",
          "type": "uint256",
          "internalType": "uint256"
        },
        {
          "name": "value",
          "type": "uint256",
          "internalType": "uint256"
        },
        {
          "name": "data",
          "type": "bytes",
          "internalType": "bytes"
        }
      ],
      "outputs": [],
      "stateMutability": "nonpayable"
    },
    {
      "type": "function",
      "name": "setApprovalForAll",
      "inputs": [
        {
          "name": "operator",
          "type": "address",
          "internalType": "address"
        },
        {
          "name": "approved",
          "type": "bool",
          "internalType": "bool"
        }
      ],
      "outputs": [],
      "stateMutability": "nonpayable"
    },
    {
      "type": "function",
      "name": "setContractAddresses",
      "inputs": [
        {
          "name": "_eventsContract",
          "type": "address",
          "internalType": "address"
        },
        {
          "name": "_escrowContract",
          "type": "address",
          "internalType": "address"
        }
      ],
      "outputs": [],
      "stateMutability": "nonpayable"
    },
    {
      "type": "function",
      "name": "setFactoryAddress",
      "inputs": [
        {
          "name": "_factoryContract",
          "type": "address",
          "internalType": "address"
        }
      ],
      "outputs": [],
      "stateMutability": "nonpayable"
    },
    {
      "type": "function",
      "name": "supportsInterface",
      "inputs": [
        {
          "name": "interfaceId",
          "type": "bytes4",
          "internalType": "bytes4"
        }
      ],
      "outputs": [
        {
          "name": "",
          "type": "bool",
          "internalType": "bool"
        }
      ],
      "stateMutability": "view"
    },
    {
      "type": "function",
      "name": "tickets",
      "inputs": [
        {
          "name": "",
          "type": "uint256",
          "internalType": "uint256"
        }
      ],
      "outputs": [
        {
          "name": "ticketId",
          "type": "uint256",
          "internalType": "uint256"
        },
        {
          "name": "eventId",
          "type": "uint256",
          "internalType": "uint256"
        },
        {
          "name": "name",
          "type": "string",
          "internalType": "string"
        },
        {
          "name": "ticketType",
          "type": "string",
          "internalType": "string"
        },
        {
          "name": "price",
          "type": "uint256",
          "internalType": "uint256"
        },
        {
          "name": "currency",
          "type": "string",
          "internalType": "string"
        },
        {
          "name": "totalQuantity",
          "type": "uint256",
          "internalType": "uint256"
        },
        {
          "name": "soldQuantity",
          "type": "uint256",
          "internalType": "uint256"
        },
        {
          "name": "isActive",
          "type": "bool",
          "internalType": "bool"
        },
        {
          "name": "createdAt",
          "type": "uint256",
          "internalType": "uint256"
        },
        {
          "name": "updatedAt",
          "type": "uint256",
          "internalType": "uint256"
        }
      ],
      "stateMutability": "view"
    },
    {
      "type": "function",
      "name": "transferOwnership",
      "inputs": [
        {
          "name": "newOwner",
          "type": "address",
          "internalType": "address"
        }
      ],
      "outputs": [],
      "stateMutability": "nonpayable"
    },
    {
      "type": "function",
      "name": "unpause",
      "inputs": [],
      "outputs": [],
      "stateMutability": "nonpayable"
    },
    {
      "type": "function",
      "name": "updateTicket",
      "inputs": [
        {
          "name": "ticketId",
          "type": "uint256",
          "internalType": "uint256"
        },
        {
          "name": "name",
          "type": "string",
          "internalType": "string"
        },
        {
          "name": "ticketType",
          "type": "string",
          "internalType": "string"
        },
        {
          "name": "price",
          "type": "uint256",
          "internalType": "uint256"
        },
        {
          "name": "currency",
          "type": "string",
          "internalType": "string"
        },
        {
          "name": "totalQuantity",
          "type": "uint256",
          "internalType": "uint256"
        },
        {
          "name": "perks",
          "type": "string[]",
          "internalType": "string[]"
        },
        {
          "name": "isActive",
          "type": "bool",
          "internalType": "bool"
        }
      ],
      "outputs": [],
      "stateMutability": "nonpayable"
    },
    {
      "type": "function",
      "name": "uri",
      "inputs": [
        {
          "name": "",
          "type": "uint256",
          "internalType": "uint256"
        }
      ],
      "outputs": [
        {
          "name": "",
          "type": "string",
          "internalType": "string"
        }
      ],
      "stateMutability": "view"
    },
    {
      "type": "function",
      "name": "version",
      "inputs": [],
      "outputs": [
        {
          "name": "",
          "type": "string",
          "internalType": "string"
        }
      ],
      "stateMutability": "pure"
    },
    {
      "type": "event",
      "name": "ApprovalForAll",
      "inputs": [
        {
          "name": "account",
          "type": "address",
          "indexed": true,
          "internalType": "address"
        },
        {
          "name": "operator",
          "type": "address",
          "indexed": true,
          "internalType": "address"
        },
        {
          "name": "approved",
          "type": "bool",
          "indexed": false,
          "internalType": "bool"
        }
      ],
      "anonymous": false
    },
    {
      "type": "event",
      "name": "Initialized",
      "inputs": [
        {
          "name": "version",
          "type": "uint64",
          "indexed": false,
          "internalType": "uint64"
        }
      ],
      "anonymous": false
    },
    {
      "type": "event",
      "name": "OwnershipTransferred",
      "inputs": [
        {
          "name": "previousOwner",
          "type": "address",
          "indexed": true,
          "internalType": "address"
        },
        {
          "name": "newOwner",
          "type": "address",
          "indexed": true,
          "internalType": "address"
        }
      ],
      "anonymous": false
    },
    {
      "type": "event",
      "name": "Paused",
      "inputs": [
        {
          "name": "account",
          "type": "address",
          "indexed": false,
          "internalType": "address"
        }
      ],
      "anonymous": false
    },
    {
      "type": "event",
      "name": "TicketCreated",
      "inputs": [
        {
          "name": "ticketId",
          "type": "uint256",
          "indexed": true,
          "internalType": "uint256"
        },
        {
          "name": "eventId",
          "type": "uint256",
          "indexed": true,
          "internalType": "uint256"
        },
        {
          "name": "creator",
          "type": "address",
          "indexed": true,
          "internalType": "address"
        },
        {
          "name": "name",
          "type": "string",
          "indexed": false,
          "internalType": "string"
        },
        {
          "name": "ticketType",
          "type": "string",
          "indexed": false,
          "internalType": "string"
        },
        {
          "name": "price",
          "type": "uint256",
          "indexed": false,
          "internalType": "uint256"
        },
        {
          "name": "currency",
          "type": "string",
          "indexed": false,
          "internalType": "string"
        },
        {
          "name": "totalQuantity",
          "type": "uint256",
          "indexed": false,
          "internalType": "uint256"
        },
        {
          "name": "perks",
          "type": "string[]",
          "indexed": false,
          "internalType": "string[]"
        }
      ],
      "anonymous": false
    },
    {
      "type": "event",
      "name": "TicketPurchased",
      "inputs": [
        {
          "name": "ticketId",
          "type": "uint256",
          "indexed": true,
          "internalType": "uint256"
        },
        {
          "name": "eventId",
          "type": "uint256",
          "indexed": true,
          "internalType": "uint256"
        },
        {
          "name": "buyer",
          "type": "address",
          "indexed": true,
          "internalType": "address"
        },
        {
          "name": "quantity",
          "type": "uint256",
          "indexed": false,
          "internalType": "uint256"
        },
        {
          "name": "totalPrice",
          "type": "uint256",
          "indexed": false,
          "internalType": "uint256"
        },
        {
          "name": "currency",
          "type": "string",
          "indexed": false,
          "internalType": "string"
        }
      ],
      "anonymous": false
    },
    {
      "type": "event",
      "name": "TicketUpdated",
      "inputs": [
        {
          "name": "ticketId",
          "type": "uint256",
          "indexed": true,
          "internalType": "uint256"
        },
        {
          "name": "name",
          "type": "string",
          "indexed": false,
          "internalType": "string"
        },
        {
          "name": "ticketType",
          "type": "string",
          "indexed": false,
          "internalType": "string"
        },
        {
          "name": "price",
          "type": "uint256",
          "indexed": false,
          "internalType": "uint256"
        },
        {
          "name": "currency",
          "type": "string",
          "indexed": false,
          "internalType": "string"
        },
        {
          "name": "totalQuantity",
          "type": "uint256",
          "indexed": false,
          "internalType": "uint256"
        },
        {
          "name": "perks",
          "type": "string[]",
          "indexed": false,
          "internalType": "string[]"
        },
        {
          "name": "isActive",
          "type": "bool",
          "indexed": false,
          "internalType": "bool"
        }
      ],
      "anonymous": false
    },
    {
      "type": "event",
      "name": "TransferBatch",
      "inputs": [
        {
          "name": "operator",
          "type": "address",
          "indexed": true,
          "internalType": "address"
        },
        {
          "name": "from",
          "type": "address",
          "indexed": true,
          "internalType": "address"
        },
        {
          "name": "to",
          "type": "address",
          "indexed": true,
          "internalType": "address"
        },
        {
          "name": "ids",
          "type": "uint256[]",
          "indexed": false,
          "internalType": "uint256[]"
        },
        {
          "name": "values",
          "type": "uint256[]",
          "indexed": false,
          "internalType": "uint256[]"
        }
      ],
      "anonymous": false
    },
    {
      "type": "event",
      "name": "TransferSingle",
      "inputs": [
        {
          "name": "operator",
          "type": "address",
          "indexed": true,
          "internalType": "address"
        },
        {
          "name": "from",
          "type": "address",
          "indexed": true,
          "internalType": "address"
        },
        {
          "name": "to",
          "type": "address",
          "indexed": true,
          "internalType": "address"
        },
        {
          "name": "id",
          "type": "uint256",
          "indexed": false,
          "internalType": "uint256"
        },
        {
          "name": "value",
          "type": "uint256",
          "indexed": false,
          "internalType": "uint256"
        }
      ],
      "anonymous": false
    },
    {
      "type": "event",
      "name": "URI",
      "inputs": [
        {
          "name": "value",
          "type": "string",
          "indexed": false,
          "internalType": "string"
        },
        {
          "name": "id",
          "type": "uint256",
          "indexed": true,
          "internalType": "uint256"
        }
      ],
      "anonymous": false
    },
    {
      "type": "event",
      "name": "Unpaused",
      "inputs": [
        {
          "name": "account",
          "type": "address",
          "indexed": false,
          "internalType": "address"
        }
      ],
      "anonymous": false
    },
    {
      "type": "error",
      "name": "ERC1155InsufficientBalance",
      "inputs": [
        {
          "name": "sender",
          "type": "address",
          "internalType": "address"
        },
        {
          "name": "balance",
          "type": "uint256",
          "internalType": "uint256"
        },
        {
          "name": "needed",
          "type": "uint256",
          "internalType": "uint256"
        },
        {
          "name": "tokenId",
          "type": "uint256",
          "internalType": "uint256"
        }
      ]
    },
    {
      "type": "error",
      "name": "ERC1155InvalidApprover",
      "inputs": [
        {
          "name": "approver",
          "type": "address",
          "internalType": "address"
        }
      ]
    },
    {
      "type": "error",
      "name": "ERC1155InvalidArrayLength",
      "inputs": [
        {
          "name": "idsLength",
          "type": "uint256",
          "internalType": "uint256"
        },
        {
          "name": "valuesLength",
          "type": "uint256",
          "internalType": "uint256"
        }
      ]
    },
    {
      "type": "error",
      "name": "ERC1155InvalidOperator",
      "inputs": [
        {
          "name": "operator",
          "type": "address",
          "internalType": "address"
        }
      ]
    },
    {
      "type": "error",
      "name": "ERC1155InvalidReceiver",
      "inputs": [
        {
          "name": "receiver",
          "type": "address",
          "internalType": "address"
        }
      ]
    },
    {
      "type": "error",
      "name": "ERC1155InvalidSender",
      "inputs": [
        {
          "name": "sender",
          "type": "address",
          "internalType": "address"
        }
      ]
    },
    {
      "type": "error",
      "name": "ERC1155MissingApprovalForAll",
      "inputs": [
        {
          "name": "operator",
          "type": "address",
          "internalType": "address"
        },
        {
          "name": "owner",
          "type": "address",
          "internalType": "address"
        }
      ]
    },
    {
      "type": "error",
      "name": "EnforcedPause",
      "inputs": []
    },
    {
      "type": "error",
      "name": "ExpectedPause",
      "inputs": []
    },
    {
      "type": "error",
      "name": "InvalidInitialization",
      "inputs": []
    },
    {
      "type": "error",
      "name": "NotInitializing",
      "inputs": []
    },
    {
      "type": "error",
      "name": "OwnableInvalidOwner",
      "inputs": [
        {
          "name": "owner",
          "type": "address",
          "internalType": "address"
        }
      ]
    },
    {
      "type": "error",
      "name": "OwnableUnauthorizedAccount",
      "inputs": [
        {
          "name": "account",
          "type": "address",
          "internalType": "address"
        }
      ]
    },
    {
      "type": "error",
      "name": "ReentrancyGuardReentrantCall",
      "inputs": []
    }
  ],
  "bytecode": {
    "object": "0x6080806040523461001657613471908161001b8239f35b5f80fdfe60806040526004361015610011575f80fd5b5f3560e01c8062fdd58e1461023e57806301ffc9a7146102395780630e89341c146102345780630ead82281461021b5780631ebdc2631461022f57806321c63a471461022a5780632eb2c2d6146102255780632f9c7365146102205780633f38a99e1461021b5780633f4ba83a14610216578063431620dc14610211578063458568321461020c5780634e1273f41461020757806350b447121461020257806354fd4d50146101fd5780635c975abb146101f8578063715018a6146101f3578063779cea77146101ee5780637dc379fa146101e957806383c17c55146101e45780638456cb59146101df5780638da5cb5b146101da578063a22cb465146101d5578063ab37a64f146101d0578063ae7406d8146101cb578063bdbbb0cb146101c6578063ca261ce1146101c1578063cd931e40146101bc578063d1beacab146101b7578063de11c94a146101b2578063e42a96e7146101ad578063e985e9c5146101a8578063f242432a146101a3578063f2fde38b1461019e5763f62d188814610199575f80fd5b61197d565b611928565b611811565b6117e6565b6117be565b611796565b61176e565b611719565b61168d565b611421565b6113f9565b6113c8565b611325565b6112f1565b61128c565b61124d565b611109565b610fa1565b610f0c565b610ede565b610e87565b610deb565b610bda565b610af2565b610a41565b61094d565b610483565b610850565b610686565b6104f9565b6104d1565b61039e565b6102d6565b610258565b6001600160a01b0381160361025457565b5f80fd5b346102545760403660031901126102545760206102bb60043561027a81610243565b6024355f527f88be536d5240c274a3b1d3a1be54482fd9caa294f08c62a7cde569f49a3c4500835260405f209060018060a01b03165f5260205260405f2090565b54604051908152f35b6001600160e01b031981160361025457565b346102545760203660031901126102545760206004356102f5816102c4565b63ffffffff60e01b16636cdb3d1360e11b8114908115610333575b8115610322575b506040519015158152f35b6301ffc9a760e01b1490505f610317565b6303a24d0760e21b81149150610310565b5f5b8381106103555750505f910152565b8181015183820152602001610346565b9060209161037e81518092818552858086019101610344565b601f01601f1916010190565b90602061039b928181520190610365565b90565b3461025457602080600319360112610254576040515f915f8051602061341c83398151915280546103ce81610c96565b808552916001918083169081156104615750600114610408575b610404856103f88189038261055e565b6040519182918261038a565b0390f35b5f9081529294507ff429cb5e2ec84cbb765e76b31964a56ccde03e7a6122d6cc4afb19edc55edeed5b82841061044e5750505081610404936103f892820101935f6103e8565b8054858501870152928501928101610431565b60ff191686860152505050151560051b82010191506103f8816104045f6103e8565b346102545760403660031901126102545760206102bb6024356104a581610243565b6004355f526002835260405f209060018060a01b03165f5260205260405f2090565b5f91031261025457565b34610254575f366003190112610254576004546040516001600160a01b039091168152602090f35b34610254575f366003190112610254576020600354604051908152f35b634e487b7160e01b5f52604160045260245ffd5b61018081019081106001600160401b0382111761054657604052565b610516565b6001600160401b03811161054657604052565b90601f801991011681019081106001600160401b0382111761054657604052565b6040519061058c8261052a565b565b604051906101a082018281106001600160401b0382111761054657604052565b6001600160401b0381116105465760051b60200190565b9080601f830112156102545760209082356105df816105ae565b936105ed604051958661055e565b81855260208086019260051b82010192831161025457602001905b828210610616575050505090565b81358152908301908301610608565b6001600160401b03811161054657601f01601f191660200190565b81601f820112156102545780359061065782610625565b92610665604051948561055e565b8284526020838301011161025457815f926020809301838601378301015290565b346102545760a036600319011261025457600480356106a481610243565b6024356106b081610243565b6001600160401b0390604435828111610254576106d090369086016105c5565b90606435838111610254576106e890369087016105c5565b92608435908111610254576107009036908701610640565b936001600160a01b0380821690338214158061078d575b610760578316156107495715610733576107319550612e72565b005b604051626a0d4560e21b81525f81880152602490fd5b604051632bfa23e760e11b81525f81890152602490fd5b6040805163711bec9160e11b815233818b019081526001600160a01b038616602082015290918291010390fd5b5060ff6107b23361079d86610915565b9060018060a01b03165f5260205260405f2090565b541615610717565b81601f82011215610254578035916020916107d4846105ae565b936107e2604051958661055e565b808552838086019160051b8301019280841161025457848301915b84831061080d5750505050505090565b82356001600160401b03811161025457869161082e84848094890101610640565b8152019201916107fd565b8015150361025457565b60e4359061058c82610839565b3461025457610100366003190112610254576001600160401b0360243581811161025457610882903690600401610640565b6044358281116102545761089a903690600401610640565b608435838111610254576108b2903690600401610640565b9060c435938411610254576108ce6107319436906004016107ba565b916108d7610843565b9360a4359260643591600435611afc565b5f527f88be536d5240c274a3b1d3a1be54482fd9caa294f08c62a7cde569f49a3c450060205260405f2090565b6001600160a01b03165f9081527f88be536d5240c274a3b1d3a1be54482fd9caa294f08c62a7cde569f49a3c45016020526040902090565b34610254575f36600319011261025457610965612be3565b5f805160206133dc833981519152805460ff8116156109b05760ff191690557f5db9ee0a495bf2e6ff9c91a7834c1ba4fdd244a5e8aa4e537bd38aeae4b073aa6020604051338152a1005b604051638dfc202b60e01b8152600490fd5b81601f82011215610254578035916020916109dc846105ae565b936109ea604051958661055e565b808552838086019160051b8301019280841161025457848301915b848310610a155750505050505090565b82356001600160401b038111610254578691610a36848480948901016107ba565b815201920191610a05565b346102545760e0366003190112610254576001600160401b03600460243582811161025457610a7390369083016107ba565b60443583811161025457610a8a90369084016107ba565b60643584811161025457610aa190369085016105c5565b60843585811161025457610ab890369086016107ba565b9160a43586811161025457610ad090369087016105c5565b9360c43596871161025457610aeb61073197369088016109c2565b9535612119565b346102545760e0366003190112610254576001600160401b0360243581811161025457610b23903690600401610640565b9060443581811161025457610b3c903690600401610640565b9160843582811161025457610b55903690600401610640565b9260c4359283116102545761040493610b75610b869436906004016107ba565b9260a4359260643591600435612578565b6040519081529081906020820190565b9081518082526020808093019301915f5b828110610bb5575050505090565b835185529381019392810192600101610ba7565b90602061039b928181520190610b96565b34610254576040366003190112610254576004356001600160401b038082116102545736602383011215610254578160040135610c16816105ae565b92610c24604051948561055e565b8184526020916024602086019160051b8301019136831161025457602401905b828210610c7d57856024358681116102545761040491610c6b610c719236906004016105c5565b9061285c565b60405191829182610bc9565b8380918335610c8b81610243565b815201910190610c44565b90600182811c92168015610cc4575b6020831014610cb057565b634e487b7160e01b5f52602260045260245ffd5b91607f1691610ca5565b80545f9392610cdc82610c96565b918282526020936001916001811690815f14610d405750600114610d02575b5050505050565b90939495505f92919252835f2092845f945b838610610d2c57505050500101905f80808080610cfb565b805485870183015294019385908201610d14565b60ff19168685015250505090151560051b010191505f80808080610cfb565b9061058c610d739260405193848092610cce565b038361055e565b97949293610dad610dce95610dbb93999e9d9c996101409c9995610160918d5260208d01528060408d01528b0190610365565b9089820360608b0152610365565b91608088015286820360a0880152610365565b9760c085015260e084015215156101008301526101208201520152565b34610254576020366003190112610254576004355f525f60205260405f20805461040460018301549260405190610e2982610d738160028501610cce565b604051610e4481610e3d8160038601610cce565b038261055e565b6004820154610e5560058401610d5f565b600684015490600785015492610e6f600987015460ff1690565b94600b600a880154970154976040519b8c9b8c610d7a565b34610254575f3660031901126102545760405160408101908082106001600160401b03831117610546576104049160405260058152640312e302e360dc1b6020820152604051918291602083526020830190610365565b34610254575f36600319011261025457602060ff5f805160206133dc83398151915254166040519015158152f35b34610254575f36600319011261025457610f24612be3565b5f805160206133bc83398151915280546001600160a01b031981169091555f906001600160a01b03167f8be0079c531659141344cd1fd0a4f28419497f9722a3daafe3b4186f6b6457e08280a3005b634e487b7160e01b5f52603260045260245ffd5b8054821015610f9c575f5260205f2001905f90565b610f73565b34610254576040366003190112610254576024356004355f52600160205260405f20805482101561025457602091610fd891610f87565b90546040519160031b1c8152f35b90808251908181526020809101926020808460051b8301019501935f915b8483106110145750505050505090565b9091929394958480611032600193601f198682030187528a51610365565b9801930193019194939290611004565b6020815281516020820152602082015160408201526040820151611074610180918260608501526101a0840190610365565b926110e06110b5611097606084015196601f199788888303016080890152610365565b608084015160a087015260a0840151878783030160c0880152610365565b60c083015160e086015260e08301516101009081870152830151610120968683030187870152610fe6565b938101516110f5610140918286019015159052565b810151906101609182850152015191015290565b346102545760203660031901126102545761040460043560405161112c8161052a565b5f81525f6020820152600b60609283604084015283808401525f60808401528360a08401525f60c08401525f60e08401526101009084828501526112266101205f81870152610140925f848801525f6101608098015280151580611241575b61119490611c2d565b5f525f60205260405f20936111a761057f565b9785548952600186015460208a01526111c260028701610d5f565b60408a01526111d360038701610d5f565b90890152600485015460808901526111ed60058601610d5f565b60a0890152600685015460c0890152600785015460e089015261121260088601612900565b90880152600984015460ff16151590870152565b600a8201549085015201549082015260405191829182611042565b5060035481111561118b565b346102545760203660031901126102545760043561126a81610243565b600680546001600160a01b0319166001600160a01b0392909216919091179055005b34610254575f366003190112610254576112a4612be3565b6112ac612cf2565b5f805160206133dc833981519152600160ff198254161790557f62e78cea01bee320cd4e420270b5ea74000d11b0c9f74754ebdbfc544b05a2586020604051338152a1005b34610254575f366003190112610254575f805160206133bc833981519152546040516001600160a01b039091168152602090f35b346102545760403660031901126102545760043561134281610243565b60243561134e81610839565b6001600160a01b0382169182156113b157816113706113819261079d33610915565b9060ff801983541691151516179055565b60405190151581527f17307eab39ab6107e8899845ad3d59bd9653f200f220920489ca2b5937696c3160203392a3005b60405162ced3e160e81b81525f6004820152602490fd5b34610254576020366003190112610254576004355f525f602052602060ff600960405f200154166040519015158152f35b34610254575f366003190112610254576007546040516001600160a01b039091168152602090f35b604036600319011261025457600435602435907f9b779b17422d0df92223018b32b4d1fa46e071723d6817e2486d003becc55f00600281541461167b576002905561146a612cf2565b8015158061166f575b61147c90611c2d565b611487821515612964565b611498815f525f60205260405f2090565b906114af6114aa600984015460ff1690565b6129b0565b600782018054926114cf6114c386866129f3565b60068301541015612a00565b60048101916114f5866114e3818654611e0a565b966114f088341015612a4c565b6129f3565b9055600181019161152461151284545f52600260205260405f2090565b335f9081526020919091526040902090565b61152f8782546129f3565b905554611607575b8334116115db575b8161159c8661159460057ffaed8ae05b4abf3767d449a7a80e2724d23f889b2abc6e179d2d0acc092519039654950194611586868a60405195869433908d60208801612a9c565b03601f19810183528261055e565b878633612c5a565b54936115af604051928392339884612ad2565b0390a461073160017f9b779b17422d0df92223018b32b4d1fa46e071723d6817e2486d003becc55f0055565b5f8080806115e98834612a8f565b8181156115fe575b3390f161153f575b6120ad565b506108fc6115f1565b6008546001600160a01b0316825490803b156102545760405163f785de2360e01b815260048101929092523360248301525f908290604490829089905af180156115f957611656575b50611537565b806116636116699261054b565b806104c7565b5f611650565b50600354811115611473565b604051633ee5aeb560e01b8152600490fd5b3461025457602080600319360112610254576004355f5260018060205260405f20916040519182602085549182815201945f5260205f20925f905b8282106116df5761040486610c71818a038261055e565b845487529586019593830193908301906116c8565b60409060031901126102545760043561170c81610243565b9060243561039b81610243565b3461025457611727366116f4565b60018060a01b03809216916bffffffffffffffffffffffff60a01b918383600454161760045516918282600554161760055581600754161760075560085416176008555f80f35b34610254575f366003190112610254576008546040516001600160a01b039091168152602090f35b34610254575f366003190112610254576006546040516001600160a01b039091168152602090f35b34610254575f366003190112610254576005546040516001600160a01b039091168152602090f35b3461025457602060ff61180561079d6117fe366116f4565b9190610915565b54166040519015158152f35b346102545760a03660031901126102545760043561182e81610243565b60243561183a81610243565b6084356001600160401b03811161025457611859903690600401610640565b906001600160a01b03838116903382141580611910575b6118e9578216156118d157156118ba57610731926118b26064356044359160405192600184526020840152604083019160018352606084015260808301604052565b929091612e72565b604051626a0d4560e21b81525f6004820152602490fd5b604051632bfa23e760e11b81525f6004820152602490fd5b60405163711bec9160e11b81523360048201526001600160a01b0386166024820152604490fd5b5060ff6119203361079d88610915565b541615611870565b346102545760203660031901126102545760043561194581610243565b61194d612be3565b6001600160a01b038116156119655761073190612c9e565b604051631e4fbdf760e01b81525f6004820152602490fd5b34610254576020366003190112610254576001600160401b03600435818111610254576119ae903690600401610640565b5f805160206133fc833981519152549160ff8360401c1615921680159081611aad575b6001149081611aa3575b159081611a9a575b50611a88575f805160206133fc833981519152805467ffffffffffffffff19166001179055611a169082611a6457612aee565b611a1c57005b5f805160206133fc833981519152805460ff60401b19169055604051600181527fc7f505b2f371ae2175ee4913f4499e1f2633a7b5936321eed1cdaeb6115181d290602090a1005b5f805160206133fc833981519152805460ff60401b1916600160401b179055612aee565b60405163f92ee8a960e01b8152600490fd5b9050155f6119e3565b303b1591506119db565b8391506119d1565b611af8915f527f88be536d5240c274a3b1d3a1be54482fd9caa294f08c62a7cde569f49a3c450060205260405f209060018060a01b03165f5260205260405f2090565b5490565b9691949590939295611b0c612be3565b87151580611c21575b611b1e90611c2d565b875f525f60205260405f209381600786015411611bcb577faa7d16fe293896ef5ce81b5cf592c5ef17ca97adf01a6223662bd4db341e65d39785611b68886002611bc69901611d27565b611b758960038301611d27565b816004820155611b888360058301611d27565b836006820155611b9b8560088301611e22565b611bb486600983019060ff801983541691151516179055565b600b4291015560405197889788611efb565b0390a2565b60405162461bcd60e51b815260206004820152602860248201527f43616e6e6f7420726564756365207175616e746974792062656c6f7720736f6c6044820152671908185b5bdd5b9d60c21b6064820152608490fd5b50600354881115611b15565b15611c3457565b60405162461bcd60e51b8152602060048201526011602482015270125b9d985b1a59081d1a58dad95d081251607a1b6044820152606490fd5b818110611c78575050565b5f8155600101611c6d565b90601f8211611c90575050565b61058c915f8051602061341c8339815191525f527ff429cb5e2ec84cbb765e76b31964a56ccde03e7a6122d6cc4afb19edc55edeed906020601f840160051c83019310611ce5575b601f0160051c0190611c6d565b9091508190611cd8565b9190601f8111611cfe57505050565b61058c925f5260205f20906020601f840160051c83019310611ce557601f0160051c0190611c6d565b91909182516001600160401b03811161054657611d4e81611d488454610c96565b84611cef565b602080601f8311600114611d8f57508190611d809394955f92611d84575b50508160011b915f199060031b1c19161790565b9055565b015190505f80611d6c565b90601f19831695611da3855f5260205f2090565b925f905b888210611dde57505083600195969710611dc6575b505050811b019055565b01515f1960f88460031b161c191690555f8080611dbc565b80600185968294968601518155019501930190611da7565b634e487b7160e01b5f52601160045260245ffd5b81810292918115918404141715611e1d57565b611df6565b815191600160401b8311610546578154838355808410611e7d575b50611e506020809201925f5260205f2090565b5f925b848410611e61575050505050565b60018382611e7183945186611d27565b01920193019290611e53565b825f528360205f2091820191015b818110611e985750611e3d565b80611ea560019254610c96565b80611eb2575b5001611e8b565b601f908181118414611eca5750505f81555b5f611eab565b83611eea92611edc855f5260205f2090565b920160051c82019101611c6d565b5f8181526020812081835555611ec4565b959192611f5594611f2f60c09795611f21611f42959c9b9c60e08c5260e08c0190610365565b908a820360208c0152610365565b9160408901528782036060890152610365565b91608086015284820360a0860152610fe6565b931515910152565b519061058c82610243565b81601f82011215610254578051611f7e81610625565b92611f8c604051948561055e565b818452602082840101116102545761039b9160208085019101610344565b519061058c82610839565b5190600582101561025457565b6020818303126102545780516001600160401b03918282116102545701906101a08284031261025457611ff361058e565b928251845261200460208401611f5d565b6020850152604083015191821161025457612020918301611f68565b6040830152606081015160608301526080810151608083015260a081015160a083015260c081015160c083015261205960e08201611faa565b60e083015261010061206c818301611faa565b9083015261012061207e818301611faa565b90830152610140612090818301611fb5565b908301526101608082015190830152610180809101519082015290565b6040513d5f823e3d90fd5b156120bf57565b60405162461bcd60e51b815260206004820152602c60248201527f4f6e6c79206576656e74732063726561746f72206f7220666163746f7279206360448201526b616e2063616c6c207468697360a01b6064820152608490fd5b94919592939095602460018060a01b035f816007541660405193848092630368c42760e51b82528c60048301525afa80156115f95760208291612171945f91612331575b500151163314908115612323575b506120b8565b5f5b87518110156123195761218a600160035401600355565b60035487612198838b612353565b516121a38486612353565b516121ae858b612353565b516121b98689612353565b51906121c5878b612353565b51926121d1888d612353565b51946121db61057f565b888152602081019790975260408701526060860152608085015260a084015260c08301525f60e083015261010082015260016101208201524261014082015242610160820152612232825f525f60205260405f2090565b9061223c91612367565b8061224f895f52600160205260405f2090565b9061225991612417565b808989828989898d8a604051978897339060208a01986122789961244b565b03601f198101825261228a908261055e565b6122949133612c1b565b8761229f838b612353565b51916122ab8486612353565b51926122b7858b612353565b516122c28689612353565b51916122ce878b612353565b516122d9888d612353565b519060405194859433996122ed9587612524565b037fc053559afc6615865e44866ce9d9167e587dcf58b50c3787735d8314195b888d91a4600101612173565b5050505050505050565b90506006541633145f61216b565b61234d91503d805f833e612345818361055e565b810190611fc2565b5f61215d565b8051821015610f9c5760209160051b010190565b90610160600b91805184556020810151600185015561238d604082015160028601611d27565b61239e606082015160038601611d27565b608081015160048501556123b960a082015160058601611d27565b60c0810151600685015560e081015160078501556123df61010082015160088601611e22565b6124056123f0610120830151151590565b600986019060ff801983541691151516179055565b610140810151600a8501550151910155565b8054600160401b8110156105465761243491600182018155610f87565b819291549060031b91821b915f19901b1916179055565b97959391969492610120918952602097888a0152600160a01b60019003166040890152806060890152870161247f91610fe6565b868103608088015261249091610fe6565b85810360a08701526124a191610b96565b84810360c08601526124b291610fe6565b83810360e08501526124c391610b96565b918083039061010001528251908183528083019281808460051b8301019501935f915b8483106124f65750505050505090565b9091929394958480612514600193601f198682030187528a51610fe6565b98019301930191949392906124e6565b9290936125526125659361254461039b999760c0885260c0880190610365565b908682036020880152610365565b9160408501528382036060850152610365565b92608082015260a0818403910152610fe6565b959493929190602460018060a01b035f816007541660405193848092630368c42760e51b82528d60048301525afa80156115f957602082916125cd945f916123315750015116331490811561232357506120b8565b805115612634578151156125ef5761039b966125ea861515612670565b61273a565b60405162461bcd60e51b815260206004820152601b60248201527f5469636b657420747970652063616e6e6f7420626520656d70747900000000006044820152606490fd5b60405162461bcd60e51b81526020600482015260146024820152734e616d652063616e6e6f7420626520656d70747960601b6044820152606490fd5b1561267757565b60405162461bcd60e51b815260206004820152602560248201527f546f74616c207175616e74697479206d75737420626520677265617465722074604482015264068616e20360dc1b6064820152608490fd5b959361270590612726969261039b9b999561271395610120928b5260208b015260018060a01b031660408a01528060608a0152880190610365565b908682036080880152610365565b9160a085015283820360c0850152610365565b9260e0820152610100818403910152610fe6565b9392908392959661274f600160035401600355565b878383888a856003549d8e9b8c96879461276761057f565b8681528760208201528860408201528160608201528260808201528360a08201528460c082015260e081015f90528561010082015261012081016127ab9060019052565b42610140820152426101608201526127ca875f525f60205260405f2090565b906127d491612367565b856127e7885f52600160205260405f2090565b906127f191612417565b604051978897339060208a0198612807996126ca565b03601f1981018252612819908261055e565b6128239133612c1b565b60405194859433996128359587612524565b037fc053559afc6615865e44866ce9d9167e587dcf58b50c3787735d8314195b888d91a490565b919091805183518082036128de57505080519061289161287b836105ae565b92612889604051948561055e565b8084526105ae565b60209190601f190136848401375f5b81518110156128d657806128c560019260051b85808287010151918a01015190611ab5565b6128cf8287612353565b52016128a0565b509193505050565b604051635b05999160e01b815260048101919091526024810191909152604490fd5b90815461290c816105ae565b9260409361291d604051918261055e565b82815280946020809201925f5260205f20905f935b85851061294157505050505050565b6001848192845161295681610e3d818a610cce565b815201930194019391612932565b1561296b57565b60405162461bcd60e51b815260206004820152601f60248201527f5175616e74697479206d7573742062652067726561746572207468616e2030006044820152606490fd5b156129b757565b60405162461bcd60e51b81526020600482015260146024820152735469636b6574206973206e6f742061637469766560601b6044820152606490fd5b91908201809211611e1d57565b15612a0757565b60405162461bcd60e51b815260206004820152601c60248201527f4e6f7420656e6f756768207469636b65747320617661696c61626c65000000006044820152606490fd5b15612a5357565b60405162461bcd60e51b8152602060048201526014602482015273125b9cdd59999a58da595b9d081c185e5b595b9d60621b6044820152606490fd5b91908203918211611e1d57565b9261039b96959260c095928552602085015260018060a01b03166040840152606083015260808201528160a08201520190610cce565b61039b9392606092825260208201528160408201520190610cce565b90612af833612c9e565b612b00613047565b612b08613047565b81516001600160401b038111610546575f8051602061341c83398151915290612b3a81612b358454610c96565b611c83565b602080601f8311600114612b6b57508190611d809394955f92611d845750508160011b915f199060031b1c19161790565b90601f19831695612ba95f8051602061341c8339815191525f527ff429cb5e2ec84cbb765e76b31964a56ccde03e7a6122d6cc4afb19edc55edeed90565b925f905b888210612bcb57505083600195969710611dc657505050811b019055565b80600185968294968601518155019501930190612bad565b5f805160206133bc833981519152546001600160a01b03163303612c0357565b60405163118cdaa760e01b8152336004820152602490fd5b9091906001600160a01b038116156118d15761058c92604051906001825260208201526040810191600183526001606083015260808201604052612d1c565b919291906001600160a01b038216156118d15761058c93612c9860405192600184526020840152604083019160018352606084015260808301604052565b91612d1c565b5f805160206133bc83398151915280546001600160a01b039283166001600160a01b0319821681179092559091167f8be0079c531659141344cd1fd0a4f28419497f9722a3daafe3b4186f6b6457e05f80a3565b60ff5f805160206133dc8339815191525416612d0a57565b60405163d93c066560e01b8152600490fd5b9080518351908181036128de5750505f5b8151811015612d8957600581901b82810160209081015191860101516001929185906001600160a01b038216612d67575b50505001612d2d565b612d7f9161079d612d77926108e8565b9182546129f3565b90555f8481612d5e565b50805191939291600103612e2a576020818101518382015160408051928352928201526001600160a01b038616915f9133917fc3d58168c5ae7397731d063d5bbf3d657854427343f4c083240f7aacaa2d0f6291a45b6001600160a01b038416612df4575b50505050565b8051600103612e1b5790602080612e1295930151910151913361334f565b5f808080612dee565b612e25933361315a565b612e12565b6040516001600160a01b038516905f9033907f4a39dc06d4c0dbc64b70af90fd698a233a518aa5d07e595d983b8c0526c8f7fb9080612e6a888883613075565b0390a4612ddf565b9491909181518451908181036128de5750505f5b8251811015612f5357600581901b83810160209081015191870101516001600160a01b03929186908a8516612ee3575b6001948216612ec9575b50505001612e86565b612ed99161079d612d77926108e8565b90555f8581612ec0565b9192939050612ef58a61079d846108e8565b54838110612f1c5791879184600196959403612f148d61079d856108e8565b559450612eb6565b6040516303dee4c560e01b81526001600160a01b038c16600482015260248101919091526044810184905260648101839052608490fd5b5094919392909360018551145f14612ffc576020858101518382015160408051928352928201526001600160a01b03838116929086169133917fc3d58168c5ae7397731d063d5bbf3d657854427343f4c083240f7aacaa2d0f6291a45b6001600160a01b038116612fc5575050505050565b8451600103612feb57602080612fe19601519201519233613384565b5f80808080610cfb565b612ff794919233613253565b612fe1565b6040516001600160a01b03828116919085169033907f4a39dc06d4c0dbc64b70af90fd698a233a518aa5d07e595d983b8c0526c8f7fb908061303f888c83613075565b0390a4612fb0565b60ff5f805160206133fc8339815191525460401c161561306357565b604051631afcd79f60e31b8152600490fd5b909161308c61039b93604084526040840190610b96565b916020818403910152610b96565b90816020910312610254575161039b816102c4565b926130dd61039b95936130eb9360018060a01b031686525f602087015260a0604087015260a0860190610b96565b908482036060860152610b96565b916080818403910152610365565b939061039b95936130dd916130eb9460018060a01b03809216885216602087015260a0604087015260a0860190610b96565b3d15613155573d9061313c82610625565b9161314a604051938461055e565b82523d5f602084013e565b606090565b9293919093843b61316c575050505050565b60209161318f604051948593849363bc197c8160e01b98898652600486016130af565b03815f6001600160a01b0388165af15f9181613222575b506131e557826131b461312b565b80519190826131de57604051632bfa23e760e11b81526001600160a01b0383166004820152602490fd5b6020915001fd5b6001600160e01b031916036131ff57505f80808080610cfb565b604051632bfa23e760e11b81526001600160a01b03919091166004820152602490fd5b61324591925060203d60201161324c575b61323d818361055e565b81019061309a565b905f6131a6565b503d613233565b939290949194853b613268575b505050505050565b61328b602093604051958694859463bc197c8160e01b998a8752600487016130f9565b03815f6001600160a01b0388165af15f91816132cb575b506132b057826131b461312b565b6001600160e01b031916036131ff57505f8080808080613260565b6132e591925060203d60201161324c5761323d818361055e565b905f6132a2565b909260a09261039b9594600180861b031683525f6020840152604083015260608201528160808201520190610365565b919261039b95949160a094600180871b038092168552166020840152604083015260608201528160808201520190610365565b9293919093843b613361575050505050565b60209161318f604051948593849363f23a6e6160e01b98898652600486016132ec565b939290949194853b61339857505050505050565b61328b602093604051958694859463f23a6e6160e01b998a87526004870161331c56fe9016d09d72d40fdae2fd8ceac6b6234c7706214fd39c1cd1e609a0528c199300cd5ed15c6e187e77e9aee88184c21f4f2182ab5827cb3b7e07fbedcd63f03300f0c57e16840df040f15088dc2f81fe391c3923bec73e23a9662efc9c229c6a0088be536d5240c274a3b1d3a1be54482fd9caa294f08c62a7cde569f49a3c4502a26469706673582212204f37e71f5a0d001cea0e614a8911bbb7d50679a590a6d9d5fab7616f7bfa884264736f6c63430008180033",
    "linkReferences": {}
  },
  "methodIdentifiers": {
    "balanceOf(address,uint256)": "00fdd58e",
    "balanceOfBatch(address[],uint256[])": "4e1273f4",
    "createTicket(uint256,string,string,uint256,string,uint256,string[])": "45856832",
    "createTickets(uint256,string[],string[],uint256[],string[],uint256[],string[][])": "431620dc",
    "escrowContract()": "e42a96e7",
    "escrowModule()": "d1beacab",
    "eventTickets(uint256,uint256)": "779cea77",
    "eventsContract()": "1ebdc263",
    "eventsModule()": "ae7406d8",
    "factoryContract()": "de11c94a",
    "getEventTickets(uint256)": "ca261ce1",
    "getPurchasedTicketCount(uint256,address)": "0ead8228",
    "getTicket(uint256)": "7dc379fa",
    "getTicketCount()": "21c63a47",
    "initialize(string)": "f62d1888",
    "isApprovedForAll(address,address)": "e985e9c5",
    "isTicketActive(uint256)": "ab37a64f",
    "owner()": "8da5cb5b",
    "pause()": "8456cb59",
    "paused()": "5c975abb",
    "purchaseTicket(uint256,uint256)": "bdbbb0cb",
    "purchasedTicketCounts(uint256,address)": "3f38a99e",
    "renounceOwnership()": "715018a6",
    "safeBatchTransferFrom(address,address,uint256[],uint256[],bytes)": "2eb2c2d6",
    "safeTransferFrom(address,address,uint256,uint256,bytes)": "f242432a",
    "setApprovalForAll(address,bool)": "a22cb465",
    "setContractAddresses(address,address)": "cd931e40",
    "setFactoryAddress(address)": "83c17c55",
    "supportsInterface(bytes4)": "01ffc9a7",
    "tickets(uint256)": "50b44712",
    "transferOwnership(address)": "f2fde38b",
    "unpause()": "3f4ba83a",
    "updateTicket(uint256,string,string,uint256,string,uint256,string[],bool)": "2f9c7365",
    "uri(uint256)": "0e89341c",
    "version()": "54fd4d50"
  },
  "id": 56
}