{
  "abi": [
    {
      "type": "constructor",
      "inputs": [
        {
          "name": "_eventsContract",
          "type": "address",
          "internalType": "address"
        }
      ],
      "stateMutability": "nonpayable"
    },
    {
      "type": "function",
      "name": "activeBuyOrders",
      "inputs": [
        {
          "name": "",
          "type": "uint256",
          "internalType": "uint256"
        },
        {
          "name": "",
          "type": "uint256",
          "internalType": "uint256"
        }
      ],
      "outputs": [
        {
          "name": "",
          "type": "uint256",
          "internalType": "uint256"
        }
      ],
      "stateMutability": "view"
    },
    {
      "type": "function",
      "name": "activeSellOrders",
      "inputs": [
        {
          "name": "",
          "type": "uint256",
          "internalType": "uint256"
        },
        {
          "name": "",
          "type": "uint256",
          "internalType": "uint256"
        }
      ],
      "outputs": [
        {
          "name": "",
          "type": "uint256",
          "internalType": "uint256"
        }
      ],
      "stateMutability": "view"
    },
    {
      "type": "function",
      "name": "bridgeEventDomain",
      "inputs": [
        {
          "name": "eventId",
          "type": "uint256",
          "internalType": "uint256"
        },
        {
          "name": "isSynthetic",
          "type": "bool",
          "internalType": "bool"
        },
        {
          "name": "targetChainId",
          "type": "string",
          "internalType": "string"
        },
        {
          "name": "targetOwnerAddress",
          "type": "string",
          "internalType": "string"
        }
      ],
      "outputs": [],
      "stateMutability": "payable"
    },
    {
      "type": "function",
      "name": "cancelOrder",
      "inputs": [
        {
          "name": "orderId",
          "type": "uint256",
          "internalType": "uint256"
        }
      ],
      "outputs": [],
      "stateMutability": "nonpayable"
    },
    {
      "type": "function",
      "name": "claimEventDomain",
      "inputs": [
        {
          "name": "eventId",
          "type": "uint256",
          "internalType": "uint256"
        },
        {
          "name": "isSynthetic",
          "type": "bool",
          "internalType": "bool"
        },
        {
          "name": "proof",
          "type": "tuple",
          "internalType": "struct IDomaProxy.ProofOfContactsVoucher",
          "components": [
            {
              "name": "registrantHandle",
              "type": "uint256",
              "internalType": "uint256"
            },
            {
              "name": "proofSource",
              "type": "uint8",
              "internalType": "enum IDomaProxy.ProofOfContactsSource"
            },
            {
              "name": "nonce",
              "type": "uint256",
              "internalType": "uint256"
            },
            {
              "name": "expiresAt",
              "type": "uint256",
              "internalType": "uint256"
            }
          ]
        },
        {
          "name": "proofSignature",
          "type": "bytes",
          "internalType": "bytes"
        }
      ],
      "outputs": [],
      "stateMutability": "payable"
    },
    {
      "type": "function",
      "name": "claimRevenue",
      "inputs": [
        {
          "name": "eventId",
          "type": "uint256",
          "internalType": "uint256"
        }
      ],
      "outputs": [],
      "stateMutability": "nonpayable"
    },
    {
      "type": "function",
      "name": "createBuyOrder",
      "inputs": [
        {
          "name": "eventId",
          "type": "uint256",
          "internalType": "uint256"
        },
        {
          "name": "maxPrice",
          "type": "uint256",
          "internalType": "uint256"
        },
        {
          "name": "currency",
          "type": "address",
          "internalType": "address"
        },
        {
          "name": "expirationTime",
          "type": "uint256",
          "internalType": "uint256"
        }
      ],
      "outputs": [],
      "stateMutability": "payable"
    },
    {
      "type": "function",
      "name": "createEventWithTokenization",
      "inputs": [
        {
          "name": "ipfsHash",
          "type": "string",
          "internalType": "string"
        },
        {
          "name": "startTime",
          "type": "uint256",
          "internalType": "uint256"
        },
        {
          "name": "endTime",
          "type": "uint256",
          "internalType": "uint256"
        },
        {
          "name": "maxAttendees",
          "type": "uint256",
          "internalType": "uint256"
        },
        {
          "name": "registrationFee",
          "type": "uint256",
          "internalType": "uint256"
        },
        {
          "name": "voucher",
          "type": "tuple",
          "internalType": "struct IDomaProxy.TokenizationVoucher",
          "components": [
            {
              "name": "names",
              "type": "tuple[]",
              "internalType": "struct IDomaProxy.NameInfo[]",
              "components": [
                {
                  "name": "sld",
                  "type": "string",
                  "internalType": "string"
                },
                {
                  "name": "tld",
                  "type": "string",
                  "internalType": "string"
                }
              ]
            },
            {
              "name": "nonce",
              "type": "uint256",
              "internalType": "uint256"
            },
            {
              "name": "expiresAt",
              "type": "uint256",
              "internalType": "uint256"
            },
            {
              "name": "ownerAddress",
              "type": "address",
              "internalType": "address"
            }
          ]
        },
        {
          "name": "registrarSignature",
          "type": "bytes",
          "internalType": "bytes"
        }
      ],
      "outputs": [
        {
          "name": "",
          "type": "uint256",
          "internalType": "uint256"
        }
      ],
      "stateMutability": "payable"
    },
    {
      "type": "function",
      "name": "createInvestorShareBuyOrder",
      "inputs": [
        {
          "name": "eventId",
          "type": "uint256",
          "internalType": "uint256"
        },
        {
          "name": "shareAmount",
          "type": "uint256",
          "internalType": "uint256"
        },
        {
          "name": "pricePerShare",
          "type": "uint256",
          "internalType": "uint256"
        },
        {
          "name": "currency",
          "type": "address",
          "internalType": "address"
        },
        {
          "name": "expirationTime",
          "type": "uint256",
          "internalType": "uint256"
        }
      ],
      "outputs": [],
      "stateMutability": "payable"
    },
    {
      "type": "function",
      "name": "createInvestorShareSellOrder",
      "inputs": [
        {
          "name": "eventId",
          "type": "uint256",
          "internalType": "uint256"
        },
        {
          "name": "shareAmount",
          "type": "uint256",
          "internalType": "uint256"
        },
        {
          "name": "pricePerShare",
          "type": "uint256",
          "internalType": "uint256"
        },
        {
          "name": "currency",
          "type": "address",
          "internalType": "address"
        },
        {
          "name": "expirationTime",
          "type": "uint256",
          "internalType": "uint256"
        }
      ],
      "outputs": [],
      "stateMutability": "payable"
    },
    {
      "type": "function",
      "name": "createSellOrder",
      "inputs": [
        {
          "name": "eventId",
          "type": "uint256",
          "internalType": "uint256"
        },
        {
          "name": "minPrice",
          "type": "uint256",
          "internalType": "uint256"
        },
        {
          "name": "maxPrice",
          "type": "uint256",
          "internalType": "uint256"
        },
        {
          "name": "currency",
          "type": "address",
          "internalType": "address"
        },
        {
          "name": "expirationTime",
          "type": "uint256",
          "internalType": "uint256"
        }
      ],
      "outputs": [],
      "stateMutability": "payable"
    },
    {
      "type": "function",
      "name": "domaProxy",
      "inputs": [],
      "outputs": [
        {
          "name": "",
          "type": "address",
          "internalType": "address"
        }
      ],
      "stateMutability": "view"
    },
    {
      "type": "function",
      "name": "emergencyWithdraw",
      "inputs": [],
      "outputs": [],
      "stateMutability": "nonpayable"
    },
    {
      "type": "function",
      "name": "emergencyWithdrawToken",
      "inputs": [
        {
          "name": "token",
          "type": "address",
          "internalType": "address"
        }
      ],
      "outputs": [],
      "stateMutability": "nonpayable"
    },
    {
      "type": "function",
      "name": "eventBuyVolume",
      "inputs": [
        {
          "name": "",
          "type": "uint256",
          "internalType": "uint256"
        }
      ],
      "outputs": [
        {
          "name": "",
          "type": "uint256",
          "internalType": "uint256"
        }
      ],
      "stateMutability": "view"
    },
    {
      "type": "function",
      "name": "eventCurrentPrice",
      "inputs": [
        {
          "name": "",
          "type": "uint256",
          "internalType": "uint256"
        }
      ],
      "outputs": [
        {
          "name": "",
          "type": "uint256",
          "internalType": "uint256"
        }
      ],
      "stateMutability": "view"
    },
    {
      "type": "function",
      "name": "eventExistsCheck",
      "inputs": [
        {
          "name": "eventId",
          "type": "uint256",
          "internalType": "uint256"
        }
      ],
      "outputs": [
        {
          "name": "",
          "type": "bool",
          "internalType": "bool"
        }
      ],
      "stateMutability": "view"
    },
    {
      "type": "function",
      "name": "eventInvestors",
      "inputs": [
        {
          "name": "",
          "type": "uint256",
          "internalType": "uint256"
        },
        {
          "name": "",
          "type": "uint256",
          "internalType": "uint256"
        }
      ],
      "outputs": [
        {
          "name": "",
          "type": "address",
          "internalType": "address"
        }
      ],
      "stateMutability": "view"
    },
    {
      "type": "function",
      "name": "eventLastTradingUpdate",
      "inputs": [
        {
          "name": "",
          "type": "uint256",
          "internalType": "uint256"
        }
      ],
      "outputs": [
        {
          "name": "",
          "type": "uint256",
          "internalType": "uint256"
        }
      ],
      "stateMutability": "view"
    },
    {
      "type": "function",
      "name": "eventOrders",
      "inputs": [
        {
          "name": "",
          "type": "uint256",
          "internalType": "uint256"
        },
        {
          "name": "",
          "type": "uint256",
          "internalType": "uint256"
        }
      ],
      "outputs": [
        {
          "name": "",
          "type": "uint256",
          "internalType": "uint256"
        }
      ],
      "stateMutability": "view"
    },
    {
      "type": "function",
      "name": "eventPriceMomentum",
      "inputs": [
        {
          "name": "",
          "type": "uint256",
          "internalType": "uint256"
        }
      ],
      "outputs": [
        {
          "name": "",
          "type": "uint256",
          "internalType": "uint256"
        }
      ],
      "stateMutability": "view"
    },
    {
      "type": "function",
      "name": "eventSellVolume",
      "inputs": [
        {
          "name": "",
          "type": "uint256",
          "internalType": "uint256"
        }
      ],
      "outputs": [
        {
          "name": "",
          "type": "uint256",
          "internalType": "uint256"
        }
      ],
      "stateMutability": "view"
    },
    {
      "type": "function",
      "name": "eventShareBasePrice",
      "inputs": [
        {
          "name": "",
          "type": "uint256",
          "internalType": "uint256"
        }
      ],
      "outputs": [
        {
          "name": "",
          "type": "uint256",
          "internalType": "uint256"
        }
      ],
      "stateMutability": "view"
    },
    {
      "type": "function",
      "name": "eventShareMultiplier",
      "inputs": [
        {
          "name": "",
          "type": "uint256",
          "internalType": "uint256"
        }
      ],
      "outputs": [
        {
          "name": "",
          "type": "uint256",
          "internalType": "uint256"
        }
      ],
      "stateMutability": "view"
    },
    {
      "type": "function",
      "name": "eventShareSupply",
      "inputs": [
        {
          "name": "",
          "type": "uint256",
          "internalType": "uint256"
        }
      ],
      "outputs": [
        {
          "name": "",
          "type": "uint256",
          "internalType": "uint256"
        }
      ],
      "stateMutability": "view"
    },
    {
      "type": "function",
      "name": "eventToDomaStatus",
      "inputs": [
        {
          "name": "",
          "type": "uint256",
          "internalType": "uint256"
        }
      ],
      "outputs": [
        {
          "name": "",
          "type": "uint8",
          "internalType": "uint8"
        }
      ],
      "stateMutability": "view"
    },
    {
      "type": "function",
      "name": "eventToDomaTokenId",
      "inputs": [
        {
          "name": "",
          "type": "uint256",
          "internalType": "uint256"
        }
      ],
      "outputs": [
        {
          "name": "",
          "type": "uint256",
          "internalType": "uint256"
        }
      ],
      "stateMutability": "view"
    },
    {
      "type": "function",
      "name": "eventTotalValue",
      "inputs": [
        {
          "name": "",
          "type": "uint256",
          "internalType": "uint256"
        }
      ],
      "outputs": [
        {
          "name": "",
          "type": "uint256",
          "internalType": "uint256"
        }
      ],
      "stateMutability": "view"
    },
    {
      "type": "function",
      "name": "eventTradingVolume",
      "inputs": [
        {
          "name": "",
          "type": "uint256",
          "internalType": "uint256"
        }
      ],
      "outputs": [
        {
          "name": "",
          "type": "uint256",
          "internalType": "uint256"
        }
      ],
      "stateMutability": "view"
    },
    {
      "type": "function",
      "name": "eventsContract",
      "inputs": [],
      "outputs": [
        {
          "name": "",
          "type": "address",
          "internalType": "contract IEventsV1"
        }
      ],
      "stateMutability": "view"
    },
    {
      "type": "function",
      "name": "feeRecipient",
      "inputs": [],
      "outputs": [
        {
          "name": "",
          "type": "address",
          "internalType": "address"
        }
      ],
      "stateMutability": "view"
    },
    {
      "type": "function",
      "name": "getActiveBuyOrders",
      "inputs": [
        {
          "name": "eventId",
          "type": "uint256",
          "internalType": "uint256"
        }
      ],
      "outputs": [
        {
          "name": "",
          "type": "uint256[]",
          "internalType": "uint256[]"
        }
      ],
      "stateMutability": "view"
    },
    {
      "type": "function",
      "name": "getActiveSellOrders",
      "inputs": [
        {
          "name": "eventId",
          "type": "uint256",
          "internalType": "uint256"
        }
      ],
      "outputs": [
        {
          "name": "",
          "type": "uint256[]",
          "internalType": "uint256[]"
        }
      ],
      "stateMutability": "view"
    },
    {
      "type": "function",
      "name": "getCurrentSharePrice",
      "inputs": [
        {
          "name": "eventId",
          "type": "uint256",
          "internalType": "uint256"
        }
      ],
      "outputs": [
        {
          "name": "",
          "type": "uint256",
          "internalType": "uint256"
        }
      ],
      "stateMutability": "view"
    },
    {
      "type": "function",
      "name": "getDomaStatus",
      "inputs": [
        {
          "name": "eventId",
          "type": "uint256",
          "internalType": "uint256"
        }
      ],
      "outputs": [
        {
          "name": "",
          "type": "uint8",
          "internalType": "uint8"
        }
      ],
      "stateMutability": "view"
    },
    {
      "type": "function",
      "name": "getDomaTokenId",
      "inputs": [
        {
          "name": "eventId",
          "type": "uint256",
          "internalType": "uint256"
        }
      ],
      "outputs": [
        {
          "name": "",
          "type": "uint256",
          "internalType": "uint256"
        }
      ],
      "stateMutability": "view"
    },
    {
      "type": "function",
      "name": "getEvent",
      "inputs": [
        {
          "name": "eventId",
          "type": "uint256",
          "internalType": "uint256"
        }
      ],
      "outputs": [
        {
          "name": "",
          "type": "tuple",
          "internalType": "struct EventTypes.EventData",
          "components": [
            {
              "name": "eventId",
              "type": "uint256",
              "internalType": "uint256"
            },
            {
              "name": "creator",
              "type": "address",
              "internalType": "address"
            },
            {
              "name": "ipfsHash",
              "type": "string",
              "internalType": "string"
            },
            {
              "name": "startTime",
              "type": "uint256",
              "internalType": "uint256"
            },
            {
              "name": "endTime",
              "type": "uint256",
              "internalType": "uint256"
            },
            {
              "name": "maxAttendees",
              "type": "uint256",
              "internalType": "uint256"
            },
            {
              "name": "currentAttendees",
              "type": "uint256",
              "internalType": "uint256"
            },
            {
              "name": "isVIP",
              "type": "bool",
              "internalType": "bool"
            },
            {
              "name": "isActive",
              "type": "bool",
              "internalType": "bool"
            },
            {
              "name": "isLive",
              "type": "bool",
              "internalType": "bool"
            },
            {
              "name": "status",
              "type": "uint8",
              "internalType": "enum EventTypes.EventStatus"
            },
            {
              "name": "createdAt",
              "type": "uint256",
              "internalType": "uint256"
            },
            {
              "name": "updatedAt",
              "type": "uint256",
              "internalType": "uint256"
            }
          ]
        }
      ],
      "stateMutability": "view"
    },
    {
      "type": "function",
      "name": "getEventCreator",
      "inputs": [
        {
          "name": "eventId",
          "type": "uint256",
          "internalType": "uint256"
        }
      ],
      "outputs": [
        {
          "name": "",
          "type": "address",
          "internalType": "address"
        }
      ],
      "stateMutability": "view"
    },
    {
      "type": "function",
      "name": "getEventInvestors",
      "inputs": [
        {
          "name": "eventId",
          "type": "uint256",
          "internalType": "uint256"
        }
      ],
      "outputs": [
        {
          "name": "",
          "type": "address[]",
          "internalType": "address[]"
        }
      ],
      "stateMutability": "view"
    },
    {
      "type": "function",
      "name": "getEventOrders",
      "inputs": [
        {
          "name": "eventId",
          "type": "uint256",
          "internalType": "uint256"
        }
      ],
      "outputs": [
        {
          "name": "",
          "type": "uint256[]",
          "internalType": "uint256[]"
        }
      ],
      "stateMutability": "view"
    },
    {
      "type": "function",
      "name": "getEventStatus",
      "inputs": [
        {
          "name": "eventId",
          "type": "uint256",
          "internalType": "uint256"
        }
      ],
      "outputs": [
        {
          "name": "",
          "type": "uint8",
          "internalType": "enum EventTypes.EventStatus"
        }
      ],
      "stateMutability": "view"
    },
    {
      "type": "function",
      "name": "getInvestorShareBalance",
      "inputs": [
        {
          "name": "eventId",
          "type": "uint256",
          "internalType": "uint256"
        },
        {
          "name": "investor",
          "type": "address",
          "internalType": "address"
        }
      ],
      "outputs": [
        {
          "name": "",
          "type": "uint256",
          "internalType": "uint256"
        }
      ],
      "stateMutability": "view"
    },
    {
      "type": "function",
      "name": "getOrder",
      "inputs": [
        {
          "name": "orderId",
          "type": "uint256",
          "internalType": "uint256"
        }
      ],
      "outputs": [
        {
          "name": "",
          "type": "tuple",
          "internalType": "struct EventTypes.TradingOrder",
          "components": [
            {
              "name": "orderId",
              "type": "uint256",
              "internalType": "uint256"
            },
            {
              "name": "eventId",
              "type": "uint256",
              "internalType": "uint256"
            },
            {
              "name": "creator",
              "type": "address",
              "internalType": "address"
            },
            {
              "name": "counterparty",
              "type": "address",
              "internalType": "address"
            },
            {
              "name": "minPrice",
              "type": "uint256",
              "internalType": "uint256"
            },
            {
              "name": "maxPrice",
              "type": "uint256",
              "internalType": "uint256"
            },
            {
              "name": "filledPrice",
              "type": "uint256",
              "internalType": "uint256"
            },
            {
              "name": "currency",
              "type": "address",
              "internalType": "address"
            },
            {
              "name": "expirationTime",
              "type": "uint256",
              "internalType": "uint256"
            },
            {
              "name": "orderType",
              "type": "uint8",
              "internalType": "enum EventTypes.OrderType"
            },
            {
              "name": "status",
              "type": "uint8",
              "internalType": "enum EventTypes.OrderStatus"
            },
            {
              "name": "tradingType",
              "type": "uint8",
              "internalType": "enum EventTypes.TradingType"
            },
            {
              "name": "shareAmount",
              "type": "uint256",
              "internalType": "uint256"
            },
            {
              "name": "pricePerShare",
              "type": "uint256",
              "internalType": "uint256"
            },
            {
              "name": "createdAt",
              "type": "uint256",
              "internalType": "uint256"
            },
            {
              "name": "updatedAt",
              "type": "uint256",
              "internalType": "uint256"
            },
            {
              "name": "filledAt",
              "type": "uint256",
              "internalType": "uint256"
            }
          ]
        }
      ],
      "stateMutability": "view"
    },
    {
      "type": "function",
      "name": "getPricingInfo",
      "inputs": [
        {
          "name": "eventId",
          "type": "uint256",
          "internalType": "uint256"
        }
      ],
      "outputs": [
        {
          "name": "basePrice",
          "type": "uint256",
          "internalType": "uint256"
        },
        {
          "name": "currentMultiplier",
          "type": "uint256",
          "internalType": "uint256"
        },
        {
          "name": "currentPrice",
          "type": "uint256",
          "internalType": "uint256"
        },
        {
          "name": "totalValue",
          "type": "uint256",
          "internalType": "uint256"
        },
        {
          "name": "shareSupply",
          "type": "uint256",
          "internalType": "uint256"
        }
      ],
      "stateMutability": "view"
    },
    {
      "type": "function",
      "name": "getRevenueAccrued",
      "inputs": [
        {
          "name": "eventId",
          "type": "uint256",
          "internalType": "uint256"
        }
      ],
      "outputs": [
        {
          "name": "",
          "type": "uint256",
          "internalType": "uint256"
        }
      ],
      "stateMutability": "view"
    },
    {
      "type": "function",
      "name": "getRevenueClaimed",
      "inputs": [
        {
          "name": "eventId",
          "type": "uint256",
          "internalType": "uint256"
        },
        {
          "name": "investor",
          "type": "address",
          "internalType": "address"
        }
      ],
      "outputs": [
        {
          "name": "",
          "type": "uint256",
          "internalType": "uint256"
        }
      ],
      "stateMutability": "view"
    },
    {
      "type": "function",
      "name": "getTotalInvested",
      "inputs": [
        {
          "name": "eventId",
          "type": "uint256",
          "internalType": "uint256"
        }
      ],
      "outputs": [
        {
          "name": "",
          "type": "uint256",
          "internalType": "uint256"
        }
      ],
      "stateMutability": "view"
    },
    {
      "type": "function",
      "name": "getTradingInfo",
      "inputs": [
        {
          "name": "eventId",
          "type": "uint256",
          "internalType": "uint256"
        }
      ],
      "outputs": [
        {
          "name": "totalVolume",
          "type": "uint256",
          "internalType": "uint256"
        },
        {
          "name": "buyVolume",
          "type": "uint256",
          "internalType": "uint256"
        },
        {
          "name": "sellVolume",
          "type": "uint256",
          "internalType": "uint256"
        },
        {
          "name": "momentumFactor",
          "type": "uint256",
          "internalType": "uint256"
        },
        {
          "name": "buyRatio",
          "type": "uint256",
          "internalType": "uint256"
        },
        {
          "name": "sellRatio",
          "type": "uint256",
          "internalType": "uint256"
        }
      ],
      "stateMutability": "view"
    },
    {
      "type": "function",
      "name": "getUserOrders",
      "inputs": [
        {
          "name": "user",
          "type": "address",
          "internalType": "address"
        }
      ],
      "outputs": [
        {
          "name": "",
          "type": "uint256[]",
          "internalType": "uint256[]"
        }
      ],
      "stateMutability": "view"
    },
    {
      "type": "function",
      "name": "initializeDynamicPricing",
      "inputs": [
        {
          "name": "eventId",
          "type": "uint256",
          "internalType": "uint256"
        },
        {
          "name": "basePricePerShare",
          "type": "uint256",
          "internalType": "uint256"
        }
      ],
      "outputs": [],
      "stateMutability": "nonpayable"
    },
    {
      "type": "function",
      "name": "investInEvent",
      "inputs": [
        {
          "name": "eventId",
          "type": "uint256",
          "internalType": "uint256"
        }
      ],
      "outputs": [],
      "stateMutability": "payable"
    },
    {
      "type": "function",
      "name": "investorBps",
      "inputs": [],
      "outputs": [
        {
          "name": "",
          "type": "uint256",
          "internalType": "uint256"
        }
      ],
      "stateMutability": "view"
    },
    {
      "type": "function",
      "name": "investorShares",
      "inputs": [
        {
          "name": "",
          "type": "uint256",
          "internalType": "uint256"
        },
        {
          "name": "",
          "type": "address",
          "internalType": "address"
        }
      ],
      "outputs": [
        {
          "name": "",
          "type": "uint256",
          "internalType": "uint256"
        }
      ],
      "stateMutability": "view"
    },
    {
      "type": "function",
      "name": "isEventInvestor",
      "inputs": [
        {
          "name": "",
          "type": "uint256",
          "internalType": "uint256"
        },
        {
          "name": "",
          "type": "address",
          "internalType": "address"
        }
      ],
      "outputs": [
        {
          "name": "",
          "type": "bool",
          "internalType": "bool"
        }
      ],
      "stateMutability": "view"
    },
    {
      "type": "function",
      "name": "isInvestor",
      "inputs": [
        {
          "name": "eventId",
          "type": "uint256",
          "internalType": "uint256"
        },
        {
          "name": "investor",
          "type": "address",
          "internalType": "address"
        }
      ],
      "outputs": [
        {
          "name": "",
          "type": "bool",
          "internalType": "bool"
        }
      ],
      "stateMutability": "view"
    },
    {
      "type": "function",
      "name": "lastPriceUpdate",
      "inputs": [
        {
          "name": "",
          "type": "uint256",
          "internalType": "uint256"
        }
      ],
      "outputs": [
        {
          "name": "",
          "type": "uint256",
          "internalType": "uint256"
        }
      ],
      "stateMutability": "view"
    },
    {
      "type": "function",
      "name": "maxOrderValue",
      "inputs": [],
      "outputs": [
        {
          "name": "",
          "type": "uint256",
          "internalType": "uint256"
        }
      ],
      "stateMutability": "view"
    },
    {
      "type": "function",
      "name": "maxRegistrationFee",
      "inputs": [],
      "outputs": [
        {
          "name": "",
          "type": "uint256",
          "internalType": "uint256"
        }
      ],
      "stateMutability": "view"
    },
    {
      "type": "function",
      "name": "minOrderValue",
      "inputs": [],
      "outputs": [
        {
          "name": "",
          "type": "uint256",
          "internalType": "uint256"
        }
      ],
      "stateMutability": "view"
    },
    {
      "type": "function",
      "name": "minRegistrationFee",
      "inputs": [],
      "outputs": [
        {
          "name": "",
          "type": "uint256",
          "internalType": "uint256"
        }
      ],
      "stateMutability": "view"
    },
    {
      "type": "function",
      "name": "orderExpirationTime",
      "inputs": [],
      "outputs": [
        {
          "name": "",
          "type": "uint256",
          "internalType": "uint256"
        }
      ],
      "stateMutability": "view"
    },
    {
      "type": "function",
      "name": "orders",
      "inputs": [
        {
          "name": "",
          "type": "uint256",
          "internalType": "uint256"
        }
      ],
      "outputs": [
        {
          "name": "orderId",
          "type": "uint256",
          "internalType": "uint256"
        },
        {
          "name": "eventId",
          "type": "uint256",
          "internalType": "uint256"
        },
        {
          "name": "creator",
          "type": "address",
          "internalType": "address"
        },
        {
          "name": "counterparty",
          "type": "address",
          "internalType": "address"
        },
        {
          "name": "minPrice",
          "type": "uint256",
          "internalType": "uint256"
        },
        {
          "name": "maxPrice",
          "type": "uint256",
          "internalType": "uint256"
        },
        {
          "name": "filledPrice",
          "type": "uint256",
          "internalType": "uint256"
        },
        {
          "name": "currency",
          "type": "address",
          "internalType": "address"
        },
        {
          "name": "expirationTime",
          "type": "uint256",
          "internalType": "uint256"
        },
        {
          "name": "orderType",
          "type": "uint8",
          "internalType": "enum EventTypes.OrderType"
        },
        {
          "name": "status",
          "type": "uint8",
          "internalType": "enum EventTypes.OrderStatus"
        },
        {
          "name": "tradingType",
          "type": "uint8",
          "internalType": "enum EventTypes.TradingType"
        },
        {
          "name": "shareAmount",
          "type": "uint256",
          "internalType": "uint256"
        },
        {
          "name": "pricePerShare",
          "type": "uint256",
          "internalType": "uint256"
        },
        {
          "name": "createdAt",
          "type": "uint256",
          "internalType": "uint256"
        },
        {
          "name": "updatedAt",
          "type": "uint256",
          "internalType": "uint256"
        },
        {
          "name": "filledAt",
          "type": "uint256",
          "internalType": "uint256"
        }
      ],
      "stateMutability": "view"
    },
    {
      "type": "function",
      "name": "owner",
      "inputs": [],
      "outputs": [
        {
          "name": "",
          "type": "address",
          "internalType": "address"
        }
      ],
      "stateMutability": "view"
    },
    {
      "type": "function",
      "name": "ownershipToken",
      "inputs": [],
      "outputs": [
        {
          "name": "",
          "type": "address",
          "internalType": "address"
        }
      ],
      "stateMutability": "view"
    },
    {
      "type": "function",
      "name": "platformFee",
      "inputs": [],
      "outputs": [
        {
          "name": "",
          "type": "uint256",
          "internalType": "uint256"
        }
      ],
      "stateMutability": "view"
    },
    {
      "type": "function",
      "name": "registerForEventWithRevenuePool",
      "inputs": [
        {
          "name": "eventId",
          "type": "uint256",
          "internalType": "uint256"
        }
      ],
      "outputs": [],
      "stateMutability": "payable"
    },
    {
      "type": "function",
      "name": "renounceOwnership",
      "inputs": [],
      "outputs": [],
      "stateMutability": "nonpayable"
    },
    {
      "type": "function",
      "name": "revenueAccrued",
      "inputs": [
        {
          "name": "",
          "type": "uint256",
          "internalType": "uint256"
        }
      ],
      "outputs": [
        {
          "name": "",
          "type": "uint256",
          "internalType": "uint256"
        }
      ],
      "stateMutability": "view"
    },
    {
      "type": "function",
      "name": "revenueClaimed",
      "inputs": [
        {
          "name": "",
          "type": "uint256",
          "internalType": "uint256"
        },
        {
          "name": "",
          "type": "address",
          "internalType": "address"
        }
      ],
      "outputs": [
        {
          "name": "",
          "type": "uint256",
          "internalType": "uint256"
        }
      ],
      "stateMutability": "view"
    },
    {
      "type": "function",
      "name": "setDomaProxy",
      "inputs": [
        {
          "name": "_domaProxy",
          "type": "address",
          "internalType": "address"
        }
      ],
      "outputs": [],
      "stateMutability": "nonpayable"
    },
    {
      "type": "function",
      "name": "setDomaTokenId",
      "inputs": [
        {
          "name": "eventId",
          "type": "uint256",
          "internalType": "uint256"
        },
        {
          "name": "tokenId",
          "type": "uint256",
          "internalType": "uint256"
        }
      ],
      "outputs": [],
      "stateMutability": "nonpayable"
    },
    {
      "type": "function",
      "name": "setEventsContract",
      "inputs": [
        {
          "name": "_eventsContract",
          "type": "address",
          "internalType": "address"
        }
      ],
      "outputs": [],
      "stateMutability": "nonpayable"
    },
    {
      "type": "function",
      "name": "setFeeRecipient",
      "inputs": [
        {
          "name": "_feeRecipient",
          "type": "address",
          "internalType": "address"
        }
      ],
      "outputs": [],
      "stateMutability": "nonpayable"
    },
    {
      "type": "function",
      "name": "setOrderExpirationTime",
      "inputs": [
        {
          "name": "_expirationTime",
          "type": "uint256",
          "internalType": "uint256"
        }
      ],
      "outputs": [],
      "stateMutability": "nonpayable"
    },
    {
      "type": "function",
      "name": "setOrderValueLimits",
      "inputs": [
        {
          "name": "_minOrderValue",
          "type": "uint256",
          "internalType": "uint256"
        },
        {
          "name": "_maxOrderValue",
          "type": "uint256",
          "internalType": "uint256"
        }
      ],
      "outputs": [],
      "stateMutability": "nonpayable"
    },
    {
      "type": "function",
      "name": "setOwnershipToken",
      "inputs": [
        {
          "name": "_ownershipToken",
          "type": "address",
          "internalType": "address"
        }
      ],
      "outputs": [],
      "stateMutability": "nonpayable"
    },
    {
      "type": "function",
      "name": "setTradingFee",
      "inputs": [
        {
          "name": "_tradingFeeBps",
          "type": "uint256",
          "internalType": "uint256"
        }
      ],
      "outputs": [],
      "stateMutability": "nonpayable"
    },
    {
      "type": "function",
      "name": "tipDomainOwner",
      "inputs": [
        {
          "name": "eventId",
          "type": "uint256",
          "internalType": "uint256"
        }
      ],
      "outputs": [],
      "stateMutability": "payable"
    },
    {
      "type": "function",
      "name": "totalInvested",
      "inputs": [
        {
          "name": "",
          "type": "uint256",
          "internalType": "uint256"
        }
      ],
      "outputs": [
        {
          "name": "",
          "type": "uint256",
          "internalType": "uint256"
        }
      ],
      "stateMutability": "view"
    },
    {
      "type": "function",
      "name": "tradingFeeBps",
      "inputs": [],
      "outputs": [
        {
          "name": "",
          "type": "uint256",
          "internalType": "uint256"
        }
      ],
      "stateMutability": "view"
    },
    {
      "type": "function",
      "name": "transferOwnership",
      "inputs": [
        {
          "name": "newOwner",
          "type": "address",
          "internalType": "address"
        }
      ],
      "outputs": [],
      "stateMutability": "nonpayable"
    },
    {
      "type": "function",
      "name": "updateEventTotalValue",
      "inputs": [
        {
          "name": "eventId",
          "type": "uint256",
          "internalType": "uint256"
        },
        {
          "name": "newTotalValue",
          "type": "uint256",
          "internalType": "uint256"
        }
      ],
      "outputs": [],
      "stateMutability": "nonpayable"
    },
    {
      "type": "function",
      "name": "updateOrder",
      "inputs": [
        {
          "name": "orderId",
          "type": "uint256",
          "internalType": "uint256"
        },
        {
          "name": "newMinPrice",
          "type": "uint256",
          "internalType": "uint256"
        },
        {
          "name": "newMaxPrice",
          "type": "uint256",
          "internalType": "uint256"
        },
        {
          "name": "newExpirationTime",
          "type": "uint256",
          "internalType": "uint256"
        }
      ],
      "outputs": [],
      "stateMutability": "nonpayable"
    },
    {
      "type": "function",
      "name": "userOrders",
      "inputs": [
        {
          "name": "",
          "type": "address",
          "internalType": "address"
        },
        {
          "name": "",
          "type": "uint256",
          "internalType": "uint256"
        }
      ],
      "outputs": [
        {
          "name": "",
          "type": "uint256",
          "internalType": "uint256"
        }
      ],
      "stateMutability": "view"
    },
    {
      "type": "event",
      "name": "AttendeeRegistered",
      "inputs": [
        {
          "name": "eventId",
          "type": "uint256",
          "indexed": true,
          "internalType": "uint256"
        },
        {
          "name": "attendee",
          "type": "address",
          "indexed": true,
          "internalType": "address"
        },
        {
          "name": "confirmationCode",
          "type": "string",
          "indexed": false,
          "internalType": "string"
        },
        {
          "name": "fee",
          "type": "uint256",
          "indexed": false,
          "internalType": "uint256"
        }
      ],
      "anonymous": false
    },
    {
      "type": "event",
      "name": "DomaBridged",
      "inputs": [
        {
          "name": "eventId",
          "type": "uint256",
          "indexed": true,
          "internalType": "uint256"
        },
        {
          "name": "targetChainId",
          "type": "string",
          "indexed": false,
          "internalType": "string"
        },
        {
          "name": "targetOwnerAddress",
          "type": "string",
          "indexed": false,
          "internalType": "string"
        }
      ],
      "anonymous": false
    },
    {
      "type": "event",
      "name": "DomaProxyUpdated",
      "inputs": [
        {
          "name": "oldProxy",
          "type": "address",
          "indexed": false,
          "internalType": "address"
        },
        {
          "name": "newProxy",
          "type": "address",
          "indexed": false,
          "internalType": "address"
        }
      ],
      "anonymous": false
    },
    {
      "type": "event",
      "name": "DomaRequested",
      "inputs": [
        {
          "name": "eventId",
          "type": "uint256",
          "indexed": true,
          "internalType": "uint256"
        },
        {
          "name": "tokenId",
          "type": "uint256",
          "indexed": false,
          "internalType": "uint256"
        }
      ],
      "anonymous": false
    },
    {
      "type": "event",
      "name": "EventsContractUpdated",
      "inputs": [
        {
          "name": "oldContract",
          "type": "address",
          "indexed": false,
          "internalType": "address"
        },
        {
          "name": "newContract",
          "type": "address",
          "indexed": false,
          "internalType": "address"
        }
      ],
      "anonymous": false
    },
    {
      "type": "event",
      "name": "InvestorSharePriceUpdated",
      "inputs": [
        {
          "name": "eventId",
          "type": "uint256",
          "indexed": true,
          "internalType": "uint256"
        },
        {
          "name": "oldPrice",
          "type": "uint256",
          "indexed": false,
          "internalType": "uint256"
        },
        {
          "name": "newPrice",
          "type": "uint256",
          "indexed": false,
          "internalType": "uint256"
        },
        {
          "name": "currency",
          "type": "address",
          "indexed": false,
          "internalType": "address"
        }
      ],
      "anonymous": false
    },
    {
      "type": "event",
      "name": "OrderCancelled",
      "inputs": [
        {
          "name": "orderId",
          "type": "uint256",
          "indexed": true,
          "internalType": "uint256"
        }
      ],
      "anonymous": false
    },
    {
      "type": "event",
      "name": "OrderCreated",
      "inputs": [
        {
          "name": "orderId",
          "type": "uint256",
          "indexed": true,
          "internalType": "uint256"
        },
        {
          "name": "eventId",
          "type": "uint256",
          "indexed": true,
          "internalType": "uint256"
        },
        {
          "name": "creator",
          "type": "address",
          "indexed": true,
          "internalType": "address"
        },
        {
          "name": "orderType",
          "type": "uint8",
          "indexed": false,
          "internalType": "enum EventTypes.OrderType"
        }
      ],
      "anonymous": false
    },
    {
      "type": "event",
      "name": "OrderExpirationTimeUpdated",
      "inputs": [
        {
          "name": "oldExpiration",
          "type": "uint256",
          "indexed": false,
          "internalType": "uint256"
        },
        {
          "name": "newExpiration",
          "type": "uint256",
          "indexed": false,
          "internalType": "uint256"
        }
      ],
      "anonymous": false
    },
    {
      "type": "event",
      "name": "OrderUpdated",
      "inputs": [
        {
          "name": "orderId",
          "type": "uint256",
          "indexed": true,
          "internalType": "uint256"
        },
        {
          "name": "newMinPrice",
          "type": "uint256",
          "indexed": false,
          "internalType": "uint256"
        },
        {
          "name": "newMaxPrice",
          "type": "uint256",
          "indexed": false,
          "internalType": "uint256"
        },
        {
          "name": "newExpirationTime",
          "type": "uint256",
          "indexed": false,
          "internalType": "uint256"
        }
      ],
      "anonymous": false
    },
    {
      "type": "event",
      "name": "OrderValueLimitsUpdated",
      "inputs": [
        {
          "name": "minOrderValue",
          "type": "uint256",
          "indexed": false,
          "internalType": "uint256"
        },
        {
          "name": "maxOrderValue",
          "type": "uint256",
          "indexed": false,
          "internalType": "uint256"
        }
      ],
      "anonymous": false
    },
    {
      "type": "event",
      "name": "OwnershipTokenUpdated",
      "inputs": [
        {
          "name": "oldToken",
          "type": "address",
          "indexed": false,
          "internalType": "address"
        },
        {
          "name": "newToken",
          "type": "address",
          "indexed": false,
          "internalType": "address"
        }
      ],
      "anonymous": false
    },
    {
      "type": "event",
      "name": "OwnershipTransferred",
      "inputs": [
        {
          "name": "previousOwner",
          "type": "address",
          "indexed": true,
          "internalType": "address"
        },
        {
          "name": "newOwner",
          "type": "address",
          "indexed": true,
          "internalType": "address"
        }
      ],
      "anonymous": false
    },
    {
      "type": "event",
      "name": "RevenueClaimed",
      "inputs": [
        {
          "name": "eventId",
          "type": "uint256",
          "indexed": true,
          "internalType": "uint256"
        },
        {
          "name": "investor",
          "type": "address",
          "indexed": true,
          "internalType": "address"
        },
        {
          "name": "amount",
          "type": "uint256",
          "indexed": false,
          "internalType": "uint256"
        }
      ],
      "anonymous": false
    },
    {
      "type": "event",
      "name": "TradeExecuted",
      "inputs": [
        {
          "name": "orderId",
          "type": "uint256",
          "indexed": true,
          "internalType": "uint256"
        },
        {
          "name": "buyer",
          "type": "address",
          "indexed": true,
          "internalType": "address"
        },
        {
          "name": "seller",
          "type": "address",
          "indexed": true,
          "internalType": "address"
        },
        {
          "name": "price",
          "type": "uint256",
          "indexed": false,
          "internalType": "uint256"
        }
      ],
      "anonymous": false
    },
    {
      "type": "event",
      "name": "TradingFeeUpdated",
      "inputs": [
        {
          "name": "oldFee",
          "type": "uint256",
          "indexed": false,
          "internalType": "uint256"
        },
        {
          "name": "newFee",
          "type": "uint256",
          "indexed": false,
          "internalType": "uint256"
        }
      ],
      "anonymous": false
    },
    {
      "type": "error",
      "name": "OwnableInvalidOwner",
      "inputs": [
        {
          "name": "owner",
          "type": "address",
          "internalType": "address"
        }
      ]
    },
    {
      "type": "error",
      "name": "OwnableUnauthorizedAccount",
      "inputs": [
        {
          "name": "account",
          "type": "address",
          "internalType": "address"
        }
      ]
    },
    {
      "type": "error",
      "name": "ReentrancyGuardReentrantCall",
      "inputs": []
    },
    {
      "type": "error",
      "name": "StringsInsufficientHexLength",
      "inputs": [
        {
          "name": "value",
          "type": "uint256",
          "internalType": "uint256"
        },
        {
          "name": "length",
          "type": "uint256",
          "internalType": "uint256"
        }
      ]
    }
  ],
  "bytecode": {
    "object": "0x6080346200015d57601f62004c7338819003918201601f19168301916001600160401b0383118484101762000161578084926020946040528339810103126200015d57516001600160a01b03808216918290036200015d5760015f553315620001455760018054336001600160a01b0319808316821790935560405192939091167f8be0079c531659141344cd1fd0a4f28419497f9722a3daafe3b4186f6b6457e05f80a360fa600e55611388600f5566038d7ea4c6800080601055670de0b6b3a76400006011556064602355602455683635c9adc5dea0000060255562093a8060265582156200010357506002541617600255604051614afd9081620001768239f35b62461bcd60e51b815260206004820152601760248201527f696e76616c6964206576656e747320636f6e74726163740000000000000000006044820152606490fd5b604051631e4fbdf760e01b81525f6004820152602490fd5b5f80fd5b634e487b7160e01b5f52604160045260245ffdfe60806040526004361015610011575f80fd5b5f803560e01c806309aeb7a6146140cc5780630a2dcda6146140555780630c7cd08d1461402b5780630ce4abf81461400e578063105d17bd14613fe4578063135a775214613e035780631af0320314613c8f5780631c4e3cdb14613bdd5780631cb536ed14613a2e5780631ebdc26314613a0657806322c26ea8146139d75780632534a370146139ba57806326232a2e1461399d5780633557455a146139735780633dcec13e146138e05780633e0d2d9e146138c35780633f8a30ea146137c35780634365adbb1461379657806343c673491461370957806346904840146136e157806346e98a99146136ba57806348d0797c14613331578063514fcac714613289578063563ad15c1461325f57806357e617351461321b5780635aa553241461309f5780635f0bfe8814612cd357806360ad16c914612b0b57806363c69f0814612c5d578063652019e914612bcd578063677853e914612b50578063684da41314612b0b5780636c7f0d4e14612a8f5780636d1884e0146129145780636e593210146128ac5780636ef67e8014612882578063715018a61461282557806373b35537146127fb57806374c21059146110b357806379aa668d146127245780637b3d9af7146126fb5780637b503662146121d357806382d7fbc8146126d257806383ecdf64146126a8578063856652e91461266057806385f3d77a14610f8e5780638a3a90a3146126365780638da5cb5b1461260d57806391740f5d14612571578063924cca9a146125535780639577fcbb146123395780639706828a1461231b5780639a82a164146122d65780639e2c8ff1146122b85780639e474028146121fd578063a28b7c63146121d3578063a85c38ef146120b4578063ae18313714611f47578063aeb6860a14611cf8578063b0d54bcf14611c64578063b974a85614611c3a578063bfa337e414611a29578063c203f40e1461161e578063c93e8b15146115ba578063cb30e89914611542578063cc4999ea14611486578063cdef472014611459578063cefdb8b614611356578063cf00bf0f14610f44578063d09ef241146110dd578063d2ccac17146110b3578063dabd610514611068578063db2e21bc14610fb8578063de173bec14610f8e578063df44212214610f44578063e37b55bb14610f1a578063e6d05b9314610efc578063e74b981b14610ebc578063ebc344c714610b4a578063ef7c824a14610b0a578063f2fde38b14610a80578063f4f7ae5d14610409578063fab7e619146103e25763fb5547d1146103b6575f80fd5b346103df5760203660031901126103df5760406020916004358152601383522054604051908152f35b80fd5b50346103df5760203660031901126103df5760206104016004356148aa565b604051908152f35b5060203660031901126103df576002546040516343c6734960e01b815260048035908201526001600160a01b0390911690602081602481855afa8015610a36578390610a41575b61045a91506142f8565b604051630368c42760e51b815260048035908201528281602481855afa908115610a36578391610a14575b506101408101516005811015610a00576001036109d0578291600435807a184f03e93ff9f4daa797ed6e38ed64bf6a1f010000000000000000808210156109c0575b506d04ee2d6d415b85acef8100000000808310156109b1575b50662386f26fc10000808310156109a2575b506305f5e10080831015610993575b50612710821015610982575b6064821015610972575b600a80921015610968575b816021600187019661054c610536896141fc565b986105446040519a8b6141db565b808a526141fc565b601f19013660208a01378701015b5f1901916f181899199a1a9b1b9c1cb0b131b232b360811b8282061a83530490811561058757829061055a565b505050339260405193606085018581106001600160401b0382111761095457604052602a855260403660208701378451156109405760306020860153845160011015610940576078602186015360295b600181116108bc575061089d578491610643602860209360405197889166524556454e542d60c81b87840152610616815180928960278701910161427f565b8201602d60f81b60278201526106348251809389878501910161427f565b010360088101885201866141db565b6064604051809481936379b4ea9b60e01b83526004356004840152604060248401528160448401525af1801561089257610863575b50612710610688600e54346144b8565b04908361069583346144fd565b92806107dd575b50906106b86127106106b0600f54866144b8565b0480946144fd565b9060043583526008602052604083206106d285825461481c565b90558161076c575b5050506106f59060043584526014602052604084205461481c565b6004358352601460205260408320556012602052604082205461075c575b610728604051916040835260408301906142a0565b3460208301527f50a66f58e3c04661cc764c0692092695975f2812249497c4f65b843ee5f1b59a339280600435930390a380f35b61076760043561495d565b610713565b60200151829182918291906001600160a01b03165af161078a61450a565b501561079857825f806106da565b60405162461bcd60e51b815260206004820152601760248201527f63726561746f72207472616e73666572206661696c65640000000000000000006044820152606490fd5b600554829182918291906001600160a01b03168061085e57506001546001600160a01b03165b6001600160a01b03165af161081661450a565b501561082357835f61069c565b60405162461bcd60e51b8152602060048201526013602482015272199959481d1c985b9cd9995c8819985a5b1959606a1b6044820152606490fd5b610803565b602090813d831161088b575b61087981836141db565b81010312610887575f610678565b5f80fd5b503d61086f565b6040513d86823e3d90fd5b60405163e22e27eb60e01b815233600482015260146024820152604490fd5b906010600f8216101561092c578551821015610918576f181899199a1a9b1b9c1cb0b131b232b360811b600f82161a8683016020015360041c908015610904575f19016105d7565b634e487b7160e01b87526011600452602487fd5b634e487b7160e01b5f52603260045260245ffd5b634e487b7160e01b87526032600452602487fd5b634e487b7160e01b86526032600452602486fd5b634e487b7160e01b5f52604160045260245ffd5b9360010193610522565b9390606460029104910193610517565b93906127106004910491019361050d565b6008919592049101935f610501565b6010919592049101935f6104f2565b6020919592049101935f6104e0565b604095506004350491505f6104c7565b60405162461bcd60e51b81526020600482015260086024820152673737ba1037b832b760c11b6044820152606490fd5b634e487b7160e01b84526021600452602484fd5b610a3091503d8085833e610a2881836141db565b81019061434f565b5f610485565b6040513d85823e3d90fd5b506020813d602011610a78575b81610a5b602093836141db565b81010312610a7457610a6f61045a916142eb565b610450565b8280fd5b3d9150610a4e565b50346103df5760203660031901126103df57610a9a614125565b610aa26148dc565b6001600160a01b03908116908115610af157600154826001600160601b0360a01b821617600155167f8be0079c531659141344cd1fd0a4f28419497f9722a3daafe3b4186f6b6457e05f80a380f35b604051631e4fbdf760e01b815260048101849052602490fd5b50346103df57610b19366140fa565b919081526021602052604081209081548310156103df576020610b3c8484614110565b90546040519160031b1c8152f35b5060803660031901126103df576044356001600160a01b03811690600435906024359083900361088757606435610b7f614908565b6002546040516343c6734960e01b81526004810185905290602090829060249082906001600160a01b03165afa8015610eb1578690610e72575b610bc391506142f8565b610bd1602454831015614632565b610bdf60255483111561466e565b8015808015610e69575b610bf2906146ab565b8415610e58575b15610e535750610c0b6026544261481c565b6001601c54019384601c5560405192610c23846141bf565b8584528460208501523360408501525f60608501525f608085015260a08401525f60c084015260e08301526101008201525f6101208201525f6101408201525f6101608201525f6101808201525f6101a0820152426101c0820152426101e08201525f610200820152825f52601d60205260405f209080518255602081015160018301556002820160018060a01b03604083015116906001600160601b0360a01b91828254161790556003830160018060a01b03606084015116828254161790556080820151600484015560a0820151600584015560c08201516006840155600783019060018060a01b0360e0840151169082541617905561010081015160088301556009820190610120810151610d3a816142d4565b610d43816142d4565b60ff80198454169116178255610140810151906004821015610e3f5782610d6f61020093600e9561476b565b610160820151610d7e816142d4565b610d87816142d4565b62ff000082549160101b169062ff00001916179055610180810151600a8501556101a0810151600b8501556101c0810151600c8501556101e0810151600d8501550151910155805f52601e602052610de28260405f20614929565b335f52601f602052610df78260405f20614929565b805f5260208052610e0b8260405f20614929565b604051915f83527f0d0646cea9ae4d1a5e552b33474e69239d70712f3d776f54e7416ab7da3ff15e60203394a46001815580f35b634e487b7160e01b5f52602160045260245ffd5b610c0b565b610e6483341015614829565b610bf9565b50428211610be9565b506020813d602011610ea9575b81610e8c602093836141db565b81010312610ea557610ea0610bc3916142eb565b610bb9565b8580fd5b3d9150610e7f565b6040513d88823e3d90fd5b50346103df5760203660031901126103df57610ed6614125565b610ede6148dc565b60018060a01b03166001600160601b0360a01b600554161760055580f35b50346103df57806003193601126103df576020602654604051908152f35b50346103df5760203660031901126103df5760406020916004358152601783522054604051908152f35b50346103df5760403660031901126103df576040610f6061413b565b916004358152600b602052209060018060a01b03165f52602052602060ff60405f2054166040519015158152f35b50346103df5760203660031901126103df5760406020916004358152600883522054604051908152f35b50346103df57806003193601126103df57610fd16148dc565b4780156110365760015482918291829182916001600160a01b03165af1610ff661450a565b5015610fff5780f35b60405162461bcd60e51b815260206004820152600f60248201526e1dda5d1a191c985dc819985a5b1959608a1b6044820152606490fd5b60405162461bcd60e51b815260206004820152600a6024820152696e6f2062616c616e636560b01b6044820152606490fd5b50346103df57611077366140fa565b91908152600a602052604081209081548310156103df57602061109a8484614110565b905460405160039290921b1c6001600160a01b03168152f35b50346103df5760203660031901126103df5760406020916004358152600683522054604051908152f35b50346103df5760203660031901126103df57806040916102008351611101816141bf565b82815282602082015282858201528260608201528260808201528260a08201528260c08201528260e08201528261010082015282610120820152826101408201528261016082015282610180820152826101a0820152826101c0820152826101e082015201526004358152601d6020522060405161117e816141bf565b815481526001820154602082015260028201546001600160a01b03908116604083015260038301548116606083015260048301546080830152600583015460a0830152600683015460c083015260078301541660e08201526008820154610100820152600982015460ff81166111f3816142d4565b610120830152600460ff8260081c161015610e3f576102209260ff8281600e9460081c1661014086015261122b828260101c166142d4565b60101c16610160840152600a810154610180840152600b8101546101a0840152600c8101546101c0840152600d8101546101e0840152015461020082015261020060405191805183526020810151602084015260018060a01b03604082015116604084015260018060a01b0360608201511660608401526080810151608084015260a081015160a084015260c081015160c084015260018060a01b0360e08201511660e08401526101008101516101008401526101208101516112ed816142d4565b6101208401526113076101408201516101408501906142de565b610160810151611316816142d4565b6101608401526101808101516101808401526101a08101516101a08401526101c08101516101c08401526101e08101516101e08401520151610200820152f35b50346103df5760803660031901126103df5760043560243560443560643590838552601d60205261139760018060a01b0360026040882001541633146146ec565b838552601d60205260ff600960408720015460081c16600481101561144557917fc09b83a84e12d34205843b66304e0c22f1ce62c86672c3446b0a06d9b057d17993916113e66060941561472c565b6113f281841115614868565b8115801561143c575b611404906146ab565b858752601d60205260408720836004820155816005820155826008820155600d4291015560405192835260208301526040820152a280f35b504282116113fb565b634e487b7160e01b86526021600452602486fd5b50346103df5760203660031901126103df5760ff60406020926004358152600d8452205416604051908152f35b50346103df5760208060031936011261153e57600435825260178152604082205490601881526040832054601982526040842054601b83526040852054908415155f1461152f576127109283810281810485148215171561151b57866114eb916144df565b9384810390811161151b5760c09750945b60405196875286015260408501526060840152608083015260a0820152f35b634e487b7160e01b88526011600452602488fd5b60c095506113889283946114fc565b5080fd5b50346103df5760208060031936011261153e576004358252601e602052604082209160405180926020855492838152019483526020832092905b8282106115a35761159f85611593818903826141db565b60405191829182614244565b0390f35b83548652948501946001938401939091019061157c565b50346103df5760208060031936011261153e57600435825280805260408220916040518092808554928381520194835280832092905b8282106116075761159f85611593818903826141db565b8354865294850194600193840193909101906115f0565b506116283661415e565b61163494939294614908565b6002546040516343c6734960e01b81526004810186905290602090829060249082906001600160a01b03165afa80156119e35787906119ee575b61167891506142f8565b6004546001600160a01b031661168f811515614570565b848752600c602052602060408820546024604051809481936331a9108f60e11b835260048301525afa9081156119e35787916119a5575b50336001600160a01b0390911603611974576116e6602454841015614632565b6116f460255486111561466e565b61170085841115614868565b801580801561196b575b611713906146ab565b1561196557506117256026544261481c565b905b6001601c54019485601c556040519361173f856141bf565b8685528560208601523360408601525f6060860152608085015260a08401525f60c084015260018060a01b031660e083015261010082015260016101208201525f6101408201525f6101608201525f6101808201525f6101a0820152426101c0820152426101e08201525f610200820152825f52601d60205260405f209080518255602081015160018301556002820160018060a01b03604083015116906001600160601b0360a01b91828254161790556003830160018060a01b03606084015116828254161790556080820151600484015560a0820151600584015560c08201516006840155600783019060018060a01b0360e084015116908254161790556101008101516008830155600982019061012081015161185e816142d4565b611867816142d4565b60ff80198454169116178255610140810151906004821015610e3f578261189361020093600e9561476b565b6101608201516118a2816142d4565b6118ab816142d4565b62ff000082549160101b169062ff00001916179055610180810151600a8501556101a0810151600b8501556101c0810151600c8501556101e0810151600d8501550151910155805f52601e6020526119068260405f20614929565b335f52601f60205261191b8260405f20614929565b805f5260216020526119308260405f20614929565b60405191600183527f0d0646cea9ae4d1a5e552b33474e69239d70712f3d776f54e7416ab7da3ff15e60203394a46001815580f35b90611727565b5042821161170a565b60405162461bcd60e51b81526020600482015260096024820152683737ba1037bbb732b960b91b6044820152606490fd5b90506020813d6020116119db575b816119c0602093836141db565b810103126119d7576119d19061433b565b5f6116c6565b8680fd5b3d91506119b3565b6040513d89823e3d90fd5b506020813d602011611a21575b81611a08602093836141db565b810103126119d757611a1c611678916142eb565b61166e565b3d91506119fb565b5060e03660031901126103df57600435611a416142c5565b6080366043190112610a74578260c4356001600160401b03811161153e57611a6d903690600401614217565b6003546001600160a01b039492908516611a8881151561478a565b8560025416604051966343c6734960e01b88528860048901526020978881602481865afa8015611c2f5788918291611beb575b5092611ac86024946142f8565b60405193848092630368c42760e51b82528d60048301525afa9182156119e357611b009289918991611bd1575b500151163314614478565b868552600c8652604085205493611b188515156145b0565b813b15610ea55760405194632f39a7a360e21b86526004860152151560248501526044356044850152606435916002831015610ea55784611b88819492889684611b6285966142d4565b6064850152608435608485015260a43560a485015260e060c485015260e48401916147fc565b039134905af18015611bc657611bb2575b5091600d92525260408120600360ff1982541617905580f35b611bbb90614190565b610a7457825f611b99565b6040513d84823e3d90fd5b611be591503d808b833e610a2881836141db565b5f611af5565b8092508a8092503d8311611c28575b611c0481836141db565b81010312611c2457602492611ac8611c1c8a936142eb565b919450611abb565b8780fd5b503d611bfa565b6040513d8a823e3d90fd5b50346103df5760203660031901126103df5760406020916004358152601583522054604051908152f35b50346103df5760203660031901126103df57600435611c816148dc565b6103e88111611cc45760407f048ced0cbfd080780177282231c1bcf4b2e117ba3c76f5081b3dbab6dc6e1e1b91602354908060235582519182526020820152a180f35b60405162461bcd60e51b815260206004820152600c60248201526b0cccaca40e8dede40d0d2ced60a31b6044820152606490fd5b50611d023661415e565b611d10949394929192614908565b6002546040516343c6734960e01b81526004810186905290602090829060249082906001600160a01b03165afa80156119e3578790611f0c575b611d5491506142f8565b611d5f8515156145ef565b611d6d602454831015614632565b611d7b60255483111561466e565b801592838015611f03575b611d8f906146ab565b6001600160a01b0316928315611ee9575b15611ee35750611db26026544261481c565b935b6001601c54019485601c5560405193611dcc856141bf565b8685528560208601523360408601525f60608601528360808601528360a08601525f60c086015260e08501526101008401525f6101208401525f61014084015260016101608401526101808301526101a0820152426101c0820152426101e08201525f610200820152825f52601d60205260405f209080518255602081015160018301556002820160018060a01b03604083015116906001600160601b0360a01b91828254161790556003830160018060a01b03606084015116828254161790556080820151600484015560a0820151600584015560c08201516006840155600783019060018060a01b0360e0840151169082541617905561010081015160088301556009820190610120810151610d3a816142d4565b93611db4565b611efe611ef684886144b8565b341015614829565b611da0565b50428211611d86565b506020813d602011611f3f575b81611f26602093836141db565b810103126119d757611f3a611d54916142eb565b611d4a565b3d9150611f19565b5060208060031936011261153e5760043560018060a01b036024838260025416604051928380926343c6734960e01b82528760048301525afa80156120a957859061206f575b611f9791506142f8565b611fa2341515614539565b8184526007835260408420335f52835260405f2054158285526006845260408520611fce34825461481c565b90558285526007845260408520335f52845260405f20611fef34825461481c565b9055611ff9578380f35b818452600a835260408420805490600160401b82101561205b579061202391600182018155614110565b819291549060031b9133831b921b19161790558252600b81526040822090335f525260405f20600160ff198254161790555f80808380f35b634e487b7160e01b86526041600452602486fd5b508381813d83116120a2575b61208581836141db565b8101031261209e57612099611f97916142eb565b611f8d565b8480fd5b503d61207b565b6040513d87823e3d90fd5b50346103df5760203660031901126103df576004358152601d602052604090208054600182015491600160a01b6001900380600283015416908060038401541690600484015490600585015490600686015490600787015416600887015491600988015493600a89015495600b8a015497600c8b015499600d8c01549b600e01549c6040519e8f91825260208201526040015260608d015260808c015260a08b015260c08a015260e089015261010088015260ff8116612173906142d4565b60ff811661012088015261014087018160081c60ff1690612193916142de565b8060101c60ff166121a3906142d4565b60101c60ff166101608701526101808601526101a08501526101c08401526101e083015261020082015261022090f35b50346103df5760203660031901126103df5760406020916004358152600c83522054604051908152f35b50346103df57602090816003193601126103df576004359182825260128152604082205491601382526040812054936040519463fab7e61960e01b86528160048701528386602481305afa918215610a36578392612288575b60a096508352601484526040808420549360158652205493604051958652850152604084015260608301526080820152f35b91508386813d83116122b1575b61229f81836141db565b810103126108875760a0955191612256565b503d612295565b50346103df57806003193601126103df576020602454604051908152f35b50346103df5760403660031901126103df5760406122f261413b565b9160043581526009602052209060018060a01b03165f52602052602060405f2054604051908152f35b50346103df57806003193601126103df576020601054604051908152f35b5060031960803682011261153e5781600435916123546142c5565b6001600160401b039160443583811161209e57612375903690600401614217565b929093606435908111610ea557612390903690600401614217565b95909160018060a01b03938460035416906123ac82151561478a565b8560025416604051966343c6734960e01b88528b60048901526020978881602481865afa80156119e357879061251d575b6123e791506142f8565b858c602460405180958193630368c42760e51b835260048301525afa918215610eb157612421928991889161250957500151163314614478565b898452600c86526040842054916124398315156145b0565b803b1561209e5761248d938593604051958694859384936321c28f6160e21b85526004850152151560248401526080604484015261247c8d8d60848601916147fc565b908382030160648401528d8a6147fc565b039134905af18015611bc6576124f1575b5050907f6951245bd14f4ba00bd365f13dfd8a376ff50f3d5da7581b9a5f21d648daac1a946124eb926124de6040519687966040885260408801916147fc565b92858403908601526147fc565b0390a280f35b6124fd90939293614190565b6119d75790865f61249e565b611be591503d808a833e610a2881836141db565b508881813d831161254c575b61253381836141db565b810103126119d7576125476123e7916142eb565b6123dd565b503d612529565b50346103df57806003193601126103df576020602354604051908152f35b50346103df5760203660031901126103df5760043561258e6148dc565b610e1081106125d15760407fa26f70a3d60aec5b16495eaa74529905fa4cc5f2aa8022f9991d07eb5885da0891602654908060265582519182526020820152a180f35b60405162461bcd60e51b8152602060048201526014602482015273195e1c1a5c985d1a5bdb881d1bdbc81cda1bdc9d60621b6044820152606490fd5b50346103df57806003193601126103df576001546040516001600160a01b039091168152602090f35b50346103df5760203660031901126103df5760406020916004358152601b83522054604051908152f35b50346103df5760403660031901126103df5761267a614125565b6001600160a01b03168152601f60205260408120805460243592908310156103df576020610b3c8484614110565b50346103df5760203660031901126103df5760406020916004358152601a83522054604051908152f35b50346103df57806003193601126103df576003546040516001600160a01b039091168152602090f35b50346103df57806003193601126103df576004546040516001600160a01b039091168152602090f35b50346103df5760203660031901126103df5761273e614125565b6127466148dc565b6001600160a01b0381811680156127b657600280546001600160a01b031981169092179055604080516001600160a01b0393909216831682529190921660208301527f431996811d960e5492d09466247c8c8d771ddf3ccd08de4ecb706122d082226c9190819081015b0390a180f35b60405162461bcd60e51b815260206004820152601760248201527f696e76616c6964206576656e747320636f6e74726163740000000000000000006044820152606490fd5b50346103df5760203660031901126103df5760406020916004358152601983522054604051908152f35b50346103df57806003193601126103df5761283e6148dc565b600180546001600160a01b031981169091555f906001600160a01b03167f8be0079c531659141344cd1fd0a4f28419497f9722a3daafe3b4186f6b6457e08280a380f35b50346103df5760203660031901126103df5760406020916004358152601483522054604051908152f35b50346103df5760208060031936011261153e5760043582526021602052604082209160405180926020855492838152019483526020832092905b8282106128fd5761159f85611593818903826141db565b8354865294850194600193840193909101906128e6565b50346103df5760203660031901126103df5760405190612933826141a3565b808252806020830152606060408301528060608301528060808301528060a08301528060c08301528060e083015261010081818401526101208281850152610140938385820152610160938085830152806101808093015260018060a01b0394602482876002541660405192838092630368c42760e51b825260043560048301525afa928315612a83578093612a66575b5050612a5560405197889760208952845160208a01526020850151166040890152604084015195612a036101a0978860608c01526101c08b01906142a0565b97606086015160808b0152608086015160a08b015260a086015160c08b015260c086015160e08b015260e08601511515818b01528501511515818a015284015115158189015283015182880190614151565b810151828601520151908301520390f35b612a7b9293503d8091833e610a2881836141db565b905f806129c4565b604051903d90823e3d90fd5b50346103df5760203660031901126103df57600254604051630368c42760e51b81526004803590820152916001600160a01b039181908490602490829086165afa908115612a835760209384928290612af0575b5050015116604051908152f35b612b0492503d8091833e610a2881836141db565b5f80612ae3565b50346103df5760403660031901126103df576040612b2761413b565b9160043581526007602052209060018060a01b03165f52602052602060405f2054604051908152f35b50346103df5760203660031901126103df577fed0eda2adb422edb70df905afa57c7502a5ee3acd7ffd018afc9a8a0c68881d4612b8b614125565b612b936148dc565b600380546001600160a01b039283166001600160a01b031982168117909255604080519390911683526020830191909152819081016127b0565b50346103df57612bdc366140fa565b612be46148dc565b80821015612c2757816040917fe95a3bb0d605627c17796bbc0a10ad32cc58c29e4c9bb4b55f4a7da1bc54e861936024558060255582519182526020820152a180f35b60405162461bcd60e51b815260206004820152600e60248201526d696e76616c6964206c696d69747360901b6044820152606490fd5b50346103df5760208060031936011261153e576001600160a01b03612c80614125565b168252601f602052604082209160405180926020855492838152019483526020832092905b828210612cbc5761159f85611593818903826141db565b835486529485019460019384019390910190612ca5565b5060e0366003190112610887576004356001600160401b0381116108875736602382011215610887578060040135612d0a816141fc565b91612d1860405193846141db565b818352366024838301011161088757815f9260246020930183860137830101526001600160401b0360a4351161088757608060a435360360031901126108875760c4356001600160401b03811161088757612d77903690600401614217565b600354919391612d91906001600160a01b0316151561478a565b60a435606401356001600160a01b038116810361088757336001600160a01b0382160361305a576002546040805163261d140f60e21b815260e060048201529560209287926001600160a01b039091169183915f91612df49060e48501906142a0565b602435602485015260443560448501526064356064850152826084850152828785830392600319840160a4880152828152601c840160c4880152015201925af1938415612f98575f94613026575b506003546001600160a01b031691823b156108875760405195638141f9ed60e01b87526040600488015260a435600401359260221960a435360301841215610887576001600160401b03600460a43586010135116108875760a4358401600481013560051b36036024909101136108875760806044890152600460a43585019081013560c48a01819052899560e460059290921b87018201959493926024019187015f5b600460a435840101358110612fa357505050505f959385938493612f3a93602460a43501356064870152604460a4350135608487015260018060a01b031660a48601526003198584030160248601526147fc565b039134905af1908115612f98576020938392612f84575b50837fd0b9bd587a0318ecb5b28202d789e85a06a29a7a79f16fd4199be6f129d9d48e91604051908152a2604051908152f35b9050612f909150614190565b805f83612f51565b6040513d5f823e3d90fd5b91939495969092975060e3198c8203018352873560621960a4358601360301811215610887576020613013600193829360a43589010190613006602483016044612ffe612ff083806147cb565b6040875260408701916147fc565b9401906147cb565b91858185039101526147fc565b990193019101908b979695949391612ee6565b9093506020813d602011613052575b81613042602093836141db565b810103126108875751925f612e42565b3d9150613035565b60405162461bcd60e51b815260206004820152601760248201527f766f7563686572206f776e657220213d2073656e6465720000000000000000006044820152606490fd5b34610887576130ad366140fa565b6002546040516343c6734960e01b81526004810184905260209392916001600160a01b03908116918581602481865afa8015612f98575f906131e5575b6130f491506142f8565b8060015416331491821561318f575b50501561315b57801561312657601461312493835f525260405f205561495d565b005b60405162461bcd60e51b815260048101849052600d60248201526c696e76616c69642076616c756560981b6044820152606490fd5b60405162461bcd60e51b815260048101849052600c60248201526b1d5b985d5d1a1bdc9a5e995960a21b6044820152606490fd5b60249192505f9060405192838092630368c42760e51b82528860048301525afa8015612f985785915f916131cb575b5001511633148480613103565b6131df91503d805f833e610a2881836141db565b866131be565b508581813d8311613214575b6131fb81836141db565b810103126108875761320f6130f4916142eb565b6130ea565b503d6131f1565b346108875760403660031901126108875761323461413b565b6004355f52600960205260405f209060018060a01b03165f52602052602060405f2054604051908152f35b34610887576020366003190112610887576004355f526016602052602060405f2054604051908152f35b3461088757602036600319011261088757600435805f52601d6020526132bf60018060a01b03600260405f2001541633146146ec565b805f52601d60205260ff600960405f20015460081c166004811015610e3f576132e8901561472c565b805f52601d60205260405f206009810161020061ff0019825416179055600d429101557f61b9399f2f0f32ca39ce8d7be32caed5ec22fe07a6daba3a467ed479ec6065825f80a2005b61333a3661415e565b613348949394929192614908565b6002546040516343c6734960e01b81526004810186905290602090829060249082906001600160a01b03165afa8015612f98575f9061367f575b61338c91506142f8565b6133978515156145ef565b6133a5602454831015614632565b6133b360255483111561466e565b8015808015613676575b6133c6906146ab565b845f52600760205260405f20335f526020528560405f20541061363b571561363557506133f56026544261481c565b935b6001601c54019485601c556040519361340f856141bf565b8685528560208601523360408601525f60608601528360808601528360a08601525f60c086015260018060a01b031660e085015261010084015260016101208401525f61014084015260016101608401526101808301526101a0820152426101c0820152426101e08201525f610200820152825f52601d60205260405f209080518255602081015160018301556002820160018060a01b03604083015116906001600160601b0360a01b91828254161790556003830160018060a01b03606084015116828254161790556080820151600484015560a0820151600584015560c08201516006840155600783019060018060a01b0360e084015116908254161790556101008101516008830155600982019061012081015161352f816142d4565b613538816142d4565b60ff80198454169116178255610140810151906004821015610e3f578261356461020093600e9561476b565b610160820151613573816142d4565b61357c816142d4565b62ff000082549160101b169062ff00001916179055610180810151600a8501556101a0810151600b8501556101c0810151600c8501556101e0810151600d8501550151910155805f52601e6020526135d78260405f20614929565b335f52601f6020526135ec8260405f20614929565b805f5260216020526136018260405f20614929565b60405191600183527f0d0646cea9ae4d1a5e552b33474e69239d70712f3d776f54e7416ab7da3ff15e60203394a460015f55005b936133f7565b60405162461bcd60e51b8152602060048201526013602482015272696e73756666696369656e742073686172657360681b6044820152606490fd5b504282116133bd565b506020813d6020116136b2575b81613699602093836141db565b81010312610887576136ad61338c916142eb565b613382565b3d915061368c565b34610887576136c8366140fa565b906136d16148dc565b5f52600c60205260405f20555f80f35b34610887575f366003190112610887576005546040516001600160a01b039091168152602090f35b3461088757602080600319360112610887576002546040516343c6734960e01b81526004803590820152908290829060249082906001600160a01b03165afa908115612f98575f91613761575b506040519015158152f35b90508181813d831161378f575b61377881836141db565b8101031261088757613789906142eb565b82613756565b503d61376e565b34610887576020366003190112610887576004355f52600d602052602060ff60405f205416604051908152f35b602080600319360112610887576137db341515614539565b6004546001600160a01b03908116906137f5821515614570565b6004355f52600c83528260405f205461380f8115156145b0565b6024604051809581936331a9108f60e11b835260048301525afa918215612f98575f92613884575b505f80809381933491165af161384b61450a565b501561385357005b6064906040519062461bcd60e51b82526004820152600a6024820152691d1a5c0819985a5b195960b21b6044820152fd5b9091508281813d83116138bc575b61389c81836141db565b81010312610887575f8080936138b2829461433b565b9450925050613837565b503d613892565b34610887575f366003190112610887576020601154604051908152f35b346108875760208060031936011261088757600254604051631ee7609f60e11b81526004803590820152908290829060249082906001600160a01b03165afa908115612f98575f9161393d575b5061393b6040518092614151565bf35b90508181813d831161396c575b61395481836141db565b8101031261088757516005811015610887578261392d565b503d61394a565b34610887576020366003190112610887576004355f526018602052602060405f2054604051908152f35b34610887575f366003190112610887576020600e54604051908152f35b34610887575f366003190112610887576020600f54604051908152f35b34610887576139e5366140fa565b905f52601e60205260405f20805482101561088757602091610b3c91614110565b34610887575f366003190112610887576002546040516001600160a01b039091168152602090f35b346108875760208060031936011261088757600435805f526007825260405f20335f52825260405f20548015613bac57815f526006835260405f2054908115613b7c5790613a8a613a8f92845f526008865260405f20546144b8565b6144df565b91815f526009815260405f20335f52815260405f205480841115613b4457613ab790846144fd565b92825f526009825260405f20335f52825260405f20555f80808086335af1613add61450a565b5015613b10577fb9e8470097faa00e83252475f2ee4b69007b0bb2405268ebec248676998a21b3906040519384523393a3005b6064906040519062461bcd60e51b82526004820152600d60248201526c1c185e5bdd5d0819985a5b1959609a1b6044820152fd5b60405162461bcd60e51b815260048101839052601060248201526f6e6f7468696e6720746f20636c61696d60801b6044820152606490fd5b60405162461bcd60e51b81526004810185905260086024820152671b9bc81d1bdd185b60c21b6044820152606490fd5b60405162461bcd60e51b81526004810184905260096024820152686e6f2073686172657360b81b6044820152606490fd5b3461088757602080600319360112610887576004355f52600a815260405f20604051908183825491828152019081925f52845f20905f5b86828210613c72578686613c2a828803836141db565b60405192839281840190828552518091526040840192915f5b828110613c5257505050500390f35b83516001600160a01b031685528695509381019392810192600101613c43565b83546001600160a01b031685529093019260019283019201613c14565b346108875760208060031936011261088757613ca9614125565b613cb16148dc565b6040516370a0823160e01b81523060048201526001600160a01b03918216918382602481865afa918215612f98575f92613dd4575b508115613d9c579060448492600154165f604051958694859363a9059cbb60e01b8552600485015260248401525af1908115612f98575f91613d67575b5015613d2b57005b6064906040519062461bcd60e51b8252600482015260156024820152741d1bdad95b881d1c985b9cd9995c8819985a5b1959605a1b6044820152fd5b90508181813d8311613d95575b613d7e81836141db565b8101031261088757613d8f906142eb565b82613d23565b503d613d74565b60405162461bcd60e51b815260048101859052601060248201526f6e6f20746f6b656e2062616c616e636560801b6044820152606490fd5b9091508381813d8311613dfc575b613dec81836141db565b8101031261088757519084613ce6565b503d613de2565b3461088757613e11366140fa565b6002546040516343c6734960e01b815260048101849052602092916001600160a01b03908116918481602481865afa908115612f98575f91613fa5575b50602492613e5c5f926142f8565b60405193848092630368c42760e51b82528960048301525afa918215612f9857613e939285915f91613f8b57500151163314614478565b8015613f5157825f526012825260405f2054613f16577fa99ddc898c3c105d66a7cbe1c0faad74ae5ee1bd3d4af316aef4319842f1f16791606091845f52601282528060405f20556013825261271060405f20556006825260405f20546015835260405f2055601682524260405f2055604051915f83528201525f6040820152a2005b60405162461bcd60e51b8152600481018390526013602482015272185b1c9958591e481a5b9a5d1a585b1a5e9959606a1b6044820152606490fd5b60405162461bcd60e51b8152600481018390526012602482015271696e76616c6964206261736520707269636560701b6044820152606490fd5b613f9f91503d805f833e610a2881836141db565b87611af5565b90508481813d8311613fdd575b613fbc81836141db565b8101031261088757602492613e5c613fd45f936142eb565b92505092613e4e565b503d613fb2565b34610887576020366003190112610887576004355f526022602052602060405f2054604051908152f35b34610887575f366003190112610887576020602554604051908152f35b34610887576020366003190112610887576004355f526012602052602060405f2054604051908152f35b34610887576020366003190112610887577f80ca0b5687eff34591561eb536ba25142a31d7ecf19cacf465634a138d66f12161408f614125565b6140976148dc565b600480546001600160a01b039283166001600160a01b03198216811790925560408051939091168352602083019190915290a1005b34610887576140da366140fa565b905f526020805260405f20805482101561088757602091610b3c91614110565b6040906003190112610887576004359060243590565b8054821015610918575f5260205f2001905f90565b600435906001600160a01b038216820361088757565b602435906001600160a01b038216820361088757565b906005821015610e3f5752565b60a0906003190112610887576004359060243590604435906064356001600160a01b0381168103610887579060843590565b6001600160401b03811161095457604052565b6101a081019081106001600160401b0382111761095457604052565b61022081019081106001600160401b0382111761095457604052565b90601f801991011681019081106001600160401b0382111761095457604052565b6001600160401b03811161095457601f01601f191660200190565b9181601f84011215610887578235916001600160401b038311610887576020838186019501011161088757565b60209060206040818301928281528551809452019301915f5b82811061426b575050505090565b83518552938101939281019260010161425d565b5f5b8381106142905750505f910152565b8181015183820152602001614281565b906020916142b98151809281855285808601910161427f565b601f01601f1916010190565b60243590811515820361088757565b60021115610e3f57565b906004821015610e3f5752565b5190811515820361088757565b156142ff57565b60405162461bcd60e51b8152602060048201526014602482015273195d995b9d08191bd95cc81b9bdd08195e1a5cdd60621b6044820152606490fd5b51906001600160a01b038216820361088757565b9060209081838203126108875782516001600160401b03938482116108875701916101a0838303126108875760405193614388856141a3565b8351855261439782850161433b565b82860152604084015190811161088757830182601f82011215610887578051906143c0826141fc565b936143ce60405195866141db565b82855283838301011161088757826143e9938501910161427f565b6040830152606081015160608301526080810151608083015260a081015160a083015260c081015160c083015261442260e082016142eb565b60e08301526101006144358183016142eb565b908301526101206144478183016142eb565b9083015261014080820151906005821015610887578301526101608082015190830152610180809101519082015290565b1561447f57565b60405162461bcd60e51b81526020600482015260116024820152703737ba1032bb32b73a1031b932b0ba37b960791b6044820152606490fd5b818102929181159184041417156144cb57565b634e487b7160e01b5f52601160045260245ffd5b81156144e9570490565b634e487b7160e01b5f52601260045260245ffd5b919082039182116144cb57565b3d15614534573d9061451b826141fc565b9161452960405193846141db565b82523d5f602084013e565b606090565b1561454057565b60405162461bcd60e51b81526020600482015260086024820152676e6f2076616c756560c01b6044820152606490fd5b1561457757565b60405162461bcd60e51b81526020600482015260116024820152701bdddb995c9cda1a5c081b9bdd081cd95d607a1b6044820152606490fd5b156145b757565b60405162461bcd60e51b815260206004820152601060248201526f1d1bdad95b881b9bdd081b1a5b9ad95960821b6044820152606490fd5b156145f657565b60405162461bcd60e51b81526020600482015260146024820152731a5b9d985b1a59081cda185c9948185b5bdd5b9d60621b6044820152606490fd5b1561463957565b60405162461bcd60e51b815260206004820152600d60248201526c707269636520746f6f206c6f7760981b6044820152606490fd5b1561467557565b60405162461bcd60e51b815260206004820152600e60248201526d0e0e4d2c6ca40e8dede40d0d2ced60931b6044820152606490fd5b156146b257565b60405162461bcd60e51b815260206004820152601260248201527134b73b30b634b21032bc3834b930ba34b7b760711b6044820152606490fd5b156146f357565b60405162461bcd60e51b81526020600482015260116024820152703737ba1037b93232b91031b932b0ba37b960791b6044820152606490fd5b1561473357565b60405162461bcd60e51b815260206004820152601060248201526f6f72646572206e6f742061637469766560801b6044820152606490fd5b906004811015610e3f5761ff0082549160081b169061ff001916179055565b1561479157565b60405162461bcd60e51b8152602060048201526012602482015271191bdb58481c1c9bde1e481b9bdd081cd95d60721b6044820152606490fd5b9035601e19823603018112156108875701602081359101916001600160401b03821161088757813603831361088757565b908060209392818452848401375f828201840152601f01601f1916010190565b919082018092116144cb57565b1561483057565b60405162461bcd60e51b815260206004820152601060248201526f0d2dce6eaccccd2c6d2cadce8408aa8960831b6044820152606490fd5b1561486f57565b60405162461bcd60e51b8152602060048201526013602482015272696e76616c69642070726963652072616e676560681b6044820152606490fd5b5f52601260205260405f205480156148d7576148d361271091601360205260405f2054906144b8565b0490565b505f90565b6001546001600160a01b031633036148f057565b60405163118cdaa760e01b8152336004820152602490fd5b60025f54146149175760025f55565b604051633ee5aeb560e01b8152600490fd5b8054600160401b8110156109545761494691600182018155614110565b819291549060031b91821b915f19901b1916179055565b805f52602060128152604090815f205415614ac25760148152815f205460158252825f205481151580614ab9575b15614aa157614999916144df565b835f5260128252825f205461271091828102908082048414901517156144cb576149dd916149c6916144df565b855f52601b8452845f2054908115614a99576144b8565b045b611388808210614a91575b50620f4240808211614a89575b50835f5260138252825f2081815491556016835242845f2055818103614a1f575b5050505050565b7fa99ddc898c3c105d66a7cbe1c0faad74ae5ee1bd3d4af316aef4319842f1f1679383614a5f614a715f94601260609852612710928391868820546144b8565b049589865260128452848620546144b8565b04908251948552840152820152a25f80808080614a18565b90505f6149f7565b90505f6149ea565b8391506144b8565b5050601b8152815f2054806149df57506127106149df565b5080151561498b565b50505056fea264697066735822122077b04e747336dd4ecfcc5b86547b03180cf711177357118a4f288db45b36c38a64736f6c63430008180033",
    "linkReferences": {}
  },
  "methodIdentifiers": {
    "activeBuyOrders(uint256,uint256)": "09aeb7a6",
    "activeSellOrders(uint256,uint256)": "ef7c824a",
    "bridgeEventDomain(uint256,bool,string,string)": "9577fcbb",
    "cancelOrder(uint256)": "514fcac7",
    "claimEventDomain(uint256,bool,(uint256,uint8,uint256,uint256),bytes)": "bfa337e4",
    "claimRevenue(uint256)": "1cb536ed",
    "createBuyOrder(uint256,uint256,address,uint256)": "ebc344c7",
    "createEventWithTokenization(string,uint256,uint256,uint256,uint256,((string,string)[],uint256,uint256,address),bytes)": "5f0bfe88",
    "createInvestorShareBuyOrder(uint256,uint256,uint256,address,uint256)": "aeb6860a",
    "createInvestorShareSellOrder(uint256,uint256,uint256,address,uint256)": "48d0797c",
    "createSellOrder(uint256,uint256,uint256,address,uint256)": "c203f40e",
    "domaProxy()": "82d7fbc8",
    "emergencyWithdraw()": "db2e21bc",
    "emergencyWithdrawToken(address)": "1af03203",
    "eventBuyVolume(uint256)": "3557455a",
    "eventCurrentPrice(uint256)": "105d17bd",
    "eventExistsCheck(uint256)": "43c67349",
    "eventInvestors(uint256,uint256)": "dabd6105",
    "eventLastTradingUpdate(uint256)": "83ecdf64",
    "eventOrders(uint256,uint256)": "22c26ea8",
    "eventPriceMomentum(uint256)": "8a3a90a3",
    "eventSellVolume(uint256)": "73b35537",
    "eventShareBasePrice(uint256)": "0c7cd08d",
    "eventShareMultiplier(uint256)": "fb5547d1",
    "eventShareSupply(uint256)": "b974a856",
    "eventToDomaStatus(uint256)": "4365adbb",
    "eventToDomaTokenId(uint256)": "a28b7c63",
    "eventTotalValue(uint256)": "6ef67e80",
    "eventTradingVolume(uint256)": "e37b55bb",
    "eventsContract()": "1ebdc263",
    "feeRecipient()": "46904840",
    "getActiveBuyOrders(uint256)": "c93e8b15",
    "getActiveSellOrders(uint256)": "6e593210",
    "getCurrentSharePrice(uint256)": "fab7e619",
    "getDomaStatus(uint256)": "cdef4720",
    "getDomaTokenId(uint256)": "7b503662",
    "getEvent(uint256)": "6d1884e0",
    "getEventCreator(uint256)": "6c7f0d4e",
    "getEventInvestors(uint256)": "1c4e3cdb",
    "getEventOrders(uint256)": "cb30e899",
    "getEventStatus(uint256)": "3dcec13e",
    "getInvestorShareBalance(uint256,address)": "60ad16c9",
    "getOrder(uint256)": "d09ef241",
    "getPricingInfo(uint256)": "9e474028",
    "getRevenueAccrued(uint256)": "de173bec",
    "getRevenueClaimed(uint256,address)": "9a82a164",
    "getTotalInvested(uint256)": "d2ccac17",
    "getTradingInfo(uint256)": "cc4999ea",
    "getUserOrders(address)": "63c69f08",
    "initializeDynamicPricing(uint256,uint256)": "135a7752",
    "investInEvent(uint256)": "ae183137",
    "investorBps()": "2534a370",
    "investorShares(uint256,address)": "684da413",
    "isEventInvestor(uint256,address)": "cf00bf0f",
    "isInvestor(uint256,address)": "df442122",
    "lastPriceUpdate(uint256)": "563ad15c",
    "maxOrderValue()": "0ce4abf8",
    "maxRegistrationFee()": "3e0d2d9e",
    "minOrderValue()": "9e2c8ff1",
    "minRegistrationFee()": "9706828a",
    "orderExpirationTime()": "e6d05b93",
    "orders(uint256)": "a85c38ef",
    "owner()": "8da5cb5b",
    "ownershipToken()": "7b3d9af7",
    "platformFee()": "26232a2e",
    "registerForEventWithRevenuePool(uint256)": "f4f7ae5d",
    "renounceOwnership()": "715018a6",
    "revenueAccrued(uint256)": "85f3d77a",
    "revenueClaimed(uint256,address)": "57e61735",
    "setDomaProxy(address)": "677853e9",
    "setDomaTokenId(uint256,uint256)": "46e98a99",
    "setEventsContract(address)": "79aa668d",
    "setFeeRecipient(address)": "e74b981b",
    "setOrderExpirationTime(uint256)": "91740f5d",
    "setOrderValueLimits(uint256,uint256)": "652019e9",
    "setOwnershipToken(address)": "0a2dcda6",
    "setTradingFee(uint256)": "b0d54bcf",
    "tipDomainOwner(uint256)": "3f8a30ea",
    "totalInvested(uint256)": "74c21059",
    "tradingFeeBps()": "924cca9a",
    "transferOwnership(address)": "f2fde38b",
    "updateEventTotalValue(uint256,uint256)": "5aa55324",
    "updateOrder(uint256,uint256,uint256,uint256)": "cefdb8b6",
    "userOrders(address,uint256)": "856652e9"
  },
  "id": 34
}